:020000040000FA
:1000000000080400000000004C2800004C280000FC
:100010004C2800004C2800004C2800004C28000010
:100020004C2800004C2800004C2800004C28000000
:100030004C2800006E1A0000E41D00004C2800004F
:100040004C2800004C2800004C2800004C280000E0
:100050004C280000A82300004C2800004C28000079
:10006000322300004C2800004C2800004C280000DF
:100070004C2800004C2800004C2800004C280000B0
:100080004C2800004C280000522300004C2800009F
:100090004C2800004C2800004C2800004C28000090
:1000A000FE1800004C2800004C28000072230000BD
:1000B0004C2800004C2800004C2800004C28000070
:1000C0004C2800004C2800004C2800004C28000060
:1000D0004C2800004C2800004C2800004C28000050
:1000E0004C2800004C2800004C2800004C28000040
:1000F0004C2800004C2800004C2800004C28000030
:100100004C2800004C2800004C2800004C2800001F
:100110004C2800004C2800004C2800004C2800000F
:100120004C2800004C2800004C2800004C280000FF
:100130004C2800004C2800004C2800004C280000EF
:100140004C2800004C2800004C2800004C280000DF
:100150004C2800004C2800004C2800004C280000CF
:100160004C2800004C2800004C2800004C280000BF
:100170004C2800004C2800004C2800004C280000AF
:100180004C2800004C2800004C2800004C2800009F
:100190004C2800004C2800004C2800004C2800008F
:1001A0004C280000421C00004C2800004C28000095
:1001B0004C2800004C2800004C2800004C2800006F
:1001C0004C2800004C2800004C2800004C2800005F
:1001D0004C2800004C2800004C2800004C2800004F
:1001E0004C2800004C2800004C2800004C2800003F
:1001F0004C2800004C2800004C2800004C2800002F
:100200004C2800004C2800004C2800004C2800001E
:100210004C2800004C2800004C2800004C2800000E
:100220004C2800004C2800004C2800004C280000FE
:100230004C2800004C2800004C2800004C280000EE
:100240004C2800004C2800004C2800004C280000DE
:100250004C2800004C2800004C2800004C280000CE
:100260004C2800004C2800004C2800004C280000BE
:100270004C2800004C2800004C2800004C280000AE
:100280004C280000FFFFFF00FFFFFF00FFFFFF0003
:10029000FFFFFF00FFFFFF00FFFFFF00FFFFFF006A
:1002A000FFFFFF00FFFFFF00FFFFFF00FFFFFF005A
:1002B000FFFFFF00FFFFFF00FFFFFF00FFFFFF004A
:1002C000FFFFFF00FFFFFF00FFFFFF00FFFFFF003A
:101000004F3D21000EFF27000E0188000000000068
:10101000000020000000E00002003200000120007B
:101020002002880014000700740007000000E000A0
:1010300003003A00E03321000100200002003700E5
:101040000000200001002000810F7000010032002C
:101050000F000700000020000000E0000200320046
:101060000000020000000000061202000000000064
:101070000040DA000000FE00200020000000E00038
:1010800002003200002020009001880000000600CD
:10109000A1028800800478000000EB001F003700E8
:1010A000E284440054A0B4009905BA00E2844400EC
:1010B00054A0B4009906BA00E284440054A0B400DD
:1010C0000006EB00476FDE00FD07B200AE018800AE
:1010D000636CE10003003A000AD801000000EB0055
:1010E0000E003700606CE10008003A00004DEB0094
:1010F0000A05E800020039003420EC000AF0A000E4
:101100008B05E900F9FF3E00040037006168E1004B
:10111000010032000086EB000B00070019C7BA007F
:101120000E04E0001905BA0003003A000A00E000CE
:10113000DBFF3A0000000600FE07B200AE028800A6
:101140008A047800F5FF37000CD0A300E20F4D00B1
:101150001C00390089027800354DBA000A05E80004
:10116000020039003420EC000AF0A0008B05E900F1
:101170000F003200254DBA000A05E80002003900D0
:101180003420EC000AF0A0008B05E90008003200D2
:101190000C00E0000600320015CDBA000A05E80098
:1011A000020039003420EC000AF0A0008B05E900B1
:1011B0008984E80054A0B4000B00E000E2FF3A008C
:1011C000000006009902BA00055D78008B05E90071
:1011D000F7FF3200C82ADE00055D78008B05E900C4
:1011E000F3FF32000C00E000F1FF320019DDBA001D
:1011F000EEFF37000040DA000000FE0000000500AE
:101200008001780002003700B15978000201E9003E
:101210000200E000FCFF3A000000060080017800B8
:1012200002003700815978000201E9000200E00065
:10123000FCFF3A0000000600010000000000FA0078
:10124000008080000000E000020032000300070080
:101250000030EF000080FA00000006000600FA00EF
:10126000801221008040EB0001487800F08080006F
:101270000000E0001C0132001E30EF000081800001
:101280000000E000110132002030EF00908080006B
:1012900091452500810F50009700320091452500AF
:1012A000810F500006003E00E50F50000E00320096
:1012B00001442500810F5000380032000101370041
:1012C00011472500810F5000F5003200115825000C
:1012D000810F50002F00320001462500810F500081
:1012E000A0003200F7003700108180000000E0000D
:1012F000200032002230EF006000B800008FBE00F6
:101300000A003700A02221001E00400090409000FB
:10131000A01221001E0040000148780012002000A9
:10132000030020001E0F41005E974900A02221000B
:10133000104078000080FB000000E800CF80DE0055
:10134000BE0F5000AE8F5800EEFF3E00A0222100DD
:10135000104078008040E8008012210001487800A9
:10136000120820008000EB00A0222100ABFF070044
:10137000D4003700A012210061C0B30001487800FA
:101380008012210011C0B300014878002230EF0024
:10139000CC0037000000FE00CA0037000A30EF0022
:1013A0000C30EF00508080006180800070808800E9
:1013B000818088006000B800FF030700708088000B
:1013C000818088002000200001002000FA0307002F
:1013D00050808800618088006000B80079030700B1
:1013E000200798002E0090000000E0000B00320063
:1013F000A012210051C1B3000148780080122100E1
:1014000011C0B30001487800121020008000EB00EA
:101410006002210081FF0700AA0037007080800071
:10142000818080000001BE006000B8008C030700CE
:1014300050808000618080000001BE0020002000FC
:101440000100200086030700008021000100200029
:10145000008FBE00160037001E0078009E0090002E
:1014600058030700200798002E0090000000E000BD
:101470000B003200A012210051C1B30001487800D6
:101480008012210011C0B300014878001210200022
:101490008000EB006002210060FF07000B003700B6
:1014A00000802000010020001E0F40005E974800D1
:1014B000F07F2900210020001E0178009E0190008D
:1014C000800F5100818F5900E3FF36001210200079
:1014D0008000EB006002210050FF0700A0122100F5
:1014E00061C0B300014878008012210011C0B30030
:1014F00001487800730037000000EB0020079800D7
:1015000070022100104078000080FB006A0050004B
:101510008000780000032100510207002007980096
:101520002E0090000000E00007003200A012210011
:1015300051C1B300014878008012210011C0B300EE
:10154000014878005F003700A012210061C0B3009D
:10155000014878008012210011C0B30001487800D2
:101560005800370010002000108188007002210010
:10157000104078000080FB000000E80000017800C7
:1015800081022100B02221001DFF07000230EF0080
:1015900070022100104078000080FB006A005000BB
:1015A00072232100800078000003210063010700FE
:1015B0007002210090407800A022210001487800AC
:1015C000108080000000E0002E0032001830EF0094
:1015D00070022100104078000080FB006300500082
:1015E000CF80DE00008FBE000B003700A02221005C
:1015F0001E004000104090008080FB00C0808000F2
:1016000000804000C08088000081EB008081EB00FA
:101610001E0F41005E9749001E0078009E0090005A
:10162000E00F5000E08F5800F0FF3A00C0808000CB
:101630000080EA00C080880070022100104078001D
:101640000080FB000001E900C0808000804078003D
:10165000A0222100000041001140980070022100EA
:10166000104078000080FB000081E900C08080000D
:101670004800DE0080407800A022210000004100E8
:1016800011409800A012210061C0B3000148780009
:101690008012210011C0B300014878000900370012
:1016A0001000200020808800A012210061C0B3003B
:1016B000014878008012210011C0B3000148780071
:1016C000000000001230EF0007003700A0122100D8
:1016D00051C1B300014878008012210011C0B3004D
:1016E000014878002230EF000080FA000000060078
:1016F0000400FA00000F7800110798006002210032
:10170000104078000004E000070032006002210071
:1017100010407800E14F400003003A0060022100D1
:101720008040EB0001487800600221001040780002
:101730000081FB001E0078009040780080022100AC
:10174000000041000148780060022100104078004C
:101750000080FB00E30F500005003C00E10F50004B
:101760002B003D000000E00004003200670037005D
:10177000E50F500065003C00520037006002210078
:10178000104078000080FB008080E80060022100AB
:101790000080400010407800E24F500006003A0000
:1017A00060022100104078008040E80060022100C3
:1017B00001487800BB00370060022100104078002B
:1017C0000080FB008080E800600221000080400073
:1017D00010407800E54F5000AF003A005000200064
:1017E0009080880010002000F08088001000200009
:1017F0000081880010002000008088006002210025
:101800008040EB00014878001430EF00A50037005D
:1018100060022100104078000080FB008080E8001A
:101820006002210000804000104078008080FB00B2
:1018300000042000008060000000E0000E00320084
:10184000A0808000C400DD0060022100104078000C
:101850000080FB000081E8006002210000004100E0
:10186000104078000080FB00008040007003B10051
:10187000A08088000D003700A0808000C400DD003B
:1018800060022100104078000080FB000081E80029
:101890006002210000004100104078000080FB0041
:1018A000008040000003B100A08088006002210099
:1018B000104078008040E800600221000148780074
:1018C0007800370090808000C800DD0060022100B1
:1018D000104078000080FB000081E80060022100D9
:1018E00000004100104078000080FB0000804000B4
:1018F0009080880060022100104078008040E8005D
:101900006002210001487800660037006002210073
:10191000104078008080FB00A080800066004000BE
:10192000808F500056003A0060022100104078007D
:101930000080FB008080E800600221000080400001
:1019400010407800E34F500055003A00600221003B
:10195000104078000080FB000080E9008080E800F3
:101960006002210000804000104078000080FB00F1
:101970004800DD00B080880060022100104078003F
:101980000080FB000000E9008080E8006002210088
:1019900000804000104078008080FB00B080800014
:1019A00001007000B0808800A080800063004000CB
:1019B000D08088001830EF000C003700D080800005
:1019C0008080E80060022100008040001040780024
:1019D0008080FB00C080800000804000C0808800C4
:1019E000D08080000000E900D0808800D080800096
:1019F0000000E000F1FF3A00C08080000080EA00B3
:101A0000C0808800C1808000B0808000808F50003E
:101A100010003A0010002000F08088001000200024
:101A200000818800100020000080880060022100F2
:101A30009040780070022100014878006002210087
:101A40008040EB00014878001430EF001630EF00C2
:101A50001400370010002000F08088002030EF00D4
:101A60001000200000808800600221008040EB0010
:101A7000014878001430EF001630EF0009003700FD
:101A800060022100104078008040E80060022100E0
:101A90000148780003003700000000000100370013
:101AA000000000000080FA00000006000600FA00B6
:101AB000200798000000EB00000F78008012210042
:101AC000104078000004E000190032000040EB00F4
:101AD000204798000E0037001E007800AE009000EE
:101AE00000804000AE4090008180FB000181E80052
:101AF0008112210081004100914078000148780066
:101B00001E0FE8002E4090000040E800204798009B
:101B100080122100904078002E40900080CF50002D
:101B2000EDFF3E00801221008040EB00014878006C
:101B30001E0078000080FA00000006001600FA007F
:101B4000000F9800110F9800220F98000040EB0042
:101B5000004F78006000B800200798003107980017
:101B6000B90037006000B80060079800710798005E
:101B70002E0090008E08900000804000000F98001A
:101B80000E08900090407800002C21000148780059
:101B90000E0890006300400090407800602C210007
:101BA000014878000E0890006400400040968800CC
:101BB000002C2100104078000080FB0065004000F0
:101BC000CF80DE0020079800310798002E0090009B
:101BD0009E08900000805000100F98000040EB001D
:101BE000004F78000000EB00100798000800370055
:101BF0008E0890001E009000008040001040780089
:101C00001E4F40001E0090000000E80010079800E2
:101C1000002C2100104078000080FB00650040008F
:101C2000800078001E009000808F5000F0FF3E0082
:101C30001E4078000004E00083003A00602C210080
:101C4000104078000080FB00E20F50004E00320090
:101C5000E40F5000600032000000E00072003A0023
:101C6000502C21008040EB0001487800402C2100DE
:101C70008040EB00014878000E0890000000E8006A
:101C800090407800302C2100014878000E08900028
:101C90000080E80090407800202C21000148780066
:101CA0001296800023968000809680009196800096
:101CB0000201400083814800609680007196800098
:101CC000020040008380480010968800219688001A
:101CD0002800370010968000219680008100D100F6
:101CE0000080D30040079800510798004E009000F4
:101CF000DE009000B00107006007980071079800AF
:101D00006C00470042002000800078002E08900000
:101D10003BFD070010002000108088001096800016
:101D20002196800064004000E08048001096880002
:101D3000219688002E08900064004000200F980033
:101D4000002C210010407800E34F500006003600C0
:101D5000002C210010407800E4405000002C2100AD
:101D60000148780003003700002C21008040EB0080
:101D700001487800002C2100104078000004E000A9
:101D8000D4FF3A0030003700F02C21008040EB00F7
:101D9000014878004096800090407800E02C2100B7
:101DA00001487800409680000000E80090407800EC
:101DB000D02C210001487800C02C21008040EB008D
:101DC000014878006000B8008096880091968800ED
:101DD0000230EF001C0037004096800090407800F1
:101DE000302D210001487800409680000000E80076
:101DF00090407800202D210001487800102D21000E
:101E00008040EB0001487800002D21008040EB006D
:101E1000014878006000B8006096880071968800DC
:101E20000230EF00080037006000B80060968800BC
:101E3000719688006000B8008096880091968800AE
:101E40000230EF00000000001E089000E40F500078
:101E500044FF3E006000B8000080FA000000060069
:101E60001600FA00100F9800210F98000040EB00B8
:101E7000004F78006000B8002007980031079800F4
:101E8000C60037002E0090009E08900000804000A1
:101E9000100F98001E08900090407800C02A210082
:101EA000014878001E0890006300400090407800D0
:101EB000202B2100014878001E089000640040009B
:101EC000A0958800C02A2100104078000080FB0007
:101ED00065004000CF80DE002007980031079800A1
:101EE0002E009000AE08900000805000200F980057
:101EF0000040EB00004F78000000EB001007980056
:101F0000080037009E0890001E00900000804000EE
:101F1000104078001E4F40001E0090000000E800B6
:101F200010079800C02A2100104078000080FB00B4
:101F300065004000800078001E009000808F5000F7
:101F4000F0FF3E001E4078000004E00093003A00DD
:101F5000202B2100104078000080FB00E20F500091
:101F600061003200E40F5000720032000000E00017
:101F700083003A00102B21008040EB0001487800DC
:101F8000002B21008040EB00014878001E089000E3
:101F90000000E80090407800F02A21000148780015
:101FA0001E0890000080E80090407800E02A2100A0
:101FB000014878007295800083958000E09580004C
:101FC000F19580000201400083814800C0958000A7
:101FD000D195800002004000838048007095880001
:101FE000819588003B0037007095800081958000C6
:101FF0008100D1000080D30040079800510798006D
:10200000C02A210010407800E34F50000B003E0032
:102010000080EB008080EB0070079800010F9800B3
:10202000C02A2100104078000081FB00A1958000AB
:102030006E00470072FC070004003700A195800085
:102040006E004700420020006DFC07007E009000FB
:102050008E0890000001BE004E009000DE0090004F
:102060007F000700600798006E0090000000E0000D
:1020700002003200100020004C00370070958000F4
:102080008195800064004000E080480070958800E1
:1020900081958800A095800064004000A09588008C
:1020A000C02A210010407800E34F5000060036009F
:1020B000C02A210010407800E4405000C02A2100CE
:1020C0000148780003003700C02A21008040EB005F
:1020D00001487800C02A2100104078000004E00088
:1020E000C1FF3A002D003700B02B21008040EB00EB
:1020F00001487800A095800090407800A02B210036
:1021000001487800A09580000000E8009040780029
:10211000902B210001487800802B21008040EB00AB
:10212000014878006000B800E0958800F1958800CB
:102130001A003700A095800090407800F02B210015
:1021400001487800A09580000000E80090407800E9
:10215000E02B210001487800D02B21008040EB00CB
:1021600001487800C02B21008040EB000148780036
:102170006000B800C0958800D1958800070037003E
:102180006000B800C0958800D19588006000B80054
:10219000E0958800F1958800000000002E0890006E
:1021A000E40F500037FF3E000000EB000080FA0013
:1021B000000006000000FA00208080000080FA0085
:1021C000000006000800FA00200798003107980078
:1021D0002E019000BE019000028FBE002E409000A4
:1021E0000080FB00A00288001E009000603988007B
:1021F0001E007800503988001E0078008080EB00B7
:102200000108BB003000240040398800C3E8A90061
:102210005005200070398800A00A2000703988001D
:1022200029E7A800000000000000000000000000F6
:102230004139800000002800008060000000E000BC
:10224000FBFF3A00C3E8A800403980004D00DE00E3
:10225000614060000080FB000080FA000000060082
:102260001000FA0040079800510798006207980094
:10227000730798004E019000DE019000028FBE00AF
:102280006E019000FE01900022079800330798002D
:1022900010002400403988001E009000603988003A
:1022A0001E00780050398800A00F2000A00288008E
:1022B0004E019000DE01900030002000010020005F
:1022C00002027800030178008001780001007800A4
:1022D00003026200000061008000EB00C000DD002E
:1022E000000020000001BE006120B8000001710064
:1022F00081817100E00F5100E08F59000D00320024
:102300000000EB008080EB000108BB001000200003
:10231000F10F20000188BB00AE00900020002000DB
:102320000108BB00BE009000300020000188BB0007
:102330000C003700AE0090000000EB000108BB006D
:10234000BE009000100020000188BB00200020008B
:102350008080EB000108BB0030002000F10F20005E
:102360000188BB00C3E8A90050052000703988002F
:10237000A00A20007039880029E7A80000000000AA
:10238000000000000000000041398000000028002B
:10239000008060000000E000FBFF3A00C3E8A800F6
:1023A000403980004D00DE00614060000080FB008D
:1023B0000080FA00000006000E00FA0050079800A6
:1023C000610798005E019000EE01900032079800CE
:1023D000430798004E009000A0028800BE019000C4
:1023E000030F78001E0078001080BA0020079800C4
:1023F0001E0078001000BA00100798001E00900020
:10240000AE0090000080FA00000006000000FA0014
:102410000D000700440007000000E0000600320045
:10242000020037005500070084FB070061FF07002A
:102430000000E000FBFF3200490007000000EB0055
:102440000080FA00000006000000FA0030002000C2
:1024500070708800B0002000F0708800300020000C
:1024600070718800022EEF0030302000007088006C
:102470000010200090708800F0002C008070880010
:10248000222EEF00F000200000718800E002200002
:10249000303A880020002000203A880032022000D4
:1024A00080072000A10920003374200080497800B3
:1024B00081497800824978001200200060042000E1
:1024C000710520002374200080497800814978003C
:1024D0008249780000000000103A8000610060002E
:1024E0000000E000FCFF3A00303680008001B300BD
:1024F00030368800103480003000B300103488007B
:1025000080002000801188003222EF00301020006F
:10251000C01188003062A80031E2A8003342A80050
:102520000080FA00000006000200FA0090708000AF
:102530004F00DE00004078000080FB00000F7800B4
:102540001E007800E10F500002003A001000200049
:10255000010037000000EB000080FA0000000600D8
:102560000200FA0000802100000F78001E007800B1
:10257000000001000080FA00000006000600FA00DA
:10258000640047001D0007000000E0000300320067
:10259000640047001100200055FC0700402D210079
:1025A000100798001E00900040FD0700004F7800C3
:1025B0001E4078000004E0000E00320006003700E4
:1025C0001E009000104078009E0090008100E800FE
:1025D000110798001D0007001E80FB000000EA00A4
:1025E0004F00DE00004078001E4FE9000004E000CC
:1025F000F3FF3A000080FA00000006000200FA0033
:10260000000F780090118000610060000000E00081
:102610000B003200B0118000804078001E0078006E
:102620000148780090118000620060000000E00026
:10263000010032003222A900100020000100370002
:102640000000EB000080FA00000006000200FA0023
:10265000004F780000000000911180000020200051
:10266000008060000000E000FBFF3A001E80FB00DD
:10267000A01188000080FA0000000600261000006B
:10268000AE020000800000000010000026000000E4
:1026900080000000D4120000000100008000000053
:1026A00000000000FFFFFF00FFFFFF00FFFFFF0033
:1026B000FFFFFF00FFFFFF00FFFFFF00FFFFFF0026
:1026C000FFFFFF00FFFFFF00FFFFFF00FFFFFF0016
:1026D000FFFFFF00FFFFFF00FFFFFF00FFFFFF0006
:1026E000FFFFFF00FFFFFF00FFFFFF00FFFFFF00F6
:10300000AF4D22002EFE27000E01880000000000B8
:10301000000020000000E00002003200000120005B
:1030200020028800140007005F0807000000E0008D
:1030300003003A00C0792700010020000200370099
:103040000000200001002000810F7000010032000C
:103050000F000700000020000000E0000200320026
:1030600000000200000000001A74020000000000CE
:103070000040DA000000FE00A07F21000000E00018
:1030800002003200002020009001880000000600AD
:10309000A1028800800478000000EB001F003700C8
:1030A000E284440054A0B4009905BA00E2844400CC
:1030B00054A0B4009906BA00E284440054A0B400BD
:1030C0000006EB00476FDE00FD07B200AE0188008E
:1030D000636CE10003003A000AD801000000EB0035
:1030E0000E003700606CE10008003A00004DEB0074
:1030F0000A05E800020039003420EC000AF0A000C4
:103100008B05E900F9FF3E00040037006168E1002B
:10311000010032000086EB000B00070019C7BA005F
:103120000E04E0001905BA0003003A000A00E000AE
:10313000DBFF3A0000000600FE07B200AE02880086
:103140008A047800F5FF37000CD0A300E20F4D0091
:103150001C00390089027800354DBA000A05E800E4
:10316000020039003420EC000AF0A0008B05E900D1
:103170000F003200254DBA000A05E80002003900B0
:103180003420EC000AF0A0008B05E90008003200B2
:103190000C00E0000600320015CDBA000A05E80078
:1031A000020039003420EC000AF0A0008B05E90091
:1031B0008984E80054A0B4000B00E000E2FF3A006C
:1031C000000006009902BA00055D78008B05E90051
:1031D000F7FF3200C82ADE00055D78008B05E900A4
:1031E000F3FF32000C00E000F1FF320019DDBA00FD
:1031F000EEFF37000000000000000000809FBE00CE
:10320000821F78003200F8003400F800100020001F
:10321000A00188000020200090018800000000002C
:103220000400FA0003C8A900508080000000E000FC
:103230000B003A00408480000000E00008003200EB
:10324000508080000000E00001003A004730A800F4
:103250008830EF008E30EF008A30EF008C30EF00C6
:1032600040848000B111800081407800022F22004C
:10327000000041000148780040848000E30F5000C6
:1032800003003E00E10F50001D0031000300370035
:10329000E50F500049003E003B00370040848000AD
:1032A000012F22000080400010407800E24F5000C3
:1032B00008003A00408480000000E8004084880054
:1032C0008A30EF008C30EF00803821005080880079
:1032D0007C00370040848000012F220000804000E5
:1032E00010407800E54F500073003A005000200075
:1032F000608488004430A8004450A8007100370062
:1033000040848000012F220000804000104078009F
:103310008080FB0000042000008060000000E000CE
:103320000B00320050848000C400DD004084800027
:10333000022F220000004100104078000080FB00B6
:10334000008040007003B100508488000A003700FC
:1033500050848000C400DD0040848000022F2200E1
:1033600000004100104078000080FB000080400019
:103370000003B10050848800408480000000E80011
:10338000408488004F00370060848000C800DD0062
:1033900040848000022F220000004100104078008D
:1033A0000080FB0001007000608488004084800081
:1033B0000000E8004084880042003700508480000C
:1033C000E600400040848000808F500036003A00C4
:1033D00040848000012F22000080400010407800CF
:1033E000E34F500036003A00408480000080E9003E
:1033F000012F220000804000104078000080FB0078
:103400004800DD0070848800408480000000E900EE
:10341000012F220000804000104078008080FB00D7
:1034200070848000010070007084880050848000E7
:1034300063004000100798000000EB00000F7800C8
:1034400009003700012F22001E009000008040007C
:10345000104078000080FB001E0F40001E0090000E
:103460000000E900100798001E0090000000E00036
:10347000F4FF3A001E8FEA00708480009E007800FE
:10348000808F500003003A004430A8004450A80048
:10349000020037004430A8004450A9008830EF00F3
:1034A0008E30EF0007003700408480000000E80005
:1034B000408488000300370000000000010037004E
:1034C000000000000080FA003400F9003200F9002A
:1034D0004F0178004F00BE0000400600809FBE00F4
:1034E000829FBE00849FBE00861F78003200F800D5
:1034F0003400F80010002000A00188000020200007
:1035000090018800000000000400FA000068A90093
:1035100010828000620060000000E000D1003200F4
:103520002182800000042000008060000000E00094
:103530005D0032003081800041818000E00F50004A
:10354000E08F580029003A0001828000A0848000AA
:10355000808F500002003A004270A800230037001C
:103560002182800000802000008060000000E000D8
:103570001E00320000828000FE00B900F40040000E
:10358000E0122200008040009000900010007800BF
:10359000308188004181880000828000FE00B900EF
:1035A0008080E800E012220000804000900090003F
:1035B00010007800E20121000089BE000082800036
:1035C000FE00B900EA004000E01222000080400046
:1035D0009000900010007800000078009080880033
:1035E000008280000000E8000082880021828000C4
:1035F00000202000008060000000E0002A0032006F
:103600004530A900E00121001001780090019000F0
:103610004061210051002000800F5100818F59002E
:103620000F003E00E00121001001780090019000A1
:10363000008280000000E900FE00B900E6004000C2
:10364000E0122200008040009000900010007800FE
:103650000200400083804800E20121000089BE0092
:1036600091808000F0FF2700808F50000A00320018
:10367000008280000000E900FE00B900EE0040007A
:10368000E0122200008040009000780090808000CE
:103690000080400090808800908080000000E00062
:1036A00001003D001230EF00E001210020019000F8
:1036B000B0019000E001210090009000100078001F
:1036C0000200400083804800E201210020019800B0
:1036D00031019800E001210020019000B00190002C
:1036E00000002F00F107200002037800030178009A
:1036F000800178000100780003036300000061008E
:103700008000EB00C000DD00000020000001BE00D2
:103710006130B8000001710081817100441BDD003F
:103720004C10DE0000007300CC18DE00000F7800A3
:10373000004020001E0060000000E0000500320094
:1037400044F0A80024CEA80000002800A08588002E
:103750000400370044F0A90024CEA900F0FF2700A0
:10376000A0858800208280004700DE00E1406000E4
:10377000208280004800DE006140600080CF500061
:10378000140032004570A8001082800068006000BC
:103790000000E000100032004230A9004270A90091
:1037A000E20121006000B80020019800310198007A
:1037B000E20121006000B8000089BE001230EF0075
:1037C0000000EB00000F78004030EF0024CEA9008D
:1037D000010037004570A900208280004700DE000C
:1037E000614060000080FB00610060004800DD0077
:1037F00022828000F1EF2F00810061000100700043
:10380000208288002182800000402000008060002B
:103810000000E00003003200F0FF270080808800F5
:1038200010003700F03F20001E00600080004000C4
:1038300040662B00008040001000780010079800C0
:10384000A18580001E0090000180B9004109DD00C3
:103850004F02DE0004027100CF8ADE00040078000F
:10386000808088000080FA003400F9003200F900FE
:103870004F0378004F02BE004F01BE004F00BE0054
:1038800000400600809FBE00821F78003200F800D2
:103890003400F80010002000A00188000020200063
:1038A00090018800000000000000FA000BE8A90069
:1038B0000162800000002800008060000000E0003D
:1038C00009003200418CA9009D2AA9004670A80079
:1038D00070122200904078000174A1000148780025
:1038E0004490A8009500370020808000318080003F
:1038F000E00F5000E08F580006003200208080006A
:103900003180800061005000E080580020808800F5
:1039100031808800408080000000E0000300320019
:10392000408080000000E9004080880040858000E1
:10393000518580000081700002F0A7000201EA00BA
:103940000201E9004F11DE000241780061005000E1
:10395000E080580040858800518588000204E0001E
:1039600019003200508380006183800061004000B4
:10397000E0804800508388006183880010828000C6
:10398000620060000000E00004003A002082800035
:10399000680060000000E0000600320070838000D4
:1039A0008183800061004000E080480070838800CF
:1039B0008183880000362E00610120004085880048
:1039C000518588004410A800D08580000000E000E8
:1039D00003003200D08580000000E900D085880017
:1039E000E08280000000E00003003200E0828000FE
:1039F0000000E900E0828800F08280000000E00022
:103A000003003200F08280000000E900F0828800AC
:103A1000508080000000E0000300320050808000F1
:103A20000000E900508088008085800080007800D8
:103A300001F0A7008100EA008100E900CF08DE0064
:103A4000814078000000E900808588000104E000E2
:103A50003400320090012000808588003081800091
:103A600041818000E00F5000E08F580006003200D6
:103A7000308180004181800061005000E08058006A
:103A800030818800418188004530A8001082800084
:103A90004D00DE00E1406000108280004C00DE003E
:103AA0006140600080CF5000080032001182800029
:103AB00000002100008060000000E0000E003200E5
:103AC0006830EF0046D0A8000B003700118280005C
:103AD00000002100008060000000E00006003200CD
:103AE00040838000E10F40000300320040838000EB
:103AF0000000E80040838800108280004C00DE0057
:103B0000614060000080FB00610060004D00DD004E
:103B100012828000F1FF2D00810061000100700021
:103B200010828800111180000010200000806000C9
:103B30000000E000010032002342A9001071800063
:103B4000640060000000E0000D00320091858000FC
:103B500070252800808F500015003E009085800061
:103B60000000E8009085880091858000401F2800B3
:103B7000808F50000E0036004590A8000C003700E2
:103B80009185800080DA2700808F50000800360081
:103B9000908580000000E900908588009185800074
:103BA000B0E02700808F500001003E004590A90042
:103BB0000080FA003400F9003200F9004F0178006B
:103BC0004F00BE00004006003600F800809FBE0097
:103BD000829FBE00849FBE00869FBE00889FBE005D
:103BE0008A9FBE008C9FBE003200F8003400F800AF
:103BF00010002000A0018800002020009001880013
:103C0000000000004400FA006000B800300798008F
:103C1000410798000088A90020FF2700200090009D
:103C20000000E00008003D0020FF27002000900079
:103C300080007800F0FF2700008060000000D100C5
:103C4000100798000500370020FF27002000900093
:103C500000F0A0000000D100100798009E00900026
:103C6000B1828800B1828000A0BE2000808F500009
:103C70000E003400B08280000001780020338600FE
:103C8000313386000003BE000627980017279800EE
:103C90000E2390009E2390001100090042BBD80023
:103CA000708088004390A9000300370000D02700EF
:103CB000708088004390A800B182800060142000CA
:103CC0000088B90050079800610798005E009000D6
:103CD000EE009000C10BDD004F02DE000482730095
:103CE000CF8ADE0004007800C082880090808000C7
:103CF000A080880090808000B08088009080800044
:103D0000C080880020828000680060000000E00021
:103D10001100320010828000620060000000E000AC
:103D20000D003A008025200090808800B08280003D
:103D3000CF80DE003E0507006266260063F62300A2
:103D4000530507001905070000007800A0808800CF
:103D5000004B2000B08088002182800000402000BD
:103D6000008060000000E0000D003200F0FF27003E
:103D70008080880060122200904078006FC0600050
:103D80008080FB00E0AB20008088B900A080880024
:103D900090808000B080880090808000C080880083
:103DA0002182800000042000008060000000E0000C
:103DB0001D00320020828000680060000000E000EA
:103DC00019003A0010828000620060000000E000EC
:103DD0001500320021828000004020000080600039
:103DE0000000E00010003A00918080008025200053
:103DF0008088B900A080880090808000F400B9001D
:103E0000C080880090808000CF80DE000805070019
:103E1000D2CC2C00C3F823001D050700E3040700E3
:103E200000007800B080880020FF27009000780014
:103E30000080800000805000D080880020FF270094
:103E4000900090001080800000805000E08088008A
:103E50001182800000042000008060000000E0006B
:103E600010003200E0808000D0878800B1808000A0
:103E7000808080000180B9004109DD004F06DE002E
:103E80000C067100CF8EDE000C007800E087880001
:103E9000400F210082040700C38780002307980099
:103EA000280037001182800000022000008060009E
:103EB0000000E00012003200D0808000D08788002F
:103EC000A1808000808080000180B900C10BDD00EE
:103ED0004F03DE0006837300060F98004F89DE0053
:103EE000120F98000E089000E0878800400F210014
:103EF0006B040700C3878000230798001100370078
:103F0000D0808000D08788000000EB00E087880028
:103F1000400F210062040700C18080008080800083
:103F20000180B900C10BDD004F03DE000683730082
:103F3000260F98004F89DE00320F9800AE099000DE
:103F400023079800D42C0700CE80DE002E009000BE
:103F50000100400020079800208280006800600077
:103F60000000E00009003200108280006200600062
:103F70000000E00005003A002E009000CF80DE0037
:103F80003007980041079800040037002E00900089
:103F9000CF80DE0030079800410798003E01900076
:103FA000CE0190007021200001002000800F510000
:103FB000818F59000400340070212000010020008E
:103FC00030079800410798003E019000CE01900014
:103FD00090DE2F00F1FF2F00800F5100818F5900DC
:103FE00004003D0090DE2F00F1FF2F003007980005
:103FF000410798003E0090008025B00020079800FF
:10400000014B20002E0090000080500070079800A7
:104010007E0090000000E900306388002E009000D0
:1040200030628800628580000200780000F0A700FE
:104030000000EA000000E9004F00DE008040780048
:104040000200E900608588000104E00058003200A9
:10405000800020006085880020FF27009000780005
:104060000080800000805000100798009E009000A3
:104070001E0090000088B900500798006107980062
:104080005E009000EE009000C90BDD004703DE00EB
:1040900006837300461F98004789DE00521F980070
:1040A0004E1B9000DE1B9000560798006707980093
:1040B0007082800081828000C90BDD004704DE0031
:1040C00008847300C78CDE00F007200080C8B900A8
:1040D00080007800E040B90080804000F0072000B8
:1040E0000041B80083804000810178005E009000AC
:1040F000EE0090000200400083804800708288003B
:104100008182880020FF27009000900010808000AE
:1041100000805000100798009E0090001E00900044
:104120000088B90050079800610798005E00900071
:10413000EE009000C909DD004701DE000281710038
:10414000621F9800478BDE00761F98006E19900062
:10415000FE19900052079800630798009082800033
:10416000A1828000C909DD004705DE000A857100D3
:10417000C78DDE00F007200080D8B90080007800ED
:10418000E050B90080804000F00720000051B800E6
:1041900083804000810178005E009000EE00900076
:1041A000020040008380480090828800A18288003D
:1041B00020FF2700300090000000E00008003D00D4
:1041C00020FF27003000900080007800F0FF2700DB
:1041D000008060000000D100100798000500370043
:1041E00020FF27003000900000F0A0000000D10068
:1041F000100798009E00900070BB2000808F500038
:1042000002003C004710A800010037004710A90039
:104210009E00900080F72F000088B900500798009A
:10422000610798005E009000EE009000C10BDD0079
:104230004F03DE0006837300460F98004F89DE00AF
:10424000520F98004E089000700EB00010079800B2
:1042500061098100300020000088B90050079800F3
:10426000610798001E0090006101B9005E00900097
:10427000EE00900000004100818049005007980046
:10428000610798005E009000EE0090004E0BDD008C
:10429000C201DE0083017300630F9800C28BDE0051
:1042A000770F98006E08900060098900D080800028
:1042B0000000E00003003400D1808000010F78008E
:1042C00002003700D0808000000FEA0000838000E9
:1042D0009E007800808F5000030034001E0178009B
:1042E000028388000E003700708580000000E00027
:1042F0000B003A000083800001D027000180B90044
:10430000410BDD00CF01DE0083017300031798002D
:10431000CF8BDE00171798000E10900000838800E6
:10432000808880009E0F500002003D004310A800CE
:1043300004003700908880009E0F50000100340078
:104340004310A900C08880009E0F500006003D0069
:104350004270A80047D0A80042B0A90042D0A900EE
:104360004290A8001230EF00E08080000000E000E2
:1043700003003400E1808000010F78000200370064
:10438000E0808000000FEA00108380009E0078002B
:10439000808F5000030034001E01780012838800D3
:1043A0000E003700708580000000E0000B003A002E
:1043B0001083800001D027000180B900410BDD008F
:1043C000CF01DE008301730023179800CF8BDE003E
:1043D000371798002E10900010838800A088800066
:1043E0009E0F500002003D004330A800040037003B
:1043F000B08880009E0F5000010034004330A900B7
:10440000D08880009E0F500006003D004270A8003A
:1044100047D0A80042B0A90042D0A9004290A8000D
:104420001230EF00E1808000C0818000808F50005A
:1044300019003400C0818000F1FF25000180B9001F
:104440005007980061079800E0808000F1FF21008C
:104450000180B9005E019000EE0190000200400072
:104460008380480050079800610798005E00900024
:10447000EE009000C109DD004F01DE0002817100F5
:10448000421798004F8BDE00561798004E10900090
:10449000C08188000E003700708580000000E000B9
:1044A0000B003A00C081800001D027000180B900D4
:1044B0004109DD00CF03DE00870371006717980014
:1044C000CF89DE00731798006E109000C0818800BD
:1044D000E1808000D0818000808F500019003D0075
:1044E000D0818000F1FF25000180B90050079800BD
:1044F00061079800E0808000F1FF21000180B90091
:104500005E019000EE0190000200400083804800B0
:1045100050079800610798005E009000EE00900040
:10452000C10BDD004F03DE0006837300061F9800F9
:104530004F89DE00121F98000E189000D08188006D
:104540000E003700708580000000E0000B003A008C
:10455000D081800001D027000180B900410BDD002F
:10456000CF01DE0083017300231F9800CF8BDE0094
:10457000371F98002E189000D0818800108280008C
:10458000620060000000E000100032001182800034
:1045900000022000008060000000E0000B003200FC
:1045A0002182800000402000008060000000E000C8
:1045B00006003A00C1818000D08180000080400068
:1045C0004480DE00E0818800010037003C30EF00CD
:1045D000E181800040062000808F500002003400FE
:1045E00040062000E0818800E1818000C0F92F00B2
:1045F000808F500002003D00C0F92F00E08188004C
:10460000708580008000780001F0A7008100EA003A
:104610008100E900CF08DE00814078000000E90059
:10462000708588000104E00002003200F00F2000D5
:10463000708588000080FA003400F9003200F9002B
:104640004F06BE004F05BE004F04BE004F03BE0024
:104650004F02BE004F01BE004F00BE003600F90001
:10466000004006003200F8003400F800881F78008F
:1046700018002000A8018800082020009801880068
:10468000000000004F0478000000FA0001C8A900F3
:1046900011EBA9000080FA003400F9003200F900A3
:1046A000004006003200F8003400F800881F78004F
:1046B00018002000A8018800082020009801880028
:1046C000000000004F0478000000FA000308A90071
:1046D00021EBA9000080FA003400F9003200F90053
:1046E00000400600801F78003200F8003400F80017
:1046F00010002000A0018800002020009001880008
:10470000000000000000FA000428A90010828000C8
:10471000620060000000E00006003A002082800095
:10472000680060000000E0000200320040138000DA
:1047300080808800505A2A00401388000080FA00C8
:104740003400F9003200F9004F0078000040060004
:104750003600F800809FBE00829FBE00849FBE008E
:10476000869FBE003200F8003400F80010002000E0
:10477000A0018800002020009001880000000000B7
:104780000000FA000168A9003011800000407800A4
:104790000CF0B7000CD0BF000000FB006101B900B5
:1047A00060FD2F00F1FF2F000200400083804800D1
:1047B0005203200003002000820F5000838F580016
:1047C000F2013E0000060100710037004C00370086
:1047D0007B003700320037008D003700EB013700D7
:1047E000EA013700E9013700E8013700E701370047
:1047F000E6013700E5013700E4013700E301370047
:10480000E2013700E1013700E0013700DF01370046
:10481000DE013700DD013700DC013700DB01370046
:10482000DA013700A8003700D8013700C10037008F
:104830007901370099003700D4013700D3013700E0
:10484000D201370037013700D0013700B2003700FE
:10485000AA00370069013700CC013700D9003700C2
:1048600074013700C9013700C40137005C0137000B
:104870009C0037007A003700FB003700B400370097
:1048800086013700C1013700A0013700BF013700A2
:10489000BE013700BD013700BC01370024003700DE
:1048A00010828000620060000000E000BA01320067
:1048B0002182800000402000008060000000E000B5
:1048C0000800320091808000D0292800808F50009D
:1048D000B3013500908080000080E900908088005E
:1048E000E4013700908080000000E000AE01340059
:1048F000908080000080E90090808800DD01370012
:1049000010828000620060000000E000A801320018
:104910009180800030D62700808F5000A6013C0097
:10492000908080000080E80090808800D1013700EE
:1049300010828000620060000000E000A0013200F0
:104940002182800000402000008060000000E00024
:104950000800320091808000D0292800808F50000C
:1049600099013500908080006A0050009080880096
:10497000C0013700908080000000E0009401340006
:10498000908080006A00500090808800B901370054
:1049900010828000620060000000E0008E013200A2
:1049A0009180800030D62700808F50008C013C0021
:1049B000908080006A00400090808800AD01370040
:1049C00010828000620060000000E000860132007A
:1049D000E0012100100178009001900010342000C7
:1049E00001002000800F5100818F590080013600A6
:1049F000E001210090009000100078001034B10018
:104A00000180B100E20121000089BE009901370058
:104A100010828000620060000000E0007601320039
:104A2000E001210010017800900190004061210018
:104A300051002000800F5100818F590070013E000D
:104A4000E001210090009000100078001034B000C8
:104A50000180B000E20121000089BE00850137001D
:104A6000108280006100600000F0A7000000EA00F2
:104A70000000E9004F00DE00004078000080FB00ED
:104A80006100600012828000E1FF2F008100610060
:104A900001007000108288007601370080662C00CB
:104AA000A71B070047D0A9004670A9004790A9009E
:104AB000418CA80042B0A90042D0A9004290A800B1
:104AC0001230EF006B01370010828000620060003E
:104AD0000000E0004C013A00E00F2100AF1B07008E
:104AE0006401370010828000620060000000E00076
:104AF00047013A00BF1B07005E01370010828000AB
:104B0000620060000000E00043013A003000200035
:104B1000C085880057013700108280006200600065
:104B20000000E0003E013A0020002000C08588001F
:104B30005001370010828000620060000000E00039
:104B400039013A0010002000C08588004901370073
:104B50003182800000002400008060000000E0003E
:104B600033013A0010828000620060000000E00023
:104B70000E003A004230A8004570A800E201210072
:104B80006000B8002001980031019800E201210086
:104B9000202C2A00010020000089BE001230EF0006
:104BA00010692C00661B0700320137004270A80014
:104BB000A06B2C00621B07004330A9004310A90022
:104BC0002C013700306E2C005D1B070042B0A9009D
:104BD00042D0A9004290A8007012220090407800B4
:104BE0000114A000014878007012220010417800E2
:104BF000B1CFB3008140610001487800601222000B
:104C000010417800F1CEB300814061000148780086
:104C10006012220010417800F1CDB30081406100A4
:104C2000014878007012220010417800E1CFB300F3
:104C30008140610001487800601222001041780034
:104C4000F1CBB3008140610001487800601222007E
:104C50001041780001CFB300814061000148780025
:104C60001230EF00030137001182800000042000A1
:104C7000008060000000E000EF003A0042B0A800B1
:104C800042D0A9004290A900701222001041780081
:104C9000D1CFB3008140610001487800701222003A
:104CA00010417800B1CFB300814061000148780025
:104CB0006012220010417800F1CEB3008140610003
:104CC000014878006012220010417800F1CDB30055
:104CD0008140610001487800701222009040780005
:104CE0000104A00001487800601222001041780001
:104CF000F1CBB300814061000148780060122200CE
:104D00001041780001CFB300814061000148780074
:104D10001230EF0065210700C0702C00081B07004F
:104D2000D400370011828000000220000080600063
:104D30000000E000C2003A0042B0A90042D0A80042
:104D40004290A9007012220010417800D1CFB30028
:104D50008140610001487800701222009040780084
:104D60000124A00001487800601222001041780060
:104D7000F1CEB3008140610001487800601222004A
:104D800010417800F1CDB300814061000148780006
:104D90007012220010417800E1CFB3008140610021
:104DA000014878006012220010417800F1CBB30076
:104DB00081406100014878006012220010417800B3
:104DC00001CFB30081406100014878001230EF004C
:104DD0003621070050732C00D91A0700A5003700B0
:104DE00010828000620060000000E00096003A003F
:104DF00050002000C08588009E003700108280008F
:104E0000620060000000E00091003A0060002000B5
:104E1000C085880097003700108280006200600023
:104E20000000E0008C003A0070002000C08588007F
:104E30009000370010828000620060000000E000F7
:104E400087003A00701222009040780000C8B3003A
:104E500000C060000004E000080032007012220070
:104E6000904078000174A100014878004490A800A7
:104E7000E0752C00B21A07007E0037007012220085
:104E8000904078000174A000014878004490A80088
:104E900070782C00AA1A0700760037001082800074
:104EA000620060000000E0006F003A002082800095
:104EB000680060000000E0000A003A007012220062
:104EC00010417800F1CBB3008140610001487800C7
:104ED0004470A8004490A800007B2C00981A07009A
:104EE000640037007012220010417800F1CBB3004B
:104EF00081406100014878004470A9004490A800F6
:104F0000807D2C008E1A07005A0037001082800026
:104F1000620060000000E00055003A00208280003E
:104F20004A00DE006140600000C0EA0061406000AD
:104F30000080FB00610060004A00DD0022828000EA
:104F4000F1BF2F0081006100010070002082880005
:104F50002182800000402000008060000000E0000E
:104F60000300320000802C00751A07004100370052
:104F700090822C00721A07003E00370020852C001A
:104F80006F1A07000000FE003A00370042F0A80048
:104F90000000000037003700000000003500370037
:104FA000000000003300370000000000310037002F
:104FB000000000002F003700000000002D00370027
:104FC000000000002B00370000000000290037001F
:104FD0000000000027003700000000002500370017
:104FE000000000002300370000000000210037000F
:104FF000000000001F003700000000001D00370007
:10500000000000001B0037000000000019003700FE
:1050100000000000170037000000000015003700F6
:1050200000000000130037000000000011003700EE
:10503000000000000F003700000000000D003700E6
:10504000000000000B0037000000000009003700DE
:1050500000000000070037000000000005003700D6
:1050600000000000030037000000000001003700CE
:10507000000000000080FA003400F9003200F9005E
:105080004F03BE004F02BE004F01BE004F00BE00E6
:105090003600F900004006000040DA000000FE0083
:1050A0003200F80001C0FE00881F78008A1F7800D7
:1050B0004400F800080F2000280288000004900037
:1050C00010059000A000900030019000C0019000F9
:1050D0000300CA000280CA000030CB001A00CD00D5
:1050E0004604C3000100CA004604C0001E04C000FC
:1050F0000605C0000100CD0021009800050D7800D4
:10510000EABA9700052578004400F9004F057800B9
:105110004F0478003200F900000006003200F80069
:1051200001C0FE00801F78004000B0000008EB00C6
:105130004F007800801F7800100090000018EB00EE
:105140000018EB000008EB004F0078003200F90077
:10515000000006003200F80001C0FE004400F80024
:10516000020F200022028800910078003000CA005F
:105170003080CA000000CB002080CA000000CB00B5
:105180003100CD004000CA000000CB000000CB0081
:105190000010CB003100CD001180CC004400F9009C
:1051A0003200F90000000600000005000001BE000A
:1051B000220007000470A70003F0A1006509B100F8
:1051C000160032000D0035006828E10006003500A9
:1051D000F0FF2F00F1FF27000300E00013003B0069
:1051E0000100280000000500000040008180480008
:1051F0008502E900FCFF3A0008003700F88F420002
:1052000002003C008000EB00000005008100D1009E
:105210000080D3008502E800FCFF3A000300E000B4
:1052200002003B0060001000E08018000000060053
:105230004F89DE008201780049003700C70ADE008E
:10524000F107B200F50FB20008003200E1CF4200D2
:10525000020032000170A00024000500810F7000E0
:10526000010032000408050044000500810F7000B1
:1052700002003A00140005008502E9000000400029
:1052800081C04800FCFF3B000170A0002400050025
:10529000889FBE008A9FBE008C1F78009500070083
:1052A0009C00330003866C006450E100240032004F
:1052B0006420E100270032006150E100220032004A
:1052C0006120E100210032008B854200EB07B10034
:1052D0000134B800003AB8000804420089844A004A
:1052E000013AB8000030B8008880400009014A0047
:1052F00004003300000040008180480002014900A2
:105300008B05E900C909DD0083017000010032004E
:1053100013002000C814DE004814DD004709DE0039
:105320001200B200C808DE00088470004B000700BD
:1053300001F0A1000CF0A70001F0A0007E003700F2
:105340006120E100800032000801BE000200BE00C2
:10535000F7FF37006150E100FCFF3A007A003700A8
:10536000881F7800030478000300E00007003D0078
:1053700060001000E080180060011900E081190051
:1053800002003B0001F02D0003003700040007007D
:1053900008F0A70001F0A0004F047800000006000C
:1053A000889FBE008A9FBE000082700004027100C8
:1053B00004827100260032000004BE000200BE001C
:1053C0006011B8006B092000950220000182CF0017
:1053D0000A0039000541B1000082CF000700390002
:1053E0000541B1000982CF00040039000541B10038
:1053F0000882CF00010039000541B100054252008A
:10540000120032000A003B008281710061016400D9
:105410008100D1000080D3008984D3000884D300A8
:105420008B05E8000442E800F7FF3A000700370068
:105430000804440089844C00000048008180480032
:105440008B05E9000442E900F9FF3A000300070078
:105450004F05BE004F04BE00000006008100200082
:10546000618055000B003D000B00200061FE2F0005
:105470000100E1001D0034008281710061016400BF
:105480008904D1000884D3000000E800FAFF3A0044
:1054900071002000610064000300700002006000E1
:1054A0000900320061044400E0844C000988A50032
:1054B000050032008B05E8006808E10002003A00B0
:1054C0008904D1000884D300F20F20000258E100C3
:1054D00005003D00C75DDD00F907B2008980750059
:1054E00008007800000006000BF827008B00780009
:1054F000000005000004BE0050FF07000003BE00CE
:105500000405BE000200BE004CFF0700844F75007A
:10551000000006000200BE006450E10005003600F5
:105520006420E100020036000968A30001003A008F
:105530000800BE000160A0004F0678004F05BE00C5
:105540004F04BE0000000600F0FF2F00F1FF27000F
:10555000F9FF37008001780002003700B159780068
:105560000201E9000200E000FCFF3A000000060032
:10557000EE874700889FBE008A9FBE008C9FBE00BA
:105580008E1F7800F0B79F00010678008205780032
:1055900000047800080578000A047800B84678000E
:1055A0000D00FB008C0007000000E000F9FF3A004E
:1055B000D0C2B30080CF56000300320000C0E90023
:1055C00080CF560002003A000A05E80001003700CB
:1055D000804678000B00E00005003500E18F5500A3
:1055E0000300320040022000808F55000600340086
:1055F0006044B8000C00E000700032007FB09700FB
:10560000000E78006D0037000B00E0000E00320045
:10561000F08F55001A003A0000C3B3009A4F1000F3
:1056200017003A001A40900081C7B300814F500024
:105630000300320081C5B300814F500010003A00D2
:105640000A85E8000E003700AB00200000C3B3005D
:105650009A4F10000A003A001A40900081C7B30028
:10566000814F5000040032008B00200081C5B30040
:10567000814F500002003A000A85E8000B0120002B
:105680000A007800000278000400780001C3B3002B
:10569000B0CF1000FBFF3200040778006044B80070
:1056A000B4B79F000D003700014522008140500033
:1056B000C1EF9F006159B9000800BE0078040700DF
:1056C0004FEA97000401FB00CF91DE00C8B79F00AE
:1056D000D9B79F0002044000838448008E027800FE
:1056E0003E00FB0085BF9F00430007000B017800D0
:1056F0008000780000452200360207008FBA97002C
:105700000000E000E8FF3A003FB29700850F550027
:1057100005003A006044B8000C00E00027003200A9
:10572000FFB2970024003700048252005047220045
:105730000B0040001000FB00000252001700330075
:1057400011003A004FE997000200FB00CF80DE0015
:105750000000540081805C00800F5400818F5C0049
:10576000090039006159B90085BF9F00390407005D
:105770008FBA97004FB19700DFB19700820F5000AA
:10578000838F58000500320020022000B0268900D7
:105790000084EB008084EB0005003700D0C2B3002A
:1057A00080CF560002003A0060041400E0841C0020
:1057B0000C00E00001003200050E78000800BE0079
:1057C0004F0778004F06BE004F05BE004F04BE00D5
:1057D000EF00B100000006006900E10004003500A0
:1057E0006D00E100030034000002B100010032004E
:1057F0000000050010000500800078001104B100D1
:10580000030035009101B10001003C000050A000F0
:1058100000000600C02681000000E0000100320008
:1058200000000100604D220000000600881F780083
:10583000020478000801780046FF070008004000D5
:105840004F047800000006000000FA00881F78006E
:1058500000047800EA8157003FB99700880078007B
:1058600060C12200070007000000E00002003500D0
:1058700000044400004CEB004F0478000080FA0064
:10588000000006006200FA00889FBE008A1F7800B0
:105890000005780081047800020478008300780015
:1058A00080F92F000F004000D90307009A979F004E
:1058B000A9979F000000EB00B09F9F001885FB0098
:1058C0008A04FB000A05EA004F55DE005002200062
:1058D000808F54000D003200E10F55000B003A009C
:1058E0000A017800880078002F9097009F91970018
:1058F00003000100A0979F000000E0008E0032002E
:105900003F9897000000E800B09F9F000A04440001
:1059100050022000808F5400040032000900E00093
:10592000E6FF3A003F989700840037000000EB0044
:10593000909F9F00809F9F00F0979F00E0979F009F
:10594000D0979F00C0979F0007003700014D2200AD
:105950000100500000004000414C220080804000C7
:105960005F98970011007000D09F9F008804780016
:1059700009047800384578008A00FB00004D2200B9
:105980009E0107000000E000F0FF3A00A1C2B30052
:10599000814F55000E003A00CF8897000180E90042
:1059A000C08F9F0010007800C09F9F000000E000A3
:1059B00005003D000000EA00C09F9F005F9897002F
:1059C0000020A000D09F9F000904E8000F003700CE
:1059D000C09F9F000000EB0005003700F2FF27008A
:1059E000820F500002003200EA00B900008040003F
:1059F0000904780088047800B900FB000103B100B5
:105A0000E98F5000F5FF3600C09F9F00E0C2B30051
:105A1000984F1000020032000080EB0019003700A0
:105A2000A0C2B300D84F100007003A00CF889700FB
:105A30000180E900C08F9F0010007800A09F9F00A8
:105A40000804E800100037000000EB00A09F9F0052
:105A50008800780005003700F3FF2700830F50000F
:105A600002003200EA00B9000000410001047800A1
:105A7000880078003101FB000203B100E90F5100FA
:105A8000F5FF3600A09F9F00984478008900FB0036
:105A9000C04B2200590107000000E0000200320064
:105AA0000804E800010037008044EB00C97F9F0034
:105AB00080C6B30080CF540004003A0098CF140091
:105AC0000A003A006640500006003700C0C6B30026
:105AD00080CF540005003A0098CF140003003A002C
:105AE00065404000C07F9F000804E8001801FB00EB
:105AF000E3FB2F008F81410081F92F008F80400050
:105B0000A0F92F000F004000100007000000E00087
:105B100009003A00E1FB2F008F804000A0F92F0020
:105B20000F0040007E0207000000E0000200350088
:105B30000804E80061FF37000080EB004F057800A3
:105B40004F04BE000080FA0000000600889FBE00DF
:105B50008A9FBE00E4C6B300844F5100CE003200DD
:105B600010003C006B425200844F5100180032007C
:105B700005003C0054C2B300844F510006013200BE
:105B800084C5B3000F00370044C6B300844F5100F2
:105B90001500320065424200844F510001013A0075
:105BA0001100370004C7B300844F5100ED003200EC
:105BB0005F00350065424200844F51005C003200B6
:105BC00063424200844F5100F6003A00580037000B
:105BD0001181E90082087800F00090008181410085
:105BE00092497800F500370020629000C5C6B300E6
:105BF000854F520008003A009102780064825200FA
:105C00008408780094029000140278004FABDE0004
:105C1000860378001600370015C7B300854F520081
:105C200003003A00110478006802540005003700B0
:105C3000A5C6B300854F520008003A0091047800D1
:105C40006882540084087800940290002403900035
:105C5000B403900014027800050037001182E900B7
:105C60008408780014027800CFA2DE00612BB9000E
:105C70000498BE000690BE00A060900088C6B300E5
:105C800088CF50000D00320028C6B30088CF5000E6
:105C900004003A000402FB00CFA2DE00612BB90031
:105CA0000800370048C7B30088CF50000300320017
:105CB0006644440088CF500004003A00CFA2DE00C2
:105CC000612BB9000498BE000690BE001002780057
:105CD0009002900020039000B0039000F00090002C
:105CE000E00F5200E08F5A00E00F5B00E08F5B0096
:105CF00003003D0001824100D5C2B3000A00370015
:105D0000001290000418A300030032000182410039
:105D1000B5C2B300040037000408A30059003200E4
:105D20000182410005C2B300054A780053003700E4
:105D300020629000C5C6B300854F520009003A00AA
:105D40001105780064025500840878001404780076
:105D5000940490006055B8000802BE000A03BE001B
:105D60001600370015C7B300854F520003003A00F4
:105D7000910478006882540005003700A5C6B3007E
:105D8000854F520008003A0011057800680255005E
:105D9000840878009402900024039000B4039000DB
:105DA00014027800050037001182E90084087800A9
:105DB000140278008002EB006033B8000498BE0043
:105DC0000690BE00A060900088C6B30088CF500047
:105DD0000D00320028C6B30088CF500004003A00FE
:105DE0000482FB008002EB006033B800080037003B
:105DF00048C7B30088CF5000030032006644440017
:105E000088CF500004003A008002EB006033B800F5
:105E10000498BE000690BE00801090000138A300D8
:105E200018003200100278009002900020039000C9
:105E3000B0039000E00F5200E08F5A00E00F5B00CB
:105E4000E08F5B000F00320081C7B300814F51002B
:105E50000300320081C5B300814F510009003A00B0
:105E6000F00090000182410005C3B300054A7800AC
:105E70008100E80001824100024A78008100E800C8
:105E800071009800F000900081814100630098004B
:105E9000824078003E003700A0619000C4C6B30085
:105EA0001181E90084CF5100220032000A003C0039
:105EB0006442520084CF51002500320004C2E80041
:105EC00084CF5100130032006842520084CF510049
:105ED0001E003A000A00370044C7B30084CF5100C7
:105EE0001B0032006642420084CF5100180032008D
:105EF0006942520084CF510014003A000500370077
:105F0000820878009200780040589000804878001D
:105F10002C0037008208780092007800600A900018
:105F2000CFA2DE00612BB9008498BE008690BE002F
:105F30002400370082087800920078006009900001
:105F4000CF91DE008288BE001E0037001181E9007B
:105F5000820878009200780060089000800878003D
:105F6000180037001181E9008208780012027800D9
:105F7000CFA2DE00612BB9000498BE000690BE00DF
:105F8000F0009000818141006300980081C7B30058
:105F9000260007000B003700F000900081814100CF
:105FA00005003700F0009000818141000204E0000C
:105FB00001003A0052C2B300824978008100E80033
:105FC000710098000000EB004F05BE004F04BE00BA
:105FD0000000060003003700B0CF100005003200BB
:105FE0000201E900800178000200E000FAFF3A00B7
:105FF00000000500030078000000060002003700E2
:106000000304E0000600320000017800020078007E
:10601000B041780081CF5100F9FF3A00010037000C
:106020000001EB000200780000000600FC8747003A
:10603000889FBE008A9FBE008C9FBE008E1F780086
:106040000006780080C5B30080CF50000A003200FF
:106050007740400080CF50000A0032006940400085
:1060600080CF50000B003200B04A220080BF9F005A
:10607000AE0020000A003700A249220082BF9F0024
:1060800006003700B34A220083BF9F008E00200025
:1060900003003700B44A220084BF9F000E01200095
:1060A0001C0278009C0290002C039000BC0390001E
:1060B0000605BE000404BE0040C6B30080CF5000F9
:1060C000030032006540400080CF50000B003A00D2
:1060D000E00F5200E08F5A00E00F5B00E08F5B00A2
:1060E00006003D006000B8006011B80004045000D4
:1060F000858458000605590087855900E80F570028
:106100000400320040002000F00F57003C003A002D
:106110000100370030002000E00F5400E08F5C00E9
:10612000E00F5D00E08F5D0004003A00DC089000A5
:106130008D0120000100E000070032008E00E90020
:10614000888060008FBA970081804200914078007B
:10615000F1EF9F007D012000800078008100E900C0
:10616000050033008B05D1000A85D3008984D30054
:106170000884D300F9FF3700089EBE000A96BE00CF
:10618000130037008D06E9008E00E900848060006E
:106190000FB99700810041001141780083FD2F0065
:1061A0008D81410082F77900800178008301E90048
:1061B000050033008783D1000683D3008582D30096
:1061C0000482D300F9FF3700049EBE000696BE008D
:1061D0001C0278009C0290002C039000BC039000ED
:1061E000E00F5200E08F5A00E00F5B00E08F5B0091
:1061F000930034000D00E000E2FF3C009000370007
:106200002C60900081C6B300814F50000B0032001B
:1062100006003C000004E00008003200E6C0500028
:10622000814F500052003A0004003700C1C6B3004D
:10623000814F50004E003A00230037000800E00074
:1062400004003A005C0890008D0120000000E0008E
:1062500007003200110009000E84D8000FBA970021
:106260000100420010407800F0EF9F007D01200007
:10627000110009000E84D8000B003700110009003E
:106280000E04D8008D06E9008E81B9000204540086
:106290008FB89700088440009841780082FD2F0055
:1062A0000D01410083777900000478000800E000C8
:1062B000020032000D00E000F0FF3C00CFC4DE0021
:1062C000614DB90027003700E00F5400E08F5C00FB
:1062D00004003A005C0890008D0120000000E000FE
:1062E000080032006171B9000800BE0069010700B2
:1062F0000FBA97008000420091407800F1EF9F00B4
:106300007D0120006171B9000800BE005101070045
:106310000C0037006171B9000800BE003E010700A3
:106320008D06E90080F1B900020454008FBA97008D
:10633000088442009841780082FD2F000D01410041
:10634000837779000004BE00E00F5000E08F580012
:10635000020032000D00E000EEFF3C004FCDDE00F9
:106360008A057800089EBE000A96BE0034003700F9
:10637000E00F5400E08F5C00E00F5D00E08F5D00F7
:1063800004003A005C0890008D0120000000E0004D
:106390000A0032006172B900612BB9000800BE002A
:1063A0000A01BE00E60107000FBA97008000420014
:1063B00091407800F1EF9F007D0120006172B900EB
:1063C000612BB9000800BE000A01BE00D50107001C
:1063D0000E0037006172B900612BB9000800BE00E1
:1063E0000A01BE00DA0107008D06E90080F2B9005B
:1063F000040454008FBA9700088442009842780041
:1064000084FD2F000D02420085777A00009EBE00B9
:106410000296BE001C0478009C0490002C0590009D
:10642000BC059000E00F5400E08F5C00E00F5D00C1
:10643000E08F5D00020034000D00E000E5FF3C004D
:10644000E80F570010003A000C1090000038A3002D
:106450000D003200F78F560006003E0080FD2F0031
:106460000D004000EF40780000C3B30080CF500023
:106470000500320002C3B30071FD2F008D80400083
:106480008D06E90082F7780078811600120E9800D8
:106490006C00900083FD2F008F8141008D804100B2
:1064A0002CFC07001C089000DC089000810F5000B5
:1064B00006003D0000805000000E98000C10900077
:1064C0000040A100001698000F0037000100E00016
:1064D0000D003D008C109000F4806000F08F5000A3
:1064E00009003A007C099000FC00900081005100F6
:1064F0000C09900082805000008050004240A900AA
:1065000001003400000E98004F0778004F06BE00CF
:106510004F05BE004F04BE00CF01B10000000600D1
:106520000400FA00889FBE008A9FBE008C1F78007E
:106530000004780001067800F80D900078009000C3
:106540008085550008089000808555001808900047
:1065500080855500280890008085550038089000F7
:106560008085550048089000808555000002220073
:1065700090BF9F0000032300A0BF9F000810900061
:106580000028A30015003A000B00E00013003400BF
:106590000B0578008A047800E20F550001003600F0
:1065A00029002000C801900009017800EE80570002
:1065B0005800900003000100500498000000E00023
:1065C0008C0032006808900009004000600C9800C0
:1065D000090555004240A900EEFF3C0078019000FB
:1065E0000200E0000C003400C80190008C0078002C
:1065F0005800900003000100500498008080EB00D8
:106600000000E0007C003200E80890007800900074
:1066100000804000600C9800880C90000900E000A9
:106620001100340009057800E28F540001003600A3
:106630002A002000C80190000A017800EC80570071
:106640005800900003000100500498000000E00092
:1066500068003200680890000A004000600C980052
:106660008A845400EDFF3700180990000200E00012
:106670000C003400C8019000E80090005800900021
:1066800003000100500498008080EB000000E0004F
:1066900059003200E808900018089000008040007F
:1066A000600C9800A80C90000900E0001100340074
:1066B00009057800E28F5400010036002A0020000E
:1066C000C80190000A017800EC8057005800900043
:1066D00003000100500498000000E0004500320073
:1066E000680890000A004000600C98008A845400FA
:1066F000EDFF3700380990000200E0000E00340082
:10670000E80090001808900080804000C8019000C8
:106710005800900003000100500498008080EB00B6
:106720000000E00034003200E808900038089000D3
:1067300000804000600C9800C80C90000900E00048
:106740001100340009057800E28F54000100360082
:106750002A002000C80190000A017800EC80570050
:106760005800900003000100500498000000E00071
:1067700020003200680890000A004000600C980079
:106780008A845400EDFF3700081090008000EB0071
:106790000028A300180032000B00E00016003400AF
:1067A0008B04780009057800E28F54000100360060
:1067B0002A002000C80190000A017800EE805700EE
:1067C0005800900003000100500498000000E00011
:1067D00008003200680890000A004000600C980031
:1067E0008A8454004240A900EEFF3C008000EB0088
:1067F000010037008080EB00010078004F06780030
:106800004F05BE004F04BE000080FA0000000600E5
:106810000108780000000600839F68000100E00086
:1068200002003D0060001000E08018000300E0005E
:1068300002003D0060011100E08119000500070021
:106840004F00E00002003B0060001000E0801800F4
:10685000000006006022B800060220000000D00000
:106860008180D2000482D2008582D2000000A00084
:106870000202520083825A000300310002024200E9
:1068800083824A000000A1000603E900F3FF3A00FA
:1068900000000600EFFF07000400BE000000060035
:1068A000020AB900001BB9000200B80081004200D2
:1068B0008100430000000600889FBE008A9FBE0042
:1068C00030044200B0844A0030054B0090854B00F4
:1068D0006000B1000898BE000A90BE000440E100CC
:1068E00005C8E10006D0E10007D8E1000200310050
:1068F000680040001008E8004F05BE004F04BE00CD
:1069000000000600889FBE008A9FBE001004780029
:106910009004900020059000B005900004185400E9
:1069200005985C0006185D0007985D0011002000C6
:106930000440E10005C8E10006D0E10007D8E1000D
:10694000010039008000EB00108810004F05BE00E8
:106950004F04BE00000006001200FA00889FBE002F
:106960008A9FBE008C9FBE00E0B79F00F1B79F00DA
:1069700082BF9F0093BF9F000605BE000404BE00B7
:106980000000EB00D0B79F00C0B79F00B0B79F00DA
:10699000A0B79F0090B79F000006EB005FB1970083
:1069A000CFB09700820141003FB097000200E000A5
:1069B00004003D00370007007E805700BEFF07003F
:1069C00003003700330007007E805700CDFF07002B
:1069D000DFB697000D00E0000C0035006FB29700A5
:1069E000FFB297000FBB97009FBB970010002000DD
:1069F000010020006011B800000272008182720064
:106A000002037300838373001B0007000C06E80079
:106A100001042000810F5600E0FF3A000D00E00065
:106A200004003D000802BE000A03BE007E8057003D
:106A3000A1FF07005FA897000000E00005003A00F2
:106A40001FB29700AFB297003FB39700CFB3970044
:106A5000090007006FB09700FFB097000FB99700CB
:106A60009FB997004F06BE004F05BE004F04BE0001
:106A70000080FA0000000600010007000000060088
:106A8000A4B79F00B5B79F00C6B79F00D7B79F00B8
:106A9000000006004F09DE0082817100B3B79F003D
:106AA0004F01DE008180400082807000A1B79F000E
:106AB0008FB097004F09DE00000040000200700018
:106AC00090B79F007FA897004F01DE0081804000B3
:106AD0008280700081B79F000D0007004F3ADE00F2
:106AE0000000400004007000F0AF9F0008000700A5
:106AF0000402420085824A0006034B0087834B0054
:106B0000DFFF07000802BE000A03BE000000060007
:106B10002FB29700BFB297004FB39700DFB3970033
:106B200000000600881F780018002000881F7800E9
:106B300089FF07008F87E9004F04780000000600F6
:106B4000801FEB0084FF07008F87E900000006002C
:106B5000889FBE008A9FBE00E00F5000E08F580063
:106B6000E00F5900E08F59000C003D006044B80070
:106B70006055B8000000540081805C0002015D0097
:106B800083815D00180020001500070008003D000B
:106B9000180007000004EB00050037000004EB00BC
:106BA0000F00070002003D0012000700180020003F
:106BB000DCFF07000800E000060032006022B80099
:106BC0006033B8000000520081805A0002015B006F
:106BD00083815B004F05BE004F04BE00000006002D
:106BE000E00F5200E08F5A00E00F5B00E08F5B0087
:106BF000000006006044B8006055B800040254006C
:106C000085825C0006035D0087835D00000006004E
:106C1000889FBE008A9FBE008C1F7800E00F500046
:106C2000E08F5800E00F5900E08F59000D003D0043
:106C30006044B8006055B8000000540081805C00DA
:106C400002015D0083815D001C0020000820E1003E
:106C500009A8E1000AB0E1000BB8E1000D003D0019
:106C6000080037000006EB00E00F5200E08F5A00EA
:106C7000E00F5B00E08F5B0006003D006044B80061
:106C80006055B8000402540085825C0006035D0074
:106C900087835D00AAFF07000C00E00006003200B9
:106CA0006022B8006033B8000000520081805A00B2
:106CB00002015B0083815B004F0678004F05BE0038
:106CC0004F04BE0000000600000000006400000049
:106CD000C90000002D01000092010000F601000033
:106CE0005B020000BF0200002403000088030000D4
:106CF000ED03000051040000B60400001A05000076
:106D00007E050000E305000047060000AC06000019
:106D10001007000074070000D90700003D080000BC
:106D2000A1080000060900006A090000CE09000061
:106D3000320A0000970A0000FB0A00005F0B000007
:106D4000C30B0000270C00008B0C0000EF0C0000B0
:106D5000530D0000B70D00001B0E00007F0E000059
:106D6000E30E0000470F0000AB0F00000E10000004
:106D700072100000D6100000391100009D110000B3
:106D80000012000064120000C71200002B13000064
:106D90008E130000F213000055140000B814000018
:106DA0001B1500007E150000E115000044160000D0
:106DB000A71600000A1700006D170000D01700008A
:106DC0003318000095180000F81800005B19000047
:106DD000BD190000201A0000821A0000E41A000009
:106DE000461B0000A91B00000B1C00006D1C0000CE
:106DF000CF1C0000311D0000931D0000F41D000099
:106E0000561E0000B81E0000191F00007B1F000066
:106E1000DC1F00003D2000009F200000002100003A
:106E200061210000C2210000232200008422000012
:106E3000E422000045230000A623000006240000F1
:106E400067240000C72400002725000087250000D4
:106E5000E725000047260000A726000007270000BE
:106E600067270000C62700002628000085280000AC
:106E7000E528000044290000A3290000022A0000A0
:106E8000612A0000C02A00001E2B00007D2B00009C
:106E9000DB2B00003A2C0000982C0000F62C0000A0
:106EA000542D0000B22D0000102E00006E2E0000A8
:106EB000CC2E0000292F0000862F0000E42F0000B8
:106EC000413000009E300000FB30000058310000CF
:106ED000B4310000113200006D320000CA320000EF
:106EE0002633000082330000DE3300003A34000015
:106EF00096340000F13400004D350000A835000044
:106F0000033600005E360000B9360000143700007A
:106F10006F370000C9370000243800007E380000B9
:106F2000D8380000323900008C390000E639000002
:106F30003F3A0000993A0000F23A00004B3B000053
:106F4000A43B0000FD3B0000563C0000AE3C0000AE
:106F5000073D00005F3D0000B73D00000F3E000010
:106F6000673E0000BF3E0000163F00006E3F00007D
:106F7000C53F00001C40000073400000CA400000F4
:106F80002041000077410000CD4100002342000075
:106F900079420000CF420000254300007A43000000
:106FA000D0430000254400007A440000CF44000094
:106FB0002345000078450000CC4500002046000035
:106FC00074460000C84600001C4700006F470000E0
:106FD000C34700001648000069480000BC48000094
:106FE0000E49000061490000B3490000054A000055
:106FF000574A0000A94A0000FA4A00004C4B000022
:107000009D4B0000EE4B00003F4C00008F4C0000F9
:10701000E04C0000304D0000804D0000D04D0000DD
:10702000204E00006F4E0000BF4E00000E4F0000CB
:107030005D4F0000AC4F0000FA4F000049500000C7
:1070400097500000E55000003351000080510000CF
:10705000CE5100001B52000068520000B5520000E3
:10706000015300004E5300009A530000E653000005
:10707000325400007D540000C95400001455000033
:107080005F550000AA550000F45500003F5600006F
:1070900089560000D35600001D57000066570000B7
:1070A000B0570000F9570000425800008A5800000D
:1070B000D35800001B59000063590000AB59000071
:1070C000F35900003A5A0000815A0000C85A0000E3
:1070D0000F5B0000565B00009C5B0000E25B000061
:1070E000285C00006D5C0000B35C0000F85C0000F0
:1070F0003D5D0000825D0000C65D00000B5E00008B
:107100004F5E0000935E0000D65E00001A5F000034
:107110005D5F0000A05F0000E25F000025600000EE
