:020000040000FA
:100000000018040000000000303200003032000010
:100010003032000030320000303200003032000058
:100020003032000030320000303200003032000048
:1000300030320000AE1A0000C81E0000303200004E
:100040003032000030320000303200003032000028
:1000500030320000FE2B0000303200003032000051
:100060008A2B0000303200003032000030320000B5
:1000700030320000303200003032000030320000F8
:100080003032000030320000AA2B00003032000075
:1000900030320000303200003032000030320000D8
:1000A000FE1800003032000030320000CA2B000081
:1000B00030320000303200003032000030320000B8
:1000C00030320000303200003032000030320000A8
:1000D0003032000030320000303200003032000098
:1000E0003032000030320000303200003032000088
:1000F0003032000030320000303200003032000078
:100100003032000030320000303200003032000067
:100110003032000030320000303200003032000057
:100120003032000030320000303200003032000047
:100130003032000030320000303200003032000037
:100140003032000030320000303200003032000027
:100150003032000030320000303200003032000017
:100160003032000030320000303200003032000007
:1001700030320000303200003032000030320000F7
:1001800030320000303200003032000030320000E7
:1001900030320000303200003032000030320000D7
:1001A00030320000101D00003032000030320000FC
:1001B00030320000303200003032000030320000B7
:1001C00030320000303200003032000030320000A7
:1001D0003032000030320000303200003032000097
:1001E0003032000030320000303200003032000087
:1001F0003032000030320000303200003032000077
:100200003032000030320000303200003032000066
:100210003032000030320000303200003032000056
:100220003032000030320000303200003032000046
:100230003032000030320000303200003032000036
:100240003032000030320000303200003032000026
:100250003032000030320000303200003032000016
:100260003032000030320000303200003032000006
:1002700030320000303200003032000030320000F6
:1002800030320000FFFFFF00FFFFFF00FFFFFF0015
:10029000FFFFFF00FFFFFF00FFFFFF00FFFFFF006A
:1002A000FFFFFF00FFFFFF00FFFFFF00FFFFFF005A
:1002B000FFFFFF00FFFFFF00FFFFFF00FFFFFF004A
:1002C000FFFFFF00FFFFFF00FFFFFF00FFFFFF003A
:103000000F5422002EFE27000E0188000000000051
:10301000000020000000E00002003200000120005B
:103020002002880014000700510D07000000E00096
:1030300003003A0060C828000100200002003700A9
:103040000000200001002000810F7000010032000C
:103050000F000700000020000000E0000200320026
:103060000000020000000000668602000000000070
:103070000040DA000000FE00A09421000000E00003
:1030800002003200002020009001880000000600AD
:10309000A1028800800478000000EB001F003700C8
:1030A000E284440054A0B4009905BA00E2844400CC
:1030B00054A0B4009906BA00E284440054A0B400BD
:1030C0000006EB00476FDE00FD07B200AE0188008E
:1030D000636CE10003003A000AD801000000EB0035
:1030E0000E003700606CE10008003A00004DEB0074
:1030F0000A05E800020039003420EC000AF0A000C4
:103100008B05E900F9FF3E00040037006168E1002B
:10311000010032000086EB000B00070019C7BA005F
:103120000E04E0001905BA0003003A000A00E000AE
:10313000DBFF3A0000000600FE07B200AE02880086
:103140008A047800F5FF37000CD0A300E20F4D0091
:103150001C00390089027800354DBA000A05E800E4
:10316000020039003420EC000AF0A0008B05E900D1
:103170000F003200254DBA000A05E80002003900B0
:103180003420EC000AF0A0008B05E90008003200B2
:103190000C00E0000600320015CDBA000A05E80078
:1031A000020039003420EC000AF0A0008B05E90091
:1031B0008984E80054A0B4000B00E000E2FF3A006C
:1031C000000006009902BA00055D78008B05E90051
:1031D000F7FF3200C82ADE00055D78008B05E900A4
:1031E000F3FF32000C00E000F1FF320019DDBA00FD
:1031F000EEFF37000000000000000000809FBE00CE
:10320000821F78003200F8003400F800100020001F
:10321000A00188000020200090018800000000002C
:103220000400FA0090118000640060000000E000DB
:103230000500320023C8A90031E2A9003222A9000A
:1032400061F0A80031E2A8009011800062006000E7
:103250000000E0000400320023C8A9003222A900C7
:1032600061F0A80031E2A80003C8A90023C8A900A2
:10327000608080000000E0000B003A0000858000C4
:103280000000E00008003200608080000000E000E4
:1032900001003A005F30A800A030EF00A630EF0038
:1032A000A230EF00A430EF0000858000B111800053
:1032B000814078006235220000004100014878001A
:1032C00000858000E30F500003003E00E10F500036
:1032D0002100310003003700E50F50004D003E0093
:1032E0003F003700008580006135220000804000EB
:1032F00010407800E24F500008003A00008580003E
:103300000000E80000858800A230EF00A430EF0044
:1033100080382100608088008900370000858000A7
:10332000613522000080400010407800E54F5000D9
:1033300080003A005000200020858800600A81004B
:103340000010A000600A8900600A81000020A0002F
:10335000600A89007A00370000858000613522000C
:1033600000804000104078008080FB0000042000B6
:10337000008060000000E0000B003200108580003B
:10338000C400DD000085800062352200000041009D
:10339000104078000080FB00008040007003B10006
:1033A000108588000A00370010858000C400DD0009
:1033B0000085800062352200000041001040780046
:1033C0000080FB00008040000003B10010858800F1
:1033D000008580000000E800008588005800370064
:1033E00020858000C800DD00008580006235220055
:1033F00000004100104078000080FB0001007000D8
:1034000020858800008580000000E8000085880095
:103410004B00370010858000E600400000858000EA
:10342000808F50003F003A00008580006135220007
:103430000080400010407800E34F50003F003A0009
:10344000008580000080E900613522000080400096
:10345000104078000080FB004800DD0030858800C7
:10346000008580000000E9006135220000804000F6
:10347000104078008080FB003085800001007000E3
:103480003085880010858000630040001007980098
:103490000000EB00000F78000900370061352200C2
:1034A0001E00900000804000104078000080FB006B
:1034B0001E0F40001E0090000000E9001007980059
:1034C0001E0090000000E000F4FF3A001E8FEA00AA
:1034D000308580009E007800808F500007003A0001
:1034E000600A81000010A000600A8900600A810063
:1034F0000020A000600A890007003700600A8100F0
:103500000010A000600A8900610A8100B0FF2F004E
:1035100000806000600A8900A030EF00A630EF0054
:1035200007003700008580000000E8000085880063
:103530000300370000000000010037000000000019
:1035400023C8A8000080FA003400F9003200F90016
:103550004F0178004F00BE00004006003600F80022
:10356000809FBE00829FBE00849FBE00869FBE00DB
:10357000889FBE003200F8003400F80010002000E0
:10358000A0018800002020009001880000000000B9
:103590000800FA000068A900500A8100620060007B
:1035A0000000E00014013200610A810000042000E4
:1035B000008060000000E0008E00320090818000FA
:1035C000A1818000E00F5000E08F580048003A00D1
:1035D000E182800060858000808F5000040035000B
:1035E000500A81000030A000500A890040003700D6
:1035F000610A810000802000008060000000E0007F
:103600003B003200E1828000200220008088B90067
:10361000F8004000801522000080400090009000DB
:103620001000780090818800A1818800E1828000EC
:10363000200220008088B9008080E80080152200E8
:10364000008040009000900010007800A20221004D
:103650000089BE00510A8100000220000080600045
:103660000000E00014003200E1828000200220000F
:103670008088B900EA0040008015220000804000E8
:1036800010017800900190002207980033079800FD
:10369000A20020002E029000BE029000110009003E
:1036A00042AAD8008000EB007A0C0700D080880086
:1036B000E18088000B003700E182800020022000BA
:1036C0008088B900EA004000801522000080400098
:1036D00090009000100078006E0C0700D0808800E9
:1036E000E1808800E08280000000E800E08288003D
:1036F000610A810000202000008060000000E000DE
:103700003C003200610A8100F0DF2F000080600081
:10371000600A8900A0022100100178009001900049
:103720004061210051002000800F5100818F59001D
:1037300010003E00A00221001001780090019000CE
:10374000E08280008000E900200220008088B9002B
:10375000E6004000801522000080400090009000AC
:10376000100078000200400083804800A20221007F
:103770000089BE00D0808000E1808000210C07001D
:1037800080007800F0FF2700808F5000100032008A
:10379000E08280008000E900200220008088B900DB
:1037A000EE004000801522000080400010027800EA
:1037B00090029000D0808000E18080000001BE0077
:1037C0000400BE006C0B0700D0808800E1808800F8
:1037D000D0808000E18080000A0C070000007800A3
:1037E0000000E00003003D006000B800D0808800C9
:1037F000E1808800A002210020019000B00190002B
:10380000A00221009000900010007800020040000B
:1038100083804800A2022100200198003101980015
:10382000A002210020019000B001900000002F00B4
:10383000F10720000202780003017800800178007F
:103840000100780003026200000061008000EB00CC
:10385000C000DD00000020000001BE006120B800B3
:103860000001710081817100C41ADD004C10DE007E
:1038700000807200CC18DE00000F780000402000AD
:103880001E0060000000E00007003200600A8100B6
:103890000070A000600A890024CEA8000000280063
:1038A0006086880007003700610A8100F0F72F006A
:1038B00000806000600A890024CEA900F0FF270084
:1038C00060868800600A81004700DE00E1406000F9
:1038D000600A81004800DE006140600080CF500037
:1038E0001E003200600A810000B0A000600A89005A
:1038F000500A8100680060000000E0001B003200F8
:10390000510A8100D0FF2F0000806000500A89001A
:10391000510A810070FF2F0000806000500A89006A
:10392000A20221006000B800200198003101980037
:10393000A20221006000B8000089BE006000B8004B
:10394000D0808800E18088000000EB00000F780044
:103950005C30EF0024CEA90004003700610A81002A
:10396000F07F2F0000806000600A8900600A8100FB
:103970004700DE00614060000080FB0061006000E5
:103980004800DD00620A8100F1EF2F008100610034
:1039900001007000600A8900610A81000040200077
:1039A000008060000000E00003003200F0FF27000C
:1039B000C080880010003700F03F20001E0060002B
:1039C00080004000A01C2C00008040001000780007
:1039D00010079800618680001E0090000180B900E9
:1039E0004109DD004F04DE0008047100CF8CDE00C9
:1039F00008007800C08088000080FA003400F900D8
:103A00003200F9004F04BE004F03BE004F02BE005B
:103A10004F01BE004F00BE003600F9000040060016
:103A2000809FBE00821F78003200F8003400F8004A
:103A300010002000A00188000020200090018800D4
:103A4000000000000000FA000BE8A90001628000FD
:103A500000002800008060000000E0000B00320041
:103A6000418CA9009D2AA9005E70A80010152200B3
:103A7000904078000174A10001487800600A81003C
:103A80000040A000600A8900990037003080800063
:103A900041808000E00F5000E08F580006003200A7
:103AA000308080004180800061005000E08058003C
:103AB0003080880041808800508080000000E00055
:103AC00003003200508080000000E9005080880030
:103AD00000868000118680000081700002F0A7003F
:103AE0000201EA000201E9004F11DE000241780004
:103AF00061005000E0805800008688001186880030
:103B00000204E0001B003200108480002184800049
:103B100061004000E0804800108488002184880013
:103B2000500A8100620060000000E00004003A00DA
:103B3000600A8100680060000000E00006003200BA
:103B4000308480004184800061004000E0804800B3
:103B5000308488004184880000362E0061012000F6
:103B60000086880011868800600A81000000A0009D
:103B7000600A8900908680000000E00003003200A7
:103B8000908680000000E90090868800A083800075
:103B90000000E00003003200A08380000000E90084
:103BA000A0838800B08380000000E00003003200A2
:103BB000B08380000000E900B0838800608080004E
:103BC0000000E00003003200608080000000E90097
:103BD00060808800408680008000780001F0A700A7
:103BE0008100EA008100E900CF08DE008140780012
:103BF0000000E900408688000104E0003600320041
:103C0000900120004086880090818000A181800082
:103C1000E00F5000E08F58000600320090818000D5
:103C2000A181800061005000E080580090818800F0
:103C3000A1818800600A81000090A000600A8900CC
:103C4000500A81004D00DE00E1406000500A810012
:103C50004C00DE006140600080CF50000800320060
:103C6000510A810000002100008060000000E00097
:103C70000E0032008030EF005ED0A8000B0037004D
:103C8000510A810000002100008060000000E00077
:103C90000600320000848000E10F40000300320083
:103CA000008480000000E80000848800500A810041
:103CB0004C00DE00614060000080FB00610060009D
:103CC0004D00DD00520A8100F1FF2D0081006100EE
:103CD00001007000500A89001111800000102000BE
:103CE000008060000000E000010032002342A900D3
:103CF00010718000640060000000E0000F003200DE
:103D00005186800070252800808F50001A003E00E8
:103D1000508680000000E8005086880051868000B0
:103D2000401F2800808F500013003600600A810079
:103D300000C0A000600A89000F0037005186800093
:103D400080DA2700808F50000B00360050868000FC
:103D50000000E9005086880051868000B0E027000E
:103D6000808F500004003E00610A8100F0FF2E00A9
:103D700000806000600A89000080FA003400F900C9
:103D80003200F9004F0178004F00BE0000400600ED
:103D90003600F800809FBE00829FBE00849FBE0058
:103DA000869FBE00889FBE008A9FBE008C9FBE007B
:103DB0003200F8003400F80010002000A001880054
:103DC000002020009001880000000000AC00FA00F4
:103DD0000088A90020FF270090009000008080004C
:103DE000008050007089880020FF2700A00090000C
:103DF00010808000008050008089880020FF27000C
:103E00009000780020808000008050009089880019
:103E100020FF2700300090000000E00008003D0077
:103E200020FF27003000900080007800F0FF27007E
:103E3000008060000000D1001007980005003700E6
:103E400020FF27003000900000F0A0000000D1000B
:103E50001007980071838000F00720000088B900E7
:103E600040079800510798001E0090006101B900BA
:103E70004E009000DE00900000004100818049006B
:103E800040079800510798004E009000DE00900017
:103E90004909DD004702DE0004027100C78ADE0026
:103EA00004007800708388007183800020A82000BF
:103EB000808F500011003400708380000001780072
:103EC000508E8600618E86000002BE0044979800E6
:103ED000559798004E929000DE92900011000900D4
:103EE00042AAD800B0808800510A8100F0FF2E005D
:103EF00000806000500A89000500370000D02700CC
:103F0000B0808800500A810000C0A000500A8900DB
:103F100071838000401620000088B9004007980097
:103F2000510798004E009000DE009000C10ADD00AD
:103F30004F03DE0006837200CF8BDE0006007800A0
:103F400080838800600A8100680060000000E00053
:103F500038003200500A8100620060000000E0007A
:103F600034003A00610A81000040200000806000B7
:103F70000000E0002F003A00510A810000022000FA
:103F8000008060000000E0002A003A00510A810031
:103F900000042000008060000000E00025003A00DE
:103FA000610A810000002400008060000000E00041
:103FB00020003A0000002800215A2400F0808800E8
:103FC0000181880070898000908888000000EB00E3
:103FD000A0888800C010210023090700F08080001D
:103FE00001818000070A070080007800C0808000FF
:103FF0000180B9004109DD004F04DE0008047100B2
:10400000CF8CDE000800780080808800B1808000BE
:10401000808080000180B900C109DD004F05DE000D
:104020000A857100CF8DDE002A0798003B079800B3
:1040300089033700600A8100680060000000E0002A
:104040003C003200500A8100620060000000E00085
:1040500038003A00610A81000040200000806000C2
:104060000000E00033003A00510A81000002200005
:10407000008060000000E0002E003A00510A81003C
:1040800000042000008060000000E00029003A00E9
:10409000610A810000002400008060000000E00050
:1040A000240032000000280041402400F0808800F5
:1040B0000181880070898000908888000000EB00F2
:1040C000A0888800C0102100E7080700F080800069
:1040D00001818000CB09070080007800C08080004B
:1040E0000180B900410ADD004F06DE000C067200B7
:1040F000CF8EDE000C00780080808800B1808000C8
:10410000808080000180B9004109DD00CF02DE001F
:104110008502710045379800CF89DE00533798003B
:104120004E329000DE329000240798003507980048
:1041300049033700600A8100680060000000E00069
:104140003D003200500A8100620060000000E00083
:1041500039003A00610A81000040200000806000C0
:104160000000E00034003A00510A81000002200003
:10417000008060000000E0002F003200610A810032
:1041800000002400008060000000E0002A003A00E7
:1041900000002200416E2400F08088000181880028
:1041A0007089800090888800F08080000181800004
:1041B0009409070080007800C08080000180B90069
:1041C0004109DD00CF02DE0085027100650798001D
:1041D000CF89DE00730798006E009000A0888800E9
:1041E000A1888000A082800000805000A088880004
:1041F000C01021009C080700808880008080880013
:10420000B1808000808080000180B900C10ADD009B
:104210004F02DE0004827200643798004F89DE008E
:10422000723798006E329000FE329000240798009A
:104230003507980008033700600A810068006000B5
:104240000000E0003D003200500A81006200600082
:104250000000E00039003A00610A810000402000BF
:10426000008060000000E00034003A00510A810044
:1042700000022000008060000000E0002F003200FB
:10428000610A810000002400008060000000E0005E
:104290002A00320000002400514B2400F0808800E6
:1042A000018188007089800090888800F0808000FB
:1042B000018180005309070080007800C0808000E1
:1042C0000180B9004509DD00CB02DE0085027100E6
:1042D000050F9800CB89DE00130F98000E089000A0
:1042E000A0888800A1888000A08280000080500003
:1042F000A0888800C01021005B080700808880002B
:104300008080880081808000402420000088B900DF
:10431000C10ADD004F02DE0004827200043F9800F3
:104320004F89DE00123F98000E3A90009E3A9000AE
:104330002407980035079800C7023700600A8100FB
:10434000680060000000E0003D003200500A81007B
:10435000620060000000E00039003A00610A81005C
:1043600000402000008060000000E00034003A00BF
:10437000510A810000042000008060000000E0007D
:104380002F003200610A81000000280000806000D8
:104390000000E0002A003A0000002D0041602400E7
:1043A00010818800218188008089800090888800A1
:1043B00010818000218180001209070080007800B0
:1043C000C08080000180B9004109DD00CF02DE001D
:1043D00085027100250F9800CF89DE00330F980009
:1043E0002E089000A0888800A1888000A08280000C
:1043F00000805000A0888800C01021001A08070023
:104400008088800080808800B1808000808080006B
:104410000180B900C10ADD004F02DE000482720093
:10442000243F98004F89DE00323F98002E3A9000DA
:10443000BE3A90002407980035079800860237009E
:10444000600A8100680060000000E0003D0032006A
:10445000500A8100620060000000E00039003A006C
:10446000610A810000402000008060000000E00040
:1044700034003A00510A81000004200000806000EE
:104480000000E0002F003200610A810000002800D7
:10449000008060000000E0002A003200008022005E
:1044A000016A2400108188002181880090898000A1
:1044B000908888001081800021818000D108070049
:1044C00080007800C08080000180B9004209DD00D2
:1044D000CE02DE0085027100450F9800CE89DE0015
:1044E000530F98004E089000A0888800A188800093
:1044F000A082800000805000A0888800C0102100A9
:10450000D90707008088800080808800B180800003
:10451000808080000180B900C10ADD004F02DE000A
:1045200004827200443F98004F89DE00523F980099
:104530004E3A9000DE3A9000240798003507980024
:1045400045023700610A81000040200000806000C1
:104550000000E0003B003200510A81000002200010
:10456000008060000000E00036003200F0FF27000D
:10457000C0808800001522009042780067C0620069
:104580008080FB00E0AB20000088B900BE08070077
:10459000F0808800018188007289800070662600A2
:1045A0000090B9008180D1004F90DE000080500063
:1045B00090888800F08080000181800091080700C9
:1045C00080007800C08080000180B900C109DD0052
:1045D0004F01DE0002817100620F98004F8ADE00F9
:1045E000740F98006E089000A0888800A188800051
:1045F000A082800000805000A0888800C0102100A8
:10460000990707008088800080808800B180800042
:10461000808080000180B9004109DD00CF02DE000A
:1046200085027100653F9800CF89DE00733F9800D6
:104630006E3A9000FE3A90002407980035079800E3
:1046400005023700610A8100004020000080600000
:104650000000E00034003200510A81000004200014
:10466000008060000000E0002F003200F0FF270013
:10467000C0808800D0808000E180800062662600D3
:1046800063F62300D8080700108188002181880084
:1046900080898000908888001081800021818000BE
:1046A0005808070080007800C08080000180B900B1
:1046B0004109DD00CF02DE00850271000517980078
:1046C000CF89DE00131798000E109000A088880094
:1046D000A1888000A082800000805000A08888000F
:1046E000C01021006007070080888000808088005B
:1046F000B1808000808080000180B900C10ADD00A7
:104700004F02DE0004827200048798004F89DE00A9
:10471000128798000E8290009E82900024079800D5
:1047200035079800CC013700610A810000042000A1
:10473000008060000000E00040003200600A81005C
:10474000680060000000E0003C003A00610A81005F
:1047500000402000008060000000E00037003A00C8
:10476000510A810000022000008060000000E0008B
:1047700032003200610A81000000240000806000E5
:104780000000E0002D003A00D0808000E180800031
:104790006266260063FC230093080700F08088000F
:1047A000018188007089800090888800F0808000F6
:1047B000018180001308070080007800C08080001D
:1047C0000180B9004109DD00CF02DE0085027100E1
:1047D00025179800CF89DE00331798002E1090001F
:1047E000A0888800A1888000A082800000805000FE
:1047F000A0888800C01021001B0707008088800067
:1048000080808800B1808000808080000180B900B5
:10481000C10ADD004F02DE00048272002487980086
:104820004F89DE00328798002E829000BE82900071
:10483000240798003507980087013700610A810036
:1048400000042000008060000000E000450032000D
:10485000600A8100680060000000E00041003A004A
:10486000610A810000402000008060000000E0003C
:104870003C003A00510A81000002200000806000E4
:104880000000E00037003200610A810000002400CF
:10489000008060000000E00032003200D080800024
:1048A000E1808000A2992900930124004E080700AE
:1048B000F08088000181880072898000706626007F
:1048C0000090B9008180D1004F90DE000080500040
:1048D00090888800F080800001818000C90707006F
:1048E00080007800C08080000180B9004109DD00AF
:1048F000CF02DE008502710045179800CF89DE00E7
:10490000531798004E109000A0888800A18880005E
:10491000A082800000805000A0888800C010210084
:10492000D10607008088800080808800B1808000E8
:10493000808080000180B900C10ADD004F02DE00E6
:1049400004827200448798004F89DE0052879800E5
:104950004E829000DE829000240798003507980070
:104960003D013700610A81000004200000806000E2
:104970000000E0003B003200600A81006800600037
:104980000000E00037003A00610A8100004020008A
:10499000008060000000E00032003A00510A81000F
:1049A00000042000008060000000E0002D003200C4
:1049B000D0808000E1808000420A2700D3F92300E4
:1049C0000908070010818800218188008089800003
:1049D000908888001081800021818000890707006D
:1049E00080007800C08080000180B9004109DD00AE
:1049F000CF02DE008502710065179800CF89DE00C6
:104A0000731798006E109000A0888800A18880001D
:104A1000A082800000805000A0888800C010210083
:104A2000910607008088800080808800B180800027
:104A3000808080000180B900C10ADD004F02DE00E5
:104A400004827200648798004F89DE0072879800A4
:104A50006E829000FE82900024079800350798002F
:104A6000FD003700500A8100620060000000E00095
:104A70003E003200610A81000004200000806000D6
:104A80000000E00039003A00600A81006800600020
:104A90000000E00035003200610A81000040200083
:104AA000008060000000E00030003A00510A810000
:104AB00000022000008060000000E0002B003200B7
:104AC000610A810000002400008060000000E00016
:104AD00026003A007089800090888800D08080008D
:104AE000E18080004707070080007800C0808000D8
:104AF0000180B9004109DD00CF02DE0085027100AE
:104B0000051F9800CF89DE00131F98000E18900033
:104B1000A0888800A1888000A082800000805000CA
:104B2000A0888800C01021004F0607008088800000
:104B300080808800B1808000808080000180B90082
:104B4000C10ADD004F02DE0004827200048F98006B
:104B50004F89DE00128F98000E8A90009E8A900086
:104B60002407980035079800BB003700500A8100E1
:104B7000620060000000E00043003200610A810032
:104B800000042000008060000000E0003E003A00C9
:104B9000600A8100680060000000E0003A00320016
:104BA000610A810000402000008060000000E000F9
:104BB00035003A00510A81000002200000806000A8
:104BC0000000E00030003200610A81000000240093
:104BD000008060000000E0002B003200728980003D
:104BE000706626000090B9008180D1004F90DE00F1
:104BF0000080500090888800D0808000E180800094
:104C00000007070080007800C08080000180B900A4
:104C10004109DD00CF02DE0085027100251F9800EA
:104C2000CF89DE00331F98002E189000A0888800DE
:104C3000A1888000A082800000805000A0888800A9
:104C4000C01021000806070080888000808088004E
:104C5000B1808000808080000180B900C10ADD0041
:104C60004F02DE0004827200248F98004F89DE001C
:104C7000328F98002E8A9000BE8A900024079800F8
:104C80003507980074003700500A81006200600008
:104C90000000E00039003200610A810000042000B9
:104CA000008060000000E00034003A00600A8100EB
:104CB000680060000000E00030003200610A8100FE
:104CC00000402000008060000000E0002B003A005F
:104CD000510A810000042000008060000000E00014
:104CE000260032008089800090888800D080800073
:104CF000E1808000C306070080007800C08080004B
:104D00000180B9004109DD00CF02DE00850271009B
:104D1000451F9800CF89DE00531F98004E18900061
:104D2000A0888800A1888000A082800000805000B8
:104D3000A0888800C0102100CB0507008088800073
:104D400080808800B1808000808080000180B90070
:104D5000C10ADD004F02DE0004827200448F980019
:104D60004F89DE00528F98004E8A9000DE8A9000B4
:104D7000240798003507980037003700610A810042
:104D800000042000008060000000E0002F003A00D6
:104D9000600A8100680060000000E0002B00320023
:104DA000610A810000402000008060000000E000F7
:104DB00026003A00500A8100700060000000E00008
:104DC0002200320070898000908888000000EB008B
:104DD000A0888800C0102100A3050700D0808000B3
:104DE000E18080008706070080007800C080800096
:104DF0000180B9004109DD00CF02DE0085027100AB
:104E0000651F9800CF89DE00731F98006E18900010
:104E100080808800B1808000808080000180B9009F
:104E2000C10ADD004F02DE0004827200648F980028
:104E30004F89DE00728F98006E8A9000FE8A900083
:104E40002407980035079800030037006000B80079
:104E500020079800310798002E019000BE019000B5
:104E60004024200001002000800F5100818F590054
:104E70000400340040242000010020002007980096
:104E8000310798002E019000BE019000C0DB2F007A
:104E9000F1FF2F00800F5100818F590004003D0069
:104EA000C0DB2F00F1FF2F0020079800310798008A
:104EB000B1828000F01F2000808F5000010034007C
:104EC0005630EF00510A810000042000008060008D
:104ED0000000E0001B003200B0828000A288800049
:104EE000800040000014210000804000020878008B
:104EF000B082800092888000800040000054210031
:104F00000080400002087800B182800020FF270066
:104F10001001780081804000009421000080400052
:104F200002087800B1828000AE019000018140004B
:104F300000D4210000004100030878000100E800CF
:104F4000B0828800510A81000002200000806000C9
:104F50000000E0001A003200B0828000A2888000C9
:104F6000800040000014210000804000020878000A
:104F7000B0828000928880008000400000542100B0
:104F80000080400002087800B0828000C28080006B
:104F9000800040000094210000804000020878005A
:104FA000B1828000AE0190000181400000D4210058
:104FB00000004100030878000100E800B08288008A
:104FC0002E0090008025B0008080880081808000C5
:104FD000E04A20000100500090808800908080000E
:104FE00030638800808080003062880022868000E4
:104FF0000200780000F0A7000000EA000000E900CD
:105000004F00DE00804078000200E9002086880022
:105010000104E00062003200800020002086880049
:1050200020FF27009000900000808000008050004A
:10503000100798009E0090001E0090000088B900A4
:1050400040079800510798004E009000DE00900045
:105050004909DD00C702DE0085027100059798004E
:10506000C789DE00139798000E9290009E929000E0
:1050700044079800550798003083800041838000E2
:105080004909DD00C702DE0085027100052798008E
:10509000C789DE0013279800F00720001E22900029
:1050A00080A2B900840078008E229000E028B90028
:1050B00080804000F00720000E2290000021B80000
:1050C00083804000810178004E009000DE00900057
:1050D00002004000838048003083880041838800BC
:1050E00020FF2700A000900010808000008050006A
:1050F000100798009E0090001E0090000088B900E4
:1051000040079800510798004E009000DE00900084
:105110004909DD00C702DE0085027100259798006D
:10512000C789DE00339798002E929000BE929000BF
:1051300044079800550798005083800061838000E1
:105140004909DD00C702DE008502710025279800AD
:10515000C789DE0033279800F00720003E22900028
:1051600080A2B90084007800AE229000E028B90047
:1051700080804000F00720002E2290000021B8001F
:1051800083804000810178004E009000DE00900096
:1051900002004000838048005083880061838800BB
:1051A000A0912400100798009E00900070BB200082
:1051B000808F500002003C005F10A8000100370003
:1051C0005F10A9009E00900080F72F000088B900B2
:1051D00040079800510798004E009000DE009000B4
:1051E0004109DD00CF02DE008502710045279800ED
:1051F000CF89DE00532798004E209000700EB0003B
:1052000010079800B10A8100300020000088B90022
:1052100040079800510798001E0090006101B900F6
:105220004E009000DE0090000000410081804900A7
:1052300040079800510798004E009000DE00900053
:10524000CE0ADD004202DE0004827200642798006C
:105250004289DE00722798006E209000B00A890013
:10526000708980000000E00011003400610A8100B4
:1052700000002400008060000000E000090032000F
:1052800070898000CF80DE007F05070042E12A00A0
:10529000730F2400150507005A050700000F78005A
:1052A0001400370073898000030F78001100370065
:1052B000610A810000002400008060000000E0001E
:1052C0000A00320070898000CF80DE006E05070082
:1052D00042E12A00730F24000405070001F0A20038
:1052E00048050700000F7800020037007089800031
:1052F000000FEA00C08380009E007800808F50007D
:10530000030034001E027800C48388000E003700BA
:10531000308680000000E0000B003A00C08380006F
:1053200001D027000180B9004109DD00CF02DE0075
:1053300085027100052F9800CF89DE00132F980099
:105340000E289000C0838800A08980009E0F500026
:1053500004003D00500A81000080A000500A89002E
:1053600007003700B08980009E0F50000400340011
:10537000510A8100F0EF2F0000806000500A890080
:10538000E08980009E0F500012003D00500A81000D
:105390000030A000500A89005FD0A800510A8100A7
:1053A000F0FD2F0000806000500A8900510A810042
:1053B000F0FB2F0000806000500A8900500A810035
:1053C0000040A000500A89006000B800D08088002A
:1053D000E1808800808980000000E0000300340044
:1053E00084898000040F78000200370080898000E3
:1053F000000FEA00D08380009E007800808F50006C
:10540000030034009E027800D58388000E00370028
:10541000308680000000E0000B003A00D08380005E
:1054200001D027000180B900C109DD004F01DE0075
:1054300002817100222F98004F8ADE00342F9800DD
:105440002E289000D0838800C08980009E0F5000D5
:1054500004003D00500A81000090A000500A89001D
:1054600007003700D08980009E0F500004003400F0
:10547000510A8100F0DF2F0000806000500A89008F
:10548000F08980009E0F500012003D00500A8100FC
:105490000030A000500A89005FD0A800510A8100A6
:1054A000F0FD2F0000806000500A8900510A810041
:1054B000F0FB2F0000806000500A8900500A810034
:1054C0000040A000500A89006000B800D080880029
:1054D000E180880081898000C0828000808F500038
:1054E00019003400C0828000F1FF25000180B9005E
:1054F000400798005107980080898000F1FF210043
:105500000180B9004E019000DE01900002004000D1
:105510008380480040079800510798004E00900093
:10552000DE0090004109DD00CF02DE00850271003F
:10553000452F9800CF89DE00532F98004E28900009
:10554000C08288000E003700308680000000E00036
:105550000B003A00C082800001D027000180B90012
:10556000C10ADD004F02DE0004827200642F980041
:105570004F89DE00722F98006E289000C08288004C
:1055800081898000D0828000808F500019003D000A
:10559000D0828000F1FF25000180B900400798000B
:1055A0005107980080898000F1FF21000180B90037
:1055B0004E019000DE019000020040008380480010
:1055C00040079800510798004E009000DE009000C0
:1055D000410ADD00CF01DE0083017200033798002D
:1055E000CF8ADE00153798000E309000D0828800F8
:1055F0000E003700308680000000E0000B003A000B
:10560000D082800001D027000180B900C109DD00EF
:105610004F01DE0002817100223798004F8ADE00C0
:10562000343798002E309000D0828800500A8100D4
:10563000620060000000E00010003200510A8100AA
:1056400000022000008060000000E0000B0032003B
:10565000610A810000402000008060000000E0003E
:1056600006003A00C1828000D082800000804000A5
:105670004480DE00A0828800010037005430EF0033
:10568000A182800040062000808F5000020034007C
:1056900040062000A0828800A1828000C0F92F006F
:1056A000808F500002003D00C0F92F00A0828800CA
:1056B000308680008000780001F0A7008100EA00B9
:1056C0008100E900CF08DE00814078000000E90099
:1056D000308688000104E00002003200F00F200054
:1056E000308688000080FA003400F9003200F900AA
:1056F0004F06BE004F05BE004F04BE004F03BE0064
:105700004F02BE004F01BE004F00BE003600F90040
:10571000004006003200F8003400F800881F7800CE
:1057200018002000A80188000820200098018800A7
:10573000000000004F0478000000FA0001C8A90032
:1057400011EBA9000080FA003400F9003200F900E2
:10575000004006003200F8003400F800881F78008E
:1057600018002000A8018800082020009801880067
:10577000000000004F0478000000FA000308A900B0
:1057800021EBA9000080FA003400F9003200F90092
:1057900000400600809FBE003200F8003400F80090
:1057A00010002000A0018800002020009001880047
:1057B000000000000000FA000428A9004013800047
:1057C000A0808800610A8100000420000080600041
:1057D0000000E00004003A00A0808000C080880043
:1057E000505A2A00401388000080FA003400F90063
:1057F0003200F9004F00BE00004006003600F800FD
:10580000809FBE00829FBE00849FBE00869FBE0018
:10581000881F78003200F8003400F80010002000E3
:10582000A0018800002020009001880000000000F6
:105830000000FA000168A9003011800000407800E3
:105840000EF0B7000ED0BF000000FB006101B900F0
:1058500060FD2F00F1FF2F00020040008380480010
:105860005203200003002000820F5000838F580055
:10587000B1023E0000060100A800370062003700B8
:10588000BD00370032003700CF003700AA023700D2
:10589000A9023700A8023700A7023700A602370086
:1058A000A5023700A4023700A3023700A202370086
:1058B000A1023700A00237009F0237009E02370086
:1058C0009D0237009C0237009B0237009A02370086
:1058D00099023700F4003700860237000D013700C7
:1058E000FE013700DB0037007402370092023700F8
:1058F00091023700B20137008F023700FE003700F7
:10590000F6003700EE0137008B0237004001370008
:10591000F90137005C02370059023700E101370016
:10592000E8003700BC0037006C0137000001370089
:105930000F02370080023700350237007E02370041
:105940007D0237007C0237007B02370045003700BC
:10595000500A8100620060000000E0007B0232001B
:10596000610A810000402000008060000000E0002B
:1059700013003200D0808000E180800018C0B300A6
:1059800002802C00A36F2C009C0307000000E000A5
:1059900001003C000044EB000804E0006D0232000E
:1059A000D0808000E18080000200200003002400FD
:1059B000F0020700D0808800E18088009E02370056
:1059C000D0808000E180800018C0B3006011B80072
:1059D0008A0307000000E00001003C000044EB00E7
:1059E0000804E0005D023200D0808000E180800089
:1059F0000200200003002400DE020700D08088009F
:105A0000E18088008C023700500A8100620060004B
:105A10000000E00053023200D0808000E18080006E
:105A200018C0B30002802C00A36F2400710307008C
:105A30000000E000010035000044EB000804E00035
:105A40004A023200D0808000E18080000200200005
:105A500003002400C8020700D0808800E18088008D
:105A600075023700500A8100620060000000E0000B
:105A700040023200610A8100004020000080600086
:105A80000000E00013003200D0808000E180800040
:105A900018C0B30002802C00A36F2C00570307002E
:105AA0000000E00001003C000044EB000804E000BE
:105AB00032023200D0808000E180800002002000AD
:105AC00003122400AB020700D0808800E180880028
:105AD00059023700D0808000E180800018C0B300F8
:105AE0006011B800450307000000E00001003C0021
:105AF0000044EB000804E00022023200D080800065
:105B0000E1808000020020000312240099020700B7
:105B1000D0808800E180880047023700500A810069
:105B2000620060000000E00018023200D0808000B7
:105B3000E180800018C0B30002802C00A36F240015
:105B40002C0307000000E000010035000044EB00DA
:105B50000804E0000F023200D0808000E180800065
:105B6000020020000312240083020700D080880076
:105B7000E180880030023700500A81006200600036
:105B80000000E00005023200A002210010017800B0
:105B9000900190001034200001002000800F51007F
:105BA000818F5900FF013600A00221009000900073
:105BB000100078001034B1000180B100A202210071
:105BC0000089BE001C023700500A8100620060009C
:105BD0000000E000F5013200A00221001001780071
:105BE000900190004061210051002000800F510081
:105BF000818F5900EF013E00A0022100900090002B
:105C0000100078001034B0000180B000A202210022
:105C10000089BE0008023700500A81006100600060
:105C200000F0A7000000EA000000E9004F00DE00DD
:105C3000004078000080FB0061006000520A810093
:105C4000E1FF2F008100610001007000500A89000F
:105C5000F9013700E01C2D00551E07005FD0A90098
:105C60005E70A9005F90A900418CA800510A8100D4
:105C7000F0FD2F0000806000500A8900510A810069
:105C8000F0FB2F0000806000500A8900500A81005C
:105C90000040A000500A89006000B800D080880051
:105CA000E1808800E4013700500A81006200600052
:105CB0000000E000C1013A0060112100601E0700F1
:105CC000DD013700500A8100620060000000E00042
:105CD000BC013A00701E0700D7013700500A81004E
:105CE000620060000000E000B8013A0030002000CF
:105CF00080868800D0013700500A81006200600071
:105D00000000E000B3013A002000200080868800F7
:105D1000C9013700500A8100620060000000E00005
:105D2000AE013A001000200080868800C2013700D2
:105D3000101522009040780000C8B30000C0600039
:105D40000004E0002F003200F182800000002400F7
:105D5000008060000000E000A2013A00500A8100CB
:105D6000620060000000E00014003A00500A810068
:105D70000010A000500A8900600A810000B0A00055
:105D8000600A8900A20221006000B800200198008A
:105D900031019800A2022100202C2A0001002000DD
:105DA0000089BE006000B800D0808800E1808800D3
:105DB000701F2D00FE1D07009F013700500A810053
:105DC000620060000000E00088013200500A81009B
:105DD0000030A000500A890000222D00F41D0700A9
:105DE000510A8100F0DF2F0000806000500A890016
:105DF000510A8100F0EF2F0000806000500A8900F6
:105E00008D01370090242D00E91D07008A0137001D
:105E100020272D00E61D0700510A8100F0FD2F000C
:105E200000806000500A8900510A8100F0FB2F00B9
:105E300000806000500A8900500A81000040A000E4
:105E4000500A890010152200904078000114A0002B
:105E5000014878001015220010417800B1CFB3003E
:105E6000814061000148780000152200104178004F
:105E7000F1CEB30081406100014878000015220096
:105E800010417800F1CDB3008140610001487800F5
:105E90001015220010417800E1CFB300814061006D
:105EA000014878000015220010417800F1CBB300C2
:105EB00081406100014878000015220010417800FF
:105EC00081CFB30081406100014878006000B800D4
:105ED000D0808800E180880057013700510A810096
:105EE00000042000008060000000E00041013A0052
:105EF000500A81000050A000500A8900510A810018
:105F0000F0FB2F0000806000500A8900510A8100D8
:105F1000F0FE2F0000806000500A8900101522005A
:105F200010417800D1CFB300814061000148780072
:105F30001015220010417800B1CFB30081406100FC
:105F4000014878000015220010417800F1CEB3001E
:105F5000814061000148780000152200104178005E
:105F6000F1CDB30081406100014878001015220096
:105F7000904078000104A00001487800001522003C
:105F800010417800F1CBB3008140610001487800F6
:105F9000001522001041780081CFB30081406100DC
:105FA000014878006000B800D0808800E180880057
:105FB000A1240700B0292D007D1D07001E01370018
:105FC000510A810000022000008060000000E00013
:105FD0000A013A00510A8100F0FD2F0000806000A4
:105FE000500A8900500A81000060A000500A890010
:105FF000510A8100F0FE2F0000806000500A8900E5
:106000001015220010417800D1CFB300814061000B
:106010000148780010152200904078000124A0006B
:10602000014878000015220010417800F1CEB3003D
:10603000814061000148780000152200104178007D
:10604000F1CDB300814061000148780010152200B5
:1060500010417800E1CFB300814061000148780031
:106060000015220010417800F1CBB300814061009F
:1060700001487800001522001041780081CFB3005C
:1060800081406100014878006000B800D08088003D
:10609000E180880068240700402C2D00441D070083
:1060A000E5003700500A8100620060000000E00057
:1060B000D4003A005000200080868800DE003700BF
:1060C000500A8100620060000000E000CF003A004A
:1060D0006000200080868800D7003700500A8100C9
:1060E000620060000000E000CA003A00700020007A
:1060F00080868800D0003700500A8100620060006E
:106100000000E000C5003A00101522009040780021
:1061100000C8B30000C060000004E0000A003200C4
:1061200010152200904078000174A1000148780009
:10613000600A81000040A000600A8900D02E2D0076
:106140001B1D0700BC00370010152200904078008E
:106150000174A00001487800600A81000040A0009E
:10616000600A890060312D00111D0700B200370060
:10617000500A8100620060000000E00021003A0047
:1061800010152200104078000044B2000004E00026
:106190000E0032001015220010417800F1CBB30040
:1061A0008140610001487800600A81000030A00051
:1061B000600A8900600A81000040A000600A89002E
:1061C000F0332D00FA1C07009B0037001015220049
:1061D000904078000164A00001487800610A8100C5
:1061E00070FF2F0000806000600A8900600A810053
:1061F0000040A000600A890070362D00EC1C0700EA
:106200008D003700F0382D00E91C07008A003700A8
:10621000500A8100620060000000E00081003A0046
:10622000600A81004A00DE006140600000C0EA00B0
:10623000614060000080FB00610060004A00DD00FA
:10624000620A8100F1BF2F0081006100010070002F
:10625000600A8900610A810000402000008060001F
:106260000000E00003003200D03B2D00D01C0700EE
:1062700071003700603E2D00CD1C07006E00370016
:106280000000FE006C003700500A810062006000D0
:106290000000E00065003A00CD22070010C0B30006
:1062A00018270700600A810000E0A000600A89004A
:1062B000F0402D00BE1C07005F003700500A81002F
:1062C000620060000000E0005A003A00C0220700AF
:1062D0000040EB000B270700610A8100F0FF2B0054
:1062E00000806000600A890080432D00B01C070018
:1062F00051003700700A8100610060000000E0007A
:1063000006003A00700A81000000A000700A8900AF
:1063100010462D00A61C070047003700710A8100B7
:10632000E0FF2F0000806000700A8900A0482D0067
:106330009F1C070040003700500A81000070A00039
:10634000500A8900000000003B00370000000000F8
:10635000390037000000000037003700000000005F
:106360003500370000000000330037000000000057
:1063700031003700000000002F003700000000004F
:106380002D003700000000002B0037000000000047
:10639000290037000000000027003700000000003F
:1063A0002500370000000000230037000000000037
:1063B00021003700000000001F003700000000002F
:1063C0001D003700000000001B0037000000000027
:1063D000190037000000000017003700000000001F
:1063E0001500370000000000130037000000000017
:1063F00011003700000000000F003700000000000F
:106400000D003700000000000B0037000000000006
:1064100009003700000000000700370000000000FE
:1064200005003700000000000300370000000000F6
:1064300001003700000000000080FA003400F9007D
:106440003200F9004F0478004F03BE004F02BE0037
:106450004F01BE004F00BE003600F90000400600AC
:106460000040DA000000FE003200F80001C0FE002B
:10647000881F78008A1F78004400F800080F200069
:10648000280288000004900010059000A0009000F1
:1064900030019000C00190000300CA000280CA00D1
:1064A0000030CB001A00CD004604C3000100CA0032
:1064B0004604C0001E04C0000605C0000100CD0057
:1064C00021009800050D7800EABA970005257800AC
:1064D0004400F9004F0578004F0478003200F900BD
:1064E000000006003200F80001C0FE00801F7800A6
:1064F0004000B0000008EB004F007800801F7800DB
:10650000100090000018EB000018EB000008EB00F2
:106510004F0078003200F900000006003200F80059
:1065200001C0FE004400F800020F20002202880093
:10653000910078003000CA003080CA000000CB0013
:106540002080CA000000CB003100CD004000CA000E
:106550000000CB000000CB000010CB003100CD00CC
:106560001180CC004400F9003200F9000000060060
:106570000000050003F0A200889FBE008A9FBE00B5
:106580008C1F780000010700070133006450E10010
:106590004F0032006420E1005200320003826C00A0
:1065A00007003B000905D0000306D000820F54000D
:1065B0000C065D00020039000200320089017800FB
:1065C000030678008582550004003D000003FD00AD
:1065D0008103FD008502EA008B854200840F720072
:1065E00002003B0060001000E08018006011B8005D
:1065F0000005EB007A28E1000A0039000600780067
:10660000C75DDD00F707B200878075002D003700F9
:10661000828171000A017800610560008180D100EB
:106620000080D3008502E900F9FF3B00060440002A
:106630008784480002003B0060041400E0841C00D2
:106640000988A300070032008A81710082817100ED
:10665000610164008904D1000884D3008B05E8003F
:10666000170037000978A30013003A000B00E00080
:10667000130034008B05E9000804440089844C00B1
:106680000A4474000978A3000D003A000B00E000F2
:10669000070034008B05E9000804440089844C009D
:1066A00001003A000B0020000978A300F7FF320038
:1066B0000001EB0002003700828171000A017800BE
:1066C000760007000CF0A70001F0A000BF00370023
:1066D0006420E10002003A00838F6C00BF003300A9
:1066E0000801BE000200BE00B8003700889FBE004F
:1066F0008A9FBE008C1F7800A3000700AA00330009
:1067000003866C006450E1002E0032006420E1003A
:10671000330032006150E1002F0032006120E100BF
:106720003100320085855500EB07B00009002000DC
:1067300008042000050037000804440089844C0048
:106740000A0031000603430087834B000001530019
:1067500081815B00F8FF33000203BE000800A00047
:106760000804440089844C00F6FF3900C639DD0076
:106770008301730001003200130020008904D1005E
:106780000884D3000998A300050032000800A70080
:106790000300A0008904D1000884D3008B05E80021
:1067A0008904D1000884D3000001EB000281D200EB
:1067B0003A00070001F0A1000CF0A70001F0A000D2
:1067C000820037006420E100840032000801BE002E
:1067D0000200BE00F7FF37006120E1007F003200B9
:1067E0006000B800F3FF37000000200001F8270028
:1067F000F0FF370014002000AF003700F4FF2F0037
:10680000AD0037000001BE004A0007000470A70079
:1068100003F0A1006509B100160032000D0035003B
:106820006828E10006003500F0FF2F00F1FF270087
:106830000300E00013003B000100280000000500F9
:1068400000004000818048008502E900FCFF3A001A
:1068500008003700F88F420002003C008000EB0087
:10686000000005008100D1000080D3008502E8000F
:10687000FCFF3A000300E00002003B006000100053
:10688000E0801800000006004F89DE0082017800D9
:10689000A40037006011B800B2003700810020006A
:1068A000618055000B003D000B00200061FE2F00B1
:1068B0000100E1001D00340082817100610164006B
:1068C0008904D1000884D3000000E800FAFF3A00F0
:1068D000710020006100640003007000020060008D
:1068E0000900320061044400E0844C000988A500DE
:1068F000050032008B05E8006808E10002003A005C
:106900008904D1000884D300F20F20000258E1006E
:1069100005003D00C75DDD00F907B2008980750004
:1069200008007800000006000BF827008B007800B4
:1069300000000500C70ADE00F107B200F50FB20043
:1069400008003200E1CF4200020032000170A000D6
:1069500024000500810F70000100320004080500CA
:1069600044000500810F700002003A001400050089
:106970008502E9000000400081C04800FCFF3B00A8
:106980000170A000240005000004BE00E9FF07001C
:106990000003BE000405BE000200BE00E5FF0700C4
:1069A000844F7500000006000200BE006450E10044
:1069B000050036006420E100020036000968A300EB
:1069C00001003A000800BE000160A0004F067800F8
:1069D0004F05BE004F04BE0000000600F0FF2F0070
:1069E000F1FF2700F9FF3700889FBE008A9FBE0095
:1069F0008C1F7800E4FF0700EBFF330003866C0078
:106A00006450E100240032006420E10027003200DD
:106A10006150E100220032006120E10021003200DB
:106A20008B854200EB07B1000134B800003AB80092
:106A30000804420089844A00013AB8000030B800D6
:106A40008880400009014A00040033000000400033
:106A500081804800020149008B05E900C909DD0079
:106A6000830170000100320013002000C814DE0012
:106A70004814DD004709DE001200B200C808DE003D
:106A80000884700085FF070001F0A1000CF0A7004A
:106A900001F0A000CDFF37006120E100CFFF320000
:106AA0000801BE000200BE00F7FF37006150E100A0
:106AB000FCFF3A00C9FF3700889FBE008A9FBE00D6
:106AC000841F7800B0FF07004F00780011003300EA
:106AD000F0FF2F00838F6C0006003B00040565006B
:106AE0000A00A7000800370009F0A60010002000E7
:106AF00008003700820F5400838F5C0003003900C8
:106B00001000200001003E000000200009F0A70056
:106B10000000EA004F05BE004F04BE000000E00088
:106B200000000600881F7800030478000300E000DE
:106B300007003D0060001000E080180060011900AF
:106B4000E081190002003B0001F02D000300370036
:106B50000400070008F0A70001F0A0004F0478002F
:106B600000000600889FBE008A9FBE000082700061
:106B70000402710004827100260032000004BE008D
:106B80000200BE006011B8006B09200095022000D1
:106B90000182CF000A0039000541B1000082CF0018
:106BA000070039000541B1000982CF000400390017
:106BB0000541B1000882CF00010039000541B10054
:106BC00005425200120032000A003B00828171002F
:106BD000610164008100D1000080D3008984D3006A
:106BE0000884D3008B05E8000442E800F7FF3A0070
:106BF000070037000804440089844C000000480066
:106C0000818048008B05E9000442E900F9FF3A0061
:106C100022FF07004F05BE004F04BE000000060023
:106C20008001780002003700B15978000201E900C4
:106C30000200E000FCFF3A0000000600EE8747007B
:106C4000889FBE008A9FBE008C9FBE008E1F78006A
:106C5000F0B79F00010678008205780000047800F4
:106C6000080578000A047800B84678000D00FB009B
:106C70008C0007000000E000F9FF3A00D0C2B3002A
:106C800080CF56000300320000C0E90080CF5600DC
:106C900002003A000A05E80001003700804678004B
:106CA0000B00E00005003500E18F550003003200C5
:106CB00040022000808F5500060034006044B80078
:106CC0000C00E000700032007FB09700000E7800EA
:106CD0006D0037000B00E0000E003200F08F550011
:106CE0001A003A0000C3B3009A4F100017003A0090
:106CF0001A40900081C7B300814F5000030032005A
:106D000081C5B300814F500010003A000A85E800A9
:106D10000E003700AB00200000C3B3009A4F1000F4
:106D20000A003A001A40900081C7B300814F50001A
:106D3000040032008B00200081C5B300814F500059
:106D400002003A000A85E8000B0120000A007800E2
:106D5000000278000400780001C3B300B0CF100037
:106D6000FBFF3200040778006044B800B4B79F000E
:106D70000D003700614B220081405000C1EF9F00A1
:106D80006159B9000800BE00780407004FEA970077
:106D90000401FB00CF91DE00C8B79F00D9B79F0068
:106DA00002044000838448008E0278003E00FB000D
:106DB00085BF9F00430007000B017800800078002A
:106DC000604B2200360207008FBA97000000E000F7
:106DD000E8FF3A003FB29700850F550005003A00E2
:106DE0006044B8000C00E00027003200FFB29700BA
:106DF0002400370004825200B04D22000B004000F6
:106E00001000FB00000252001700330011003A008E
:106E10004FE997000200FB00CF80DE000000540025
:106E200081805C00800F5400818F5C000900390074
:106E30006159B90085BF9F00390407008FBA9700D8
:106E40004FB19700DFB19700820F5000838F580039
:106E50000500320020022000E02989000084EB00B8
:106E60008084EB0005003700D0C2B30080CF56000D
:106E700002003A0060041400E0841C000C00E000F2
:106E800001003200050E78000800BE004F077800B0
:106E90004F06BE004F05BE004F04BE00EF00B1001C
:106EA000000006006900E100040035006D00E1000B
:106EB000030034000002B1000100320000000500B0
:106EC00010000500800078001104B10003003500B7
:106ED0009101B10001003C000050A000000006003C
:106EE000F02981000000E0000100320000000100F4
:106EF000C053220000000600881F780002047800BA
:106F00000801780046FF0700080040004F047800A1
:106F1000000006000000FA00881F780000047800D6
:106F2000EA8157003FB9970088007800C0772300B6
:106F3000070007000000E0000200350000044400E4
:106F4000004CEB004F0478000080FA0000000600BF
:106F50006200FA00889FBE008A1F78000005780052
:106F600081047800020478008300780080F92F0003
:106F70000F004000D90307009A979F00A9979F0030
:106F80000000EB00B09F9F001885FB008A04FB0007
:106F90000A05EA004F55DE0050022000808F5400A1
:106FA0000D003200E10F55000B003A000A01780095
:106FB000880078002F9097009F91970003000100B0
:106FC000A0979F000000E0008E0032003F989700DD
:106FD0000000E800B09F9F000A0444005002200017
:106FE000808F5400040032000900E000E6FF3A0000
:106FF0003F989700840037000000EB00909F9F00AF
:10700000809F9F00F0979F00E0979F00D0979F0080
:10701000C0979F0007003700615322000100500015
:1070200000004000A1522200808040005F9897003D
:1070300011007000D09F9F00880478000904780038
:10704000384578008A00FB00605322009E0107004B
:107050000000E000F0FF3A00A1C2B300814F5500EC
:107060000E003A00CF8897000180E900C08F9F0092
:1070700010007800C09F9F000000E00005003D0068
:107080000000EA00C09F9F005F9897000020A000CA
:10709000D09F9F000904E8000F003700C09F9F00A9
:1070A0000000EB0005003700F2FF2700820F5000C0
:1070B00002003200EA00B9000080400009047800B4
:1070C00088047800B900FB000103B100E98F50008B
:1070D000F5FF3600C09F9F00E0C2B300984F10003C
:1070E000020032000080EB0019003700A0C2B3009C
:1070F000D84F100007003A00CF8897000180E900C0
:10710000C08F9F0010007800A09F9F000804E80037
:10711000100037000000EB00A09F9F00880078005F
:1071200005003700F3FF2700830F500002003200F4
:10713000EA00B900000041000104780088007800EE
:107140003101FB000203B100E90F5100F5FF3600E9
:10715000A09F9F00984478008900FB0020522200E5
:10716000590107000000E000020032000804E800B6
:10717000010037008044EB00C97F9F0080C6B30048
:1071800080CF540004003A0098CF14000A003A005F
:107190006640500006003700C0C6B30080CF5400E0
:1071A00005003A0098CF140003003A006540400003
:1071B000C07F9F000804E8001801FB00E3FB2F00DC
:1071C0008F81410081F92F008F804000A0F92F00AE
:1071D0000F004000100007000000E00009003A0026
:1071E000E1FB2F008F804000A0F92F000F0040002E
:1071F0007E0207000000E000020035000804E800FD
:1072000061FF37000080EB004F0578004F04BE009F
:107210000080FA0000000600889FBE008A9FBE0022
:10722000E4C6B300844F5100CE00320010003C0091
:107230006B425200844F51001800320005003C00A0
:1072400054C2B300844F51000601320084C5B3001C
:107250000F00370044C6B300844F510015003200C0
:1072600065424200844F510001013A00110037008D
:1072700004C7B300844F5100ED0032005F003500B9
:1072800065424200844F51005C003200634242007C
:10729000844F5100F6003A00580037001181E90090
:1072A00082087800F00090008181410092497800C6
:1072B000F500370020629000C5C6B300854F52002C
:1072C00008003A0091027800648252008408780035
:1072D00094029000140278004FABDE008603780021
:1072E0001600370015C7B300854F520003003A005F
:1072F000110478006802540005003700A5C6B300E9
:10730000854F520008003A009104780068825400CA
:10731000840878009402900024039000B403900045
:1073200014027800050037001182E9008408780013
:1073300014027800CFA2DE00612BB9000498BE00D1
:107340000690BE00A060900088C6B30088CF5000B1
:107350000D00320028C6B30088CF500004003A0068
:107360000402FB00CFA2DE00612BB9000800370049
:1073700048C7B30088CF5000030032006644440081
:1073800088CF500004003A00CFA2DE00612BB90084
:107390000498BE000690BE00100278009002900093
:1073A00020039000B0039000F0009000E00F520026
:1073B000E08F5A00E00F5B00E08F5B0003003D00B0
:1073C00001824100D5C2B3000A00370000129000CC
:1073D0000418A3000300320001824100B5C2B300CB
:1073E000040037000408A300590032000182410064
:1073F00005C2B300054A78005300370020629000B0
:10740000C5C6B300854F520009003A001105780047
:1074100064025500840878001404780094049000F5
:107420006055B8000802BE000A03BE00160037000F
:1074300015C7B300854F520003003A00910478004D
:107440006882540005003700A5C6B300854F52007E
:1074500008003A0011057800680255008408780099
:107460009402900024039000B4039000140278006A
:10747000050037001182E9008408780014027800C2
:107480008002EB006033B8000498BE000690BE0096
:10749000A060900088C6B30088CF50000D00320075
:1074A00028C6B30088CF500004003A000482FB00D5
:1074B0008002EB006033B8000800370048C7B30013
:1074C00088CF5000030032006644440088CF50004B
:1074D00004003A008002EB006033B8000498BE005C
:1074E0000690BE00801090000138A3001800320002
:1074F000100278009002900020039000B0039000EA
:10750000E00F5200E08F5A00E00F5B00E08F5B005D
:107510000F00320081C7B300814F510003003200D9
:1075200081C5B300814F510009003A00F00090007E
:107530000182410005C3B300054A78008100E800DC
:1075400001824100024A78008100E8007100980041
:10755000F000900081814100630098008240780033
:107560003E003700A0619000C4C6B3001181E9005D
:1075700084CF5100220032000A003C0064425200D5
:1075800084CF51002500320004C2E80084CF5100AE
:10759000130032006842520084CF51001E003A00AE
:1075A0000A00370044C7B30084CF51001B003200EB
:1075B0006642420084CF51001800320069425200F6
:1075C00084CF510014003A0005003700820878008B
:1075D0009200780040589000804878002C003700D6
:1075E0008208780092007800600A9000CFA2DE0046
:1075F000612BB9008498BE008690BE00240037003D
:10760000820878009200780060099000CF91DE0037
:107610008288BE001E0037001181E90082087800D0
:107620009200780060089000800878001800370009
:107630001181E9008208780012027800CFA2DE00F2
:10764000612BB9000498BE000690BE00F0009000C7
:10765000818141006300980081C7B30026000700C4
:107660000B003700F00090008181410005003700D9
:10767000F0009000818141000204E00001003A0026
:1076800052C2B300824978008100E800710098007E
:107690000000EB004F05BE004F04BE0000000600D6
:1076A00003003700B0CF1000050032000201E900EE
:1076B000800178000200E000FAFF3A0000000500B7
:1076C0000300780000000600020037000304E00019
:1076D000060032000001780002007800B041780016
:1076E00081CF5100F9FF3A00010037000001EB00A3
:1076F0000200780000000600FC874700889FBE005B
:107700008A9FBE008C9FBE008E1F78000006780006
:1077100080C5B30080CF50000A003200774040009F
:1077200080CF50000A0032006940400080CF5000F6
:107730000B0032001051220080BF9F00AE002000DD
:107740000A0037000250220082BF9F000600370067
:107750001351220083BF9F008E00200003003700DA
:107760001451220084BF9F000E0120001C027800EB
:107770009C0290002C039000BC0390000605BE0004
:107780000404BE0040C6B30080CF500003003200A6
:107790006540400080CF50000B003A00E00F5200DF
:1077A000E08F5A00E00F5B00E08F5B0006003D00B9
:1077B0006000B8006011B8000404500085845800CF
:1077C0000605590087855900E80F5700040032006C
:1077D00040002000F00F57003C003A000100370045
:1077E00030002000E00F5400E08F5C00E00F5D00EF
:1077F000E08F5D0004003A00DC0890008D0120005D
:107800000100E000070032008E00E900888060007F
:107810008FBA97008180420091407800F1EF9F007D
:107820007D012000800078008100E9000500330020
:107830008B05D1000A85D3008984D3000884D30046
:10784000F9FF3700089EBE000A96BE0013003700FD
:107850008D06E9008E00E900848060000FB9970072
:10786000810041001141780083FD2F008D8141008E
:1078700082F77900800178008301E9000500330078
:107880008783D1000683D3008582D3000482D3008E
:10789000F9FF3700049EBE000696BE001C02780069
:1078A0009C0290002C039000BC039000E00F52005B
:1078B000E08F5A00E00F5B00E08F5B009300340024
:1078C0000D00E000E2FF3C00900037002C609000CB
:1078D00081C6B300814F50000B00320006003C000F
:1078E0000004E00008003200E6C05000814F500064
:1078F00052003A0004003700C1C6B300814F500067
:107900004E003A00230037000800E00004003A006F
:107910005C0890008D0120000000E00007003200AC
:10792000110009000E84D8000FBA97000100420030
:1079300010407800F0EF9F007D0120001100090049
:107940000E84D8000B003700110009000E04D80087
:107950008D06E9008E81B900020454008FB89700AB
:10796000088440009841780082FD2F000D014100FD
:1079700083777900000478000800E00002003200FC
:107980000D00E000F0FF3C00CFC4DE00614DB90007
:1079900027003700E00F5400E08F5C0004003A003D
:1079A0005C0890008D0120000000E000080032001B
:1079B0006171B9000800BE00690107000FBA9700A5
:1079C0008000420091407800F1EF9F007D0120008F
:1079D0006171B9000800BE00510107000C003700BA
:1079E0006171B9000800BE003E0107008D06E90084
:1079F00080F1B900020454008FBA97000884420055
:107A00009841780082FD2F000D01410083777900B5
:107A10000004BE00E00F5000E08F5800020032006A
:107A20000D00E000EEFF3C004FCDDE008A0578003F
:107A3000089EBE000A96BE0034003700E00F5400D6
:107A4000E08F5C00E00F5D00E08F5D0004003A0015
:107A50005C0890008D0120000000E0000A00320068
:107A60006172B900612BB9000800BE000A01BE00B6
:107A7000E60107000FBA97008000420091407800AD
:107A8000F1EF9F007D0120006172B900612BB90008
:107A90000800BE000A01BE00D50107000E00370035
:107AA0006172B900612BB9000800BE000A01BE0076
:107AB000DA0107008D06E90080F2B90004045400E1
:107AC0008FBA9700088442009842780084FD2F0006
:107AD0000D02420085777A00009EBE000296BE002D
:107AE0001C0478009C0490002C059000BC059000BC
:107AF000E00F5400E08F5C00E00F5D00E08F5D0060
:107B0000020034000D00E000E5FF3C00E80F5700E4
:107B100010003A000C1090000038A3000D00320055
:107B2000F78F560006003E0080FD2F000D0040003C
:107B3000EF40780000C3B30080CF50000500320052
:107B400002C3B30071FD2F008D8040008D06E90057
:107B500082F7780078811600120E98006C00900071
:107B600083FD2F008F8141008D8041002CFC070098
:107B70001C089000DC089000810F500006003D00BA
:107B800000805000000E98000C1090000040A100F2
:107B9000001698000F0037000100E0000D003D00C6
:107BA0008C109000F4806000F08F500009003A00C3
:107BB0007C099000FC009000810051000C099000AD
:107BC00082805000008050004240A9000100340033
:107BD000000E98004F0778004F06BE004F05BE000C
:107BE0004F04BE00CF01B100000006000400FA00FF
:107BF000889FBE008A9FBE008C1F7800000478001A
:107C000001067800F80D90007800900080855500FE
:107C10000808900080855500180890008085550060
:107C20002808900080855500380890008085550010
:107C300048089000808555000002220090BF9F00F8
:107C400000032300A0BF9F00081090000028A3009D
:107C500015003A000B00E000130034000B0578001B
:107C60008A047800E20F5500010036002900200048
:107C7000C801900009017800EE805700580090007C
:107C800003000100500498000000E0008C00320066
:107C90006808900009004000600C98000905550034
:107CA0004240A900EEFF3C00780190000200E00095
:107CB0000C003400C80190008C007800580090003F
:107CC00003000100500498008080EB000000E000F9
:107CD0007C003200E80890007800900000804000AE
:107CE000600C9800880C90000900E000110034003E
:107CF00009057800E28F5400010036002A002000B8
:107D0000C80190000A017800EC80570058009000EC
:107D100003000100500498000000E00068003200F9
:107D2000680890000A004000600C98008A845400A3
:107D3000EDFF3700180990000200E0000C0034004D
:107D4000C8019000E8009000580090000300010076
:107D5000500498008080EB000000E00059003200E1
:107D6000E80890001808900000804000600C98001F
:107D7000A80C90000900E00011003400090578000B
:107D8000E28F5400010036002A002000C801900054
:107D90000A017800EC8057005800900003000100B1
:107DA000500498000000E000450032006808900090
:107DB0000A004000600C98008A845400EDFF3700F0
:107DC000380990000200E0000E003400E800900046
:107DD0001808900080804000C80190005800900072
:107DE00003000100500498008080EB000000E000D8
:107DF00034003200E808900038089000008040000D
:107E0000600C9800C80C90000900E00011003400DC
:107E100009057800E28F5400010036002A00200096
:107E2000C80190000A017800EC80570058009000CB
:107E300003000100500498000000E0002000320020
:107E4000680890000A004000600C98008A84540082
:107E5000EDFF3700081090008000EB000028A30021
:107E6000180032000B00E000160034008B0478008C
:107E700009057800E28F5400010036002A00200036
:107E8000C80190000A017800EE8057005800900069
:107E900003000100500498000000E00008003200D8
:107EA000680890000A004000600C98008A84540022
:107EB0004240A900EEFF3C008000EB0001003700CB
:107EC0008080EB00010078004F0678004F05BE006F
:107ED0004F04BE000080FA00000006000108780090
:107EE00000000600839F68000100E00002003D00E2
:107EF00060001000E08018000300E00002003D0078
:107F000060011100E0811900050007004F00E0004A
:107F100002003B0060001000E08018000000060036
:107F20006022B800060220000000D0008180D2004C
:107F30000482D2008582D2000000A000020252001A
:107F400083825A00030031000202420083824A0009
:107F50000000A1000603E900F3FF3A00000006005C
:107F6000EFFF07000400BE0000000600020AB9008F
:107F7000001BB9000200B8008100420081004300EC
:107F800000000600889FBE008A9FBE0030044200A9
:107F9000B0844A0030054B0090854B006000B10072
:107FA0000898BE000A90BE000440E10005C8E10048
:107FB00006D0E10007D8E10002003100680040006F
:107FC0001008E8004F05BE004F04BE000000060088
:107FD000889FBE008A9FBE00100478009004900025
:107FE00020059000B00590000418540005985C002E
:107FF00006185D0007985D00110020000440E100B4
:1080000005C8E10006D0E10007D8E1000100390011
:108010008000EB00108810004F05BE004F04BE002A
:10802000000006001200FA00889FBE008A9FBE0072
:108030008C9FBE00E0B79F00F1B79F0082BF9F00FA
:1080400093BF9F000605BE000404BE000000EB00C5
:10805000D0B79F00C0B79F00B0B79F00A0B79F00E8
:1080600090B79F000006EB005FB19700CFB097007C
:10807000820141003FB097000200E00004003D0093
:10808000370007007E805700BEFF0700030037005F
:10809000330007007E805700CDFF0700DFB6970052
:1080A0000D00E0000C0035006FB29700FFB29700A2
:1080B0000FBB97009FBB970010002000010020001D
:1080C0006011B80000027200818272000203730026
:1080D000838373001B0007000C06E80001042000E6
:1080E000810F5600E0FF3A000D00E00004003D0063
:1080F0000802BE000A03BE007E805700A1FF0700F1
:108100005FA897000000E00005003A001FB297004A
:10811000AFB297003FB39700CFB3970009000700B5
:108120006FB09700FFB097000FB997009FB9970005
:108130004F06BE004F05BE004F04BE000080FA008F
:10814000000006000100070000000600A4B79F0021
:10815000B5B79F00C6B79F00D7B79F0000000600C5
:108160004F09DE0082817100B3B79F004F01DE002E
:108170008180400082807000A1B79F008FB097007F
:108180004F09DE00000040000200700090B79F0021
:108190007FA897004F01DE00818040008280700040
:1081A00081B79F000D0007004F3ADE00000040003D
:1081B00004007000F0AF9F000800070004024200B6
:1081C00085824A0006034B0087834B00DFFF0700D0
:1081D0000802BE000A03BE00000006002FB297008E
:1081E000BFB297004FB39700DFB3970000000600BF
:1081F000881F780018002000881F780089FF07007A
:108200008F87E9004F04780000000600801FEB0014
:1082100084FF07008F87E90000000600889FBE00EA
:108220008A9FBE00E00F5000E08F5800E00F590019
:10823000E08F59000C003D006044B8006055B80064
:108240000000540081805C0002015D0083815D00BC
:10825000180020001500070008003D001800070066
:108260000004EB00050037000004EB000F000700DE
:1082700002003D001200070018002000DCFF07008C
:108280000800E000060032006022B8006033B80049
:108290000000520081805A0002015B0083815B0074
:1082A0004F05BE004F04BE0000000600E00F520064
:1082B000E08F5A00E00F5B00E08F5B0000000600DB
:1082C0006044B8006055B8000402540085825C0028
:1082D00006035D0087835D0000000600889FBE00E6
:1082E0008A9FBE008C1F7800E00F5000E08F58007E
:1082F000E00F5900E08F59000D003D006044B800C8
:108300006055B8000000540081805C0002015D00EF
:1083100083815D001C0020000820E10009A8E10025
:108320000AB0E1000BB8E1000D003D000800370085
:108330000006EB00E00F5200E08F5A00E00F5B00F8
:10834000E08F5B0006003D006044B8006055B80057
:108350000402540085825C0006035D0087835D0093
:10836000AAFF07000C00E000060032006022B800FF
:108370006033B8000000520081805A0002015B00A7
:1083800083815B004F0678004F05BE004F04BE009E
:10839000000006000000000064000000C9000000AA
:1083A0002D01000092010000F60100005B020000B8
:1083B000BF0200002403000088030000ED0300005A
:1083C00051040000B60400001A0500007E050000FC
:1083D000E305000047060000AC060000100700009F
:1083E00074070000D90700003D080000A108000044
:1083F000060900006A090000CE090000320A0000E8
:10840000970A0000FB0A00005F0B0000C30B00008E
:10841000270C00008B0C0000EF0C0000530D000037
:10842000B70D00001B0E00007F0E0000E30E0000E1
:10843000470F0000AB0F00000E100000721000008C
:10844000D6100000391100009D110000001200003C
:1084500064120000C71200002B1300008E130000EE
:10846000F213000055140000B81400001B150000A2
:108470007E150000E115000044160000A71600005C
:108480000A1700006D170000D01700003318000015
:1084900095180000F81800005B190000BD190000D5
:1084A000201A0000821A0000E41A0000461B000097
:1084B000A91B00000B1C00006D1C0000CF1C00005D
:1084C000311D0000931D0000F41D0000561E000029
:1084D000B81E0000191F00007B1F0000DC1F0000F9
:1084E0003D2000009F2000000021000061210000CD
:1084F000C22100002322000084220000E4220000A8
:1085000045230000A6230000062400006724000085
:10851000C72400002725000087250000E72500006C
:1085200047260000A7260000072700006727000055
:10853000C62700002628000085280000E528000046
:1085400044290000A3290000022A0000612A00003B
:10855000C02A00001E2B00007D2B0000DB2B00003A
:108560003A2C0000982C0000F62C0000542D00003E
:10857000B22D0000102E00006E2E0000CC2E000048
:10858000292F0000862F0000E42F0000413000005A
:108590009E300000FB30000058310000B431000074
:1085A000113200006D320000CA3200002633000094
:1085B00082330000DE3300003A34000096340000BD
:1085C000F13400004D350000A835000003360000EE
:1085D0005E360000B9360000143700006F37000027
:1085E000C9370000243800007E380000D838000069
:1085F000323900008C390000E63900003F3A0000B3
:10860000993A0000F23A00004B3B0000A43B000006
:10861000FD3B0000563C0000AE3C0000073D000062
:108620005F3D0000B73D00000F3E0000673E0000C8
:10863000BF3E0000163F00006E3F0000C53F000037
:108640001C40000073400000CA40000020410000B0
:1086500077410000CD410000234200007942000034
:10866000CF420000254300007A430000D0430000C1
:10867000254400007A440000CF4400002345000058
:1086800078450000CC4500002046000074460000FC
:10869000C84600001C4700006F470000C3470000A9
:1086A0001648000069480000BC4800000E49000060
:1086B00061490000B3490000054A0000574A000024
:1086C000A94A0000FA4A00004C4B00009D4B0000F4
:1086D000EE4B00003F4C00008F4C0000E04C0000CF
:1086E000304D0000804D0000D04D0000204E0000B5
:1086F0006F4E0000BF4E00000E4F00005D4F0000A7
:10870000AC4F0000FA4F00004950000097500000A5
:10871000E55000003351000080510000CE510000B0
:108720001B52000068520000B552000001530000C7
:108730004E5300009A530000E653000032540000EC
:108740007D540000C9540000145500005F5500001E
:10875000AA550000F45500003F560000895600005D
:10876000D35600001D57000066570000B0570000A8
:10877000F9570000425800008A580000D358000002
:108780001B59000063590000AB590000F359000069
:108790003A5A0000815A0000C85A00000F5B0000DE
:1087A000565B00009C5B0000E25B0000285C000060
:1087B0006D5C0000B35C0000F85C00003D5D0000F3
:1087C000825D0000C65D00000B5E00004F5E000091
:1087D000935E0000D65E00001A5F00005D5F00003F
:1087E000A05F0000E25F00002560000067600000FD
:1087F000A9600000EB6000002D6100006E610000C8
:10880000AF610000F06100003062000071620000A2
