:020000040000fa
:080000000018040000000000dc
:020000040000fa
:04000800543400006c
:020000040000fa
:04000c005434000068
:020000040000fa
:040010005434000064
:020000040000fa
:040014005434000060
:020000040000fa
:04001800543400005c
:020000040000fa
:04001c005434000058
:020000040000fa
:040020005434000054
:020000040000fa
:040024005434000050
:020000040000fa
:04002800543400004c
:020000040000fa
:04002c005434000048
:020000040000fa
:040030005434000044
:020000040000fa
:04003400ae1a000000
:020000040000fa
:04003800d41f0000d1
:020000040000fa
:04003c005434000038
:020000040000fa
:040040005434000034
:020000040000fa
:040044005434000030
:020000040000fa
:04004800543400002c
:020000040000fa
:04004c005434000028
:020000040000fa
:040050005434000024
:020000040000fa
:04005400a22d0000d9
:020000040000fa
:04005800543400001c
:020000040000fa
:04005c005434000018
:020000040000fa
:040060002e2d000041
:020000040000fa
:040064005434000010
:020000040000fa
:04006800543400000c
:020000040000fa
:04006c005434000008
:020000040000fa
:040070005434000004
:020000040000fa
:040074005434000000
:020000040000fa
:0400780054340000fc
:020000040000fa
:04007c0054340000f8
:020000040000fa
:0400800054340000f4
:020000040000fa
:0400840054340000f0
:020000040000fa
:040088004e2d0000f9
:020000040000fa
:04008c0054340000e8
:020000040000fa
:0400900054340000e4
:020000040000fa
:0400940054340000e0
:020000040000fa
:0400980054340000dc
:020000040000fa
:04009c0054340000d8
:020000040000fa
:0400a000fe18000046
:020000040000fa
:0400a40054340000d0
:020000040000fa
:0400a80054340000cc
:020000040000fa
:0400ac006e2d0000b5
:020000040000fa
:0400b00054340000c4
:020000040000fa
:0400b40054340000c0
:020000040000fa
:0400b80054340000bc
:020000040000fa
:0400bc0054340000b8
:020000040000fa
:0400c00054340000b4
:020000040000fa
:0400c40054340000b0
:020000040000fa
:0400c80054340000ac
:020000040000fa
:0400cc0054340000a8
:020000040000fa
:0400d00054340000a4
:020000040000fa
:0400d40054340000a0
:020000040000fa
:0400d800543400009c
:020000040000fa
:0400dc005434000098
:020000040000fa
:0400e0005434000094
:020000040000fa
:0400e4005434000090
:020000040000fa
:0400e800543400008c
:020000040000fa
:0400ec005434000088
:020000040000fa
:0400f0005434000084
:020000040000fa
:0400f4005434000080
:020000040000fa
:0400f800543400007c
:020000040000fa
:0400fc005434000078
:020000040000fa
:040100005434000073
:020000040000fa
:04010400543400006f
:020000040000fa
:04010800543400006b
:020000040000fa
:04010c005434000067
:020000040000fa
:040110005434000063
:020000040000fa
:04011400543400005f
:020000040000fa
:04011800543400005b
:020000040000fa
:04011c005434000057
:020000040000fa
:040120005434000053
:020000040000fa
:04012400543400004f
:020000040000fa
:04012800543400004b
:020000040000fa
:04012c005434000047
:020000040000fa
:040130005434000043
:020000040000fa
:04013400543400003f
:020000040000fa
:04013800543400003b
:020000040000fa
:04013c005434000037
:020000040000fa
:040140005434000033
:020000040000fa
:04014400543400002f
:020000040000fa
:04014800543400002b
:020000040000fa
:04014c005434000027
:020000040000fa
:040150005434000023
:020000040000fa
:04015400543400001f
:020000040000fa
:04015800543400001b
:020000040000fa
:04015c005434000017
:020000040000fa
:040160005434000013
:020000040000fa
:04016400543400000f
:020000040000fa
:04016800543400000b
:020000040000fa
:04016c005434000007
:020000040000fa
:040170005434000003
:020000040000fa
:0401740054340000ff
:020000040000fa
:0401780054340000fb
:020000040000fa
:04017c0054340000f7
:020000040000fa
:0401800054340000f3
:020000040000fa
:0401840054340000ef
:020000040000fa
:0401880054340000eb
:020000040000fa
:04018c0054340000e7
:020000040000fa
:0401900054340000e3
:020000040000fa
:0401940054340000df
:020000040000fa
:0401980054340000db
:020000040000fa
:04019c0054340000d7
:020000040000fa
:0401a00054340000d3
:020000040000fa
:0401a4001c1e00001d
:020000040000fa
:0401a80054340000cb
:020000040000fa
:0401ac0054340000c7
:020000040000fa
:0401b00054340000c3
:020000040000fa
:0401b40054340000bf
:020000040000fa
:0401b80054340000bb
:020000040000fa
:0401bc0054340000b7
:020000040000fa
:0401c00054340000b3
:020000040000fa
:0401c40054340000af
:020000040000fa
:0401c80054340000ab
:020000040000fa
:0401cc0054340000a7
:020000040000fa
:0401d00054340000a3
:020000040000fa
:0401d400543400009f
:020000040000fa
:0401d800543400009b
:020000040000fa
:0401dc005434000097
:020000040000fa
:0401e0005434000093
:020000040000fa
:0401e400543400008f
:020000040000fa
:0401e800543400008b
:020000040000fa
:0401ec005434000087
:020000040000fa
:0401f0005434000083
:020000040000fa
:0401f400543400007f
:020000040000fa
:0401f800543400007b
:020000040000fa
:0401fc005434000077
:020000040000fa
:040200005434000072
:020000040000fa
:04020400543400006e
:020000040000fa
:04020800543400006a
:020000040000fa
:04020c005434000066
:020000040000fa
:040210005434000062
:020000040000fa
:04021400543400005e
:020000040000fa
:04021800543400005a
:020000040000fa
:04021c005434000056
:020000040000fa
:040220005434000052
:020000040000fa
:04022400543400004e
:020000040000fa
:04022800543400004a
:020000040000fa
:04022c005434000046
:020000040000fa
:040230005434000042
:020000040000fa
:04023400543400003e
:020000040000fa
:04023800543400003a
:020000040000fa
:04023c005434000036
:020000040000fa
:040240005434000032
:020000040000fa
:04024400543400002e
:020000040000fa
:04024800543400002a
:020000040000fa
:04024c005434000026
:020000040000fa
:040250005434000022
:020000040000fa
:04025400543400001e
:020000040000fa
:04025800543400001a
:020000040000fa
:04025c005434000016
:020000040000fa
:040260005434000012
:020000040000fa
:04026400543400000e
:020000040000fa
:04026800543400000a
:020000040000fa
:04026c005434000006
:020000040000fa
:040270005434000002
:020000040000fa
:0402740054340000fe
:020000040000fa
:0402780054340000fa
:020000040000fa
:04027c0054340000f6
:020000040000fa
:0402800054340000f2
:020000040000fa
:10300000ef5422002efe27000e0188000000000071
:10301000000020000000e00002003200000120005b
:103020002002880014000700630e07000000e00083
:1030300003003a00a0112a0001002000020037001e
:103040000000200001002000810f7000010032000c
:103050000f000700000020000000e0000200320026
:103060000000020000000000ea9a020000000000d8
:103070000040da000000fe00c0a522000000e000d1
:1030800002003200002020009001880000000600ad
:10309000a1028800800478000000eb001f003700c8
:1030a000e284440054a0b4009905ba00e2844400cc
:1030b00054a0b4009906ba00e284440054a0b400bd
:1030c0000006eb00476fde00fd07b200ae0188008e
:1030d000636ce10003003a000ad801000000eb0035
:1030e0000e003700606ce10008003a00004deb0074
:1030f0000a05e800020039003420ec000af0a000c4
:103100008b05e900f9ff3e00040037006168e1002b
:10311000010032000086eb000b00070019c7ba005f
:103120000e04e0001905ba0003003a000a00e000ae
:10313000dbff3a0000000600fe07b200ae02880086
:103140008a047800f5ff37000cd0a300e20f4d0091
:103150001c00390089027800354dba000a05e800e4
:10316000020039003420ec000af0a0008b05e900d1
:103170000f003200254dba000a05e80002003900b0
:103180003420ec000af0a0008b05e90008003200b2
:103190000c00e0000600320015cdba000a05e80078
:1031a000020039003420ec000af0a0008b05e90091
:1031b0008984e80054a0b4000b00e000e2ff3a006c
:1031c000000006009902ba00055d78008b05e90051
:1031d000f7ff3200c82ade00055d78008b05e900a4
:1031e000f3ff32000c00e000f1ff320019ddba00fd
:1031f000eeff37000000000000000000809fbe00ce
:10320000821f78003200f8003400f800100020001f
:10321000a00188000020200090018800000000002c
:103220000400fa0090118000640060000000e000db
:103230000500320023c8a90031e2a9003222a9000a
:103240006df0a80031e2a8009011800062006000db
:103250000000e0000400320023c8a9003222a900c7
:103260006df0a80031e2a80003c8a90023c8a90096
:10327000608080000000e0000b003a007085800054
:103280000000e00008003200608080000000e000e4
:1032900001003a006b30a800ae30ef00b430ef0010
:1032a000b030ef00b230ef0070858000b1118000c7
:1032b0008140780042362200000041000148780039
:1032c00070858000e30f500003003e00e10f5000c6
:1032d0002100310003003700e50f50004d003e0093
:1032e0003f0037007085800041362200008040009a
:1032f00010407800e24f500008003a0070858000ce
:103300000000e80070858800b030ef00b230ef00b8
:103310008038210060808800890037007085800037
:10332000413622000080400010407800e54f5000f8
:1033300080003a005000200090858800d00a81006b
:103340000010a000d00a8900d00a81000020a0004f
:10335000d00a89007a00370070858000413622004b
:1033600000804000104078008080fb0000042000b6
:10337000008060000000e0000b00320080858000cb
:10338000c400dd007085800042362200000041004c
:10339000104078000080fb00008040007003b10006
:1033a000808588000a00370080858000c400dd0029
:1033b00070858000423622000000410010407800f5
:1033c0000080fb00008040000003b1008085880081
:1033d000708580000000e800708588005800370084
:1033e00090858000c800dd00708580004236220094
:1033f00000004100104078000080fb0001007000d8
:1034000090858800708580000000e8007085880045
:103410004b00370080858000e6004000708580000a
:10342000808f50003f003a007085800041362200b6
:103430000080400010407800e34f50003f003a0009
:10344000708580000080e900413622000080400045
:10345000104078000080fb004800dd00a085880057
:10346000708580000000e9004136220000804000a5
:10347000104078008080fb00a08580000100700073
:10348000a0858800808580006300400010079800b8
:103490000000eb00000f78000900370041362200e1
:1034a0001e00900000804000104078000080fb006b
:1034b0001e0f40001e0090000000e9001007980059
:1034c0001e0090000000e000f4ff3a001e8fea00aa
:1034d000a08580009e007800808f500007003a0091
:1034e000d00a81000010a000d00a8900d00a810013
:1034f0000020a000d00a890007003700d00a810010
:103500000010a000d00a8900d10a8100b0ff2f006e
:1035100000806000d00a8900ae30ef00b430ef00c8
:1035200007003700708580000000e8007085880083
:103530000300370000000000010037000000000019
:1035400023c8a8000080fa003400f9003200f90016
:103550004f0178004f00be00004006003600f80022
:10356000809fbe00829fbe00849fbe00869fbe00db
:10357000889fbe008a9fbe008c9fbe003200f8006c
:103580003400f80010002000a00188000020200076
:1035900090018800000000000c00fa000068a900fb
:1035a000c00a8100620060000000e0009601320065
:1035b000d10a810000042000008060000000e000cb
:1035c0008e003200f081800001828000e00f500008
:1035d000e08f580048003a0041838000d085800089
:1035e000808f500004003500c00a81000030a00028
:1035f000c00a890040003700d10a81000080200005
:10360000008060000000e0003b0032004183800049
:10361000200220008088b900f800400060162200d7
:10362000008040009000900010007800f081880039
:103630000182880041838000200220008088b90038
:103640008080e8006016220000804000900090001a
:1036500010007800620321000089be00c10a8100c9
:1036600000022000008060000000e0001400320032
:1036700041838000200220008088b900ea004000d9
:103680006016220000804000100178009001900038
:103690004207980053079800a20020004e029000b5
:1036a000de0290001100090042aad8008000eb0061
:1036b0008a0d070030818800418188000b003700a7
:1036c00041838000200220008088b900ea00400089
:1036d00060162200008040009000900010007800ea
:1036e0007e0d070030818800418188004083800082
:1036f0000000e80040838800d10a810000202000fb
:10370000008060000000e0003c003200d10a81002f
:10371000f0df2f0000806000d00a890060032100e4
:1037200010017800900190004061210051002000bc
:10373000800f5100818f590010003e00600321006e
:103740001001780090019000408380008000e90023
:10375000200220008088b900e600400060162200a8
:1037600000804000900090001000780002004000af
:1037700083804800620321000089be003081800000
:1037800041818000310d070080007800f0ff2700a4
:10379000808f500010003200408380008000e900dc
:1037a000200220008088b900ee0040006016220050
:1037b000008040001002780090029000308180006c
:1037c000418180000001be000400be007c0c0700a7
:1037d00030818800418188003081800041818000f3
:1037e0001a0d0700000078000000e00003003d0013
:1037f0006000b800308188004181880060032100aa
:1038000020019000b0019000600321009000900022
:10381000100078000200400083804800620321000d
:1038200020019800310198006003210020019000e0
:10383000b001900000002f00f10720000202780084
:103840000301780080017800010078000302620023
:10385000000061008000eb00c000dd0000002000df
:103860000001be006120b80000017100818171007b
:10387000c41add004c10de0000807200cc18de009f
:10388000000f7800004020001e0060000000e000f3
:1038900007003200d00a81000070a000d00a890021
:1038a00024cea80000002800d0868800070037003a
:1038b000d10a8100f0f72f0000806000d00a890053
:1038c00024cea900f0ff2700d0868800d00a81000e
:1038d0004700de00e1406000d00a81004800de00c1
:1038e0006140600080cf50001e003200d00a81008d
:1038f00000b0a000d00a8900c00a81006800600002
:103900000000e0001b003200c10a8100d0ff2f0040
:1039100000806000c00a8900c10a810070ff2f008a
:1039200000806000c00a8900620321006000b800c6
:103930002001980031019800620321006000b80066
:103940000089be006000b800308188004181880095
:103950000000eb00000f78006830ef0024cea900d3
:1039600004003700d10a8100f07f2f000080600042
:10397000d00a8900d00a81004700de006140600063
:103980000080fb00610060004800dd00d20a810079
:10399000f1ef2f008100610001007000d00a890062
:1039a000d10a810000402000008060000000e0009b
:1039b00003003200f0ff27002081880092003700ca
:1039c000e00a8100610060000000e0003300320086
:1039d000e00a81000000d100674060000080fb0029
:1039e000e20f500018003200e20f500005003c00ca
:1039f0000000e00008003200e10f50000c0032002f
:103a000022003700e30f500015003200e40f500091
:103a1000190032001d003700e10a810010ff2f005d
:103a2000008060000010a000e00a89001700370045
:103a3000e10a810010ff2f00008060000020a0003c
:103a4000e00a890011003700e10a810010ff2f0011
:103a5000008060006000b300e00a89000b003700be
:103a6000e10a810010ff2f00008060000030a000fc
:103a7000e00a890005003700e10a810010ff2f00ed
:103a800000806000e00a890000000000e10a810077
:103a9000e0ff2f0000806000e00a8900e00a81005a
:103aa0000000d100674060000080fb00e20f500082
:103ab00030003200e20f500005003c000000e00042
:103ac00008003200e10f5000190032004e003700ac
:103ad000e30f500038003200e40f5000470032007e
:103ae00049003700f03f20001e00600080004000c9
:103af000e03e2c0000804000100078001007980085
:103b0000d18680001e0090000180b900c109dd004f
:103b10004f01de0002817100220798004f8ade000b
:103b2000340798002e00900020818800360037006e
:103b3000f03f20001e00600080004000e03e2d00ad
:103b4000008040001000780010079800d1868000a7
:103b50001e0090000180b900c10add004f06de00a2
:103b60000c867200cf8ede000c0078002081880069
:103b700025003700f03f20001e006000800040005c
:103b8000e0be2d0000804000100078001007980073
:103b9000d18680001e0090000180b9004109dd003f
:103ba0004f05de000a057100cf8dde000a007800a7
:103bb0002081880014003700f03f20001e006000c4
:103bc00080004000e0be2c00008040001000780023
:103bd00010079800d18680001e0090000180b90077
:103be000c109dd004f04de0008847100cf8cde00c7
:103bf000080078002081880003003700f0ff2300d0
:103c000020818800000000000080fa003400f900e4
:103c10003200f9004f06be004f05be004f04be0043
:103c20004f03be004f02be004f01be004f00be005a
:103c30003600f90000400600809fbe00821f780019
:103c40003200f8003400f80010002000a0018800c5
:103c50000020200090018800000000000000fa0011
:103c60000be8a900016280000000280000806000cd
:103c70000000e0000b003200418ca9009d2aa90041
:103c80006a70a800f0152200904078000174a1002d
:103c900001487800d00a81000040a000d00a8900c5
:103ca000990037003080800041808000e00f500094
:103cb000e08f580006003200308080004180800094
:103cc00061005000e080580030808800418088000a
:103cd000508080000000e00003003200508080002f
:103ce0000000e90050808800708680008186800096
:103cf0000081700002f0a7000201ea000201e90061
:103d00004f11de000241780061005000e080580051
:103d100070868800818688000204e0001b00320063
:103d2000708480008184800061004000e080480051
:103d30007084880081848800c00a8100620060006d
:103d40000000e00004003a00d00a81006800600032
:103d50000000e0000600320090848000a184800012
:103d600061004000e080480090848800a1848800c1
:103d700000362e0061012000708688008186880050
:103d8000d00a81000000a000d00a890000878000ce
:103d90000000e00003003200008780000000e9001e
:103da00000878800008480000000e00003003200eb
:103db000008480000000e9000084880010848000f6
:103dc0000000e00003003200108480000000e900e1
:103dd00010848800608080000000e0000300320052
:103de000608080000000e90060808800b08680006c
:103df0008000780001f0a7008100ea008100e9005e
:103e0000cf08de00814078000000e900b08688001d
:103e10000104e0003600320090012000b0868800e6
:103e2000f081800001828000e00f5000e08f580098
:103e300006003200f08180000182800061005000a5
:103e4000e0805800f081880001828800d00a81005b
:103e50000090a000d00a8900c00a81004d00de0059
:103e6000e1406000c00a81004c00de00614060005b
:103e700080cf500008003200c10a810000002100fc
:103e8000008060000000e0000e0032008c30ef0087
:103e90006ad0a8000b003700c10a81000000210091
:103ea000008060000000e0000600320060848000b6
:103eb000e10f400003003200608480000000e80051
:103ec00060848800c00a81004c00de006140600010
:103ed0000080fb00610060004d00dd00c20a81002f
:103ee000f1ff2d008100610001007000c00a89000f
:103ef0001111800000102000008060000000e00030
:103f0000010032002342a9001071800064006000ab
:103f10000000e0000f003200c186800070252800fc
:103f2000808f50001a003e00c08680000000e8002c
:103f3000c0868800c1868000401f2800808f500006
:103f400013003600d00a810000c0a000d00a89000a
:103f50000f003700c186800080da2700808f500074
:103f60000b003600c08680000000e900c086880093
:103f7000c1868000b0e02700808f500004003e0022
:103f8000d10a8100f0ff2e0000806000d00a890075
:103f90000080fa003400f9003200f9004f01780087
:103fa0004f00be00004006003600f800809fbe00b3
:103fb000829fbe00849fbe00869fbe00889fbe0079
:103fc0008a9fbe008c9fbe003200f8003400f800cb
:103fd00010002000a001880000202000900188002f
:103fe00000000000b400fa000088a90020ff2700ac
:103ff000900090000080800000805000e0898800e0
:1040000020ff2700a000900010808000008050005a
:10401000f089880020ff2700900078002080800031
:1040200000805000008a880020ff270030009000a8
:104030000000e00008003d0020ff27003000900055
:1040400080007800f0ff2700008060000000d100b1
:10405000100798000500370020ff2700300090006f
:1040600000f0a0000000d10010079800d18380006c
:10407000f00720000088b900400798005107980019
:104080001e0090006101b9004e009000de0090001b
:1040900000004100818049004007980051079800c6
:1040a0004e009000de0090004909dd004702de006e
:1040b00004027100c78ade0004007800d083880003
:1040c000d183800020a82000808f50001100340090
:1040d000d083800000017800701f8700811f870057
:1040e0000002be00049f9800159f98000e9a900051
:1040f0009e9a90001100090042aad800b080880062
:10410000c10a8100f0ff2e0000806000c00a890013
:104110000500370000d02700b0808800c00a810069
:1041200000c0a000c00a8900d18380004016200092
:104130000088b90040079800510798004e00900091
:10414000de009000c10add004f03de00068372002e
:10415000cf8bde0006007800e0838800d00a810063
:10416000680060000000e00038003200c00a8100f2
:10417000620060000000e00034003a00d10a8100d3
:1041800000402000008060000000e0002f003a00a6
:10419000c10a810000022000008060000000e000f1
:1041a0002a003a00c10a810000042000008060005b
:1041b0000000e00025003a00d10a81000000240040
:1041c000008060000000e00020003a0000002800ad
:1041d000215a24005081880061818800e089800094
:1041e000008988000000eb0010898800a0112100e0
:1041f000af0907005081800061818000930a0700a9
:1042000080007800208180000180b9004109dd0034
:104210004f04de0008047100cf8cde000800780037
:1042200080808800b1808000808080000180b9009b
:10423000c109dd004f05de000a857100cf8dde006b
:104240002a0798003b079800bc033700d00a81007a
:10425000680060000000e0003c003200c00a8100fd
:10426000620060000000e00038003a00d10a8100de
:1042700000402000008060000000e00033003a00b1
:10428000c10a810000022000008060000000e00000
:104290002e003a00c10a8100000420000080600066
:1042a0000000e00029003a00d10a8100000024004b
:1042b000008060000000e0002400320000002800c0
:1042c000414024005081880061818800e08980009d
:1042d000008988000000eb0010898800a0112100ef
:1042e000730907005081800061818000570a070030
:1042f00080007800208180000180b900410add0043
:104300004f06de000c067200cf8ede000c00780037
:1043100080808800b1808000808080000180b900aa
:104320004109dd00cf02de0085027100653798008b
:10433000cf89de00733798006e329000fe32900015
:1043400024079800350798007c033700d00a8100c5
:10435000680060000000e0003d003200c00a8100fb
:10436000620060000000e00039003a00d10a8100dc
:1043700000402000008060000000e00034003a00af
:10438000c10a810000022000008060000000e000ff
:104390002f003200d10a810000002400008060005c
:1043a0000000e0002a003a0000002200416e2400d4
:1043b0005081880061818800e08980000089880040
:1043c0005081800061818000200a07008000780011
:1043d000208180000180b9004109dd00cf02de00ac
:1043e0008502710065079800cf89de007307980089
:1043f0006e00900010898800118980000083800081
:104400000080500010898800a011210028090700b1
:10441000f088800080808800b180800080808000eb
:104420000180b900c10add004f02de000482720083
:10443000043f98004f89de00123f98000e3a90002a
:104440009e3a900024079800350798003b033700f8
:10445000d00a8100680060000000e0003d003200ea
:10446000c00a8100620060000000e00039003a00ec
:10447000d10a810000402000008060000000e000c0
:1044800034003a00c10a8100000220000080600070
:104490000000e0002f003200d10a8100000024005b
:1044a000008060000000e0002a00320000002400cc
:1044b000514b24005081880061818800e089800090
:1044c000008988005081800061818000df09070039
:1044d00080007800208180000180b9004509dd005e
:1044e000cb02de0085027100050f9800cb89de004b
:1044f000130f98000e089000108988001189800021
:10450000008380000080500010898800a0112100e5
:10451000e7080700f08880008080880081808000a4
:10452000c04420000088b900c10add004f02de004f
:1045300004827200243f98004f89de00323f9800c9
:104540002e3a9000be3a9000240798003507980054
:10455000fa023700d00a8100680060000000e00025
:104560003d003200c00a8100620060000000e000ef
:1045700039003a00d10a810000402000008060002c
:104580000000e00034003a00c10a8100000420006d
:10459000008060000000e0002f003200d10a81009e
:1045a00000002800008060000000e0002a003a00bf
:1045b00000002d0041602400708188008181880006
:1045c000f0898000008988007081800081818000ee
:1045d0009e09070080007800208180000180b900da
:1045e0004109dd00cf02de0085027100250f980031
:1045f000cf89de00330f98002e08900010898800c4
:10460000118980000083800000805000108988009c
:10461000a0112100a6080700f08880008080880093
:10462000b1808000808080000180b900c10add0077
:104630004f02de0004827200443f98004f89de0082
:10464000523f98004e3a9000de3a900024079800be
:1046500035079800b9023700d00a81006800600071
:104660000000e0003d003200c00a810062006000ee
:104670000000e00039003a00d10a8100004020002b
:10468000008060000000e00034003a00c10a8100b0
:1046900000042000008060000000e0002f003200d5
:1046a000d10a810000002800008060000000e000c6
:1046b0002a00320000802200016a240070818800f4
:1046c00081818800008a80000089880070818000d4
:1046d000818180005d0907008000780020818000d2
:1046e0000180b9004209dd00ce02de0085027100c2
:1046f000450f9800ce89de00530f98004e089000b9
:10470000108988001189800000838000008050009b
:1047100010898800a011210065080700f08880003a
:1047200080808800b1808000808080000180b90096
:10473000c10add004f02de0004827200643f98006f
:104740004f89de00723f98006e3a9000fe3a90006a
:10475000240798003507980078023700d10a8100b5
:1047600000402000008060000000e0003b003200bc
:10477000c10a810000022000008060000000e0000b
:1047800036003200f0ff270020818800e01522006b
:104790009042780067c062008080fb00e0ab2000a0
:1047a0000088b9004a0907005081880061818800ab
:1047b000e2898000706626000090b9008180d100f7
:1047c0004f90de000080500000898800308180001a
:1047d000418180001d090700800078002081800051
:1047e0000180b900c109dd004f01de0002817100c6
:1047f000620f98004f8ade00740f98006e089000d8
:10480000108988001189800000838000008050009a
:1048100010898800a011210025080700f088800079
:1048200080808800b1808000808080000180b90095
:104830004109dd00cf02de00850271000587980086
:10484000cf89de00138798000e8290009e82900030
:10485000240798003507980038023700d10a8100f4
:1048600000402000008060000000e0002e003200c8
:10487000c10a810000022000008060000000e0000a
:1048800029003a00c10a8100000420000080600075
:104890000000e00024003a00f0ff2700208188009b
:1048a000e0898000008988000000eb001089880002
:1048b000a0112100fe0707003081800041818000a7
:1048c000e208070080007800208180000180b900a4
:1048d0004109dd00cf02de00850271000517980056
:1048e000cf89de00131798000e109000808088009a
:1048f000b1808000808080000180b900c10add00a5
:104900004f02de0004827200248798004f89de0087
:10491000328798002e829000be8290002407980073
:104920003507980005023700d10a810000402000b9
:10493000008060000000e00034003200c10a810005
:1049400000042000008060000000e0002f00320022
:10495000f0ff2700208188003081800041818000a5
:104960006266260063f62300310907007081880023
:1049700081818800f0898000008988007081800032
:1049800081818000b10807008000780020818000cc
:104990000180b9004109dd00cf02de00850271000f
:1049a00025179800cf89de00331798002e1090004d
:1049b00010898800118980000083800000805000e9
:1049c00010898800a0112100b9070700f088800035
:1049d00080808800b1808000808080000180b900e4
:1049e000c10add004f02de00048272004487980095
:1049f0004f89de00528798004e829000de82900040
:104a00002407980035079800cc013700d10a8100af
:104a100000042000008060000000e0004000320040
:104a2000d00a8100680060000000e0003c003a000d
:104a3000d10a810000402000008060000000e000fa
:104a400037003a00c10a81000002200000806000a7
:104a50000000e00032003200d10a81000000240092
:104a6000008060000000e0002d003a0030818000ee
:104a7000418180006266260063fc2300ec08070089
:104a80005081880061818800e08980000089880069
:104a900050818000618180006c08070080007800f0
:104aa000208180000180b9004109dd00cf02de00d5
:104ab0008502710045179800cf89de0053179800d2
:104ac0004e109000108988001189800000838000ba
:104ad0000080500010898800a01121007407070091
:104ae000f088800080808800b18080008080800015
:104af0000180b900c10add004f02de0004827200ad
:104b0000648798004f89de00728798006e8290005b
:104b1000fe8290002407980035079800870137002f
:104b2000d10a810000042000008060000000e00045
:104b300045003200d00a8100680060000000e000fb
:104b400041003a00d10a810000402000008060004e
:104b50000000e0003c003a00c10a81000002200091
:104b6000008060000000e00037003200d10a8100c0
:104b700000002400008060000000e00032003200ed
:104b80003081800041818000a29929009301240096
:104b9000a70807005081880061818800e2898000b1
:104ba000706626000090b9008180d1004f90de0031
:104bb0000080500000898800508180006181800061
:104bc0002208070080007800208180000180b90061
:104bd0004109dd00cf02de008502710065179800f3
:104be000cf89de00731798006e109000108988003e
:104bf00011898000008380000080500010898800a7
:104c0000a01121002a070700f0888000808088001a
:104c1000b1808000808080000180b900c10add0081
:104c20004f02de0004827200048f98004f89de007c
:104c3000128f98000e8a90009e8a90002407980098
:104c4000350798003d013700d10a8100000420009b
:104c5000008060000000e0003b003200d00a8100cc
:104c6000680060000000e00037003a00d10a8100cf
:104c700000402000008060000000e00032003a00a8
:104c8000c10a810000042000008060000000e000f4
:104c90002d0032003081800041818000420a2700cf
:104ca000d3f92300620807007081880081818800a1
:104cb000f0898000008988007081800081818000f7
:104cc000e207070080007800208180000180b900a1
:104cd0004109dd00cf02de0085027100051f98004a
:104ce000cf89de00131f98000e18900010898800ed
:104cf00011898000008380000080500010898800a6
:104d0000a0112100ea060700f0888000808088005a
:104d1000b1808000808080000180b900c10add0080
:104d20004f02de0004827200248f98004f89de005b
:104d3000328f98002e8a9000be8a90002407980037
:104d400035079800fd003700c00a8100620060004e
:104d50000000e0003e003200d10a81000004200083
:104d6000008060000000e00039003a00d00a8100b5
:104d7000680060000000e00035003200d10a8100c8
:104d800000402000008060000000e00030003a0099
:104d9000c10a810000022000008060000000e000e5
:104da0002b003200d10a8100000024000080600046
:104db0000000e00026003a00e089800000898800b9
:104dc0003081800041818000a007070080007800ca
:104dd000208180000180b9004109dd00cf02de00a2
:104de00085027100251f9800cf89de00331f9800cf
:104df0002e1890001089880011898000008380009f
:104e00000080500010898800a0112100a80607002a
:104e1000f088800080808800b180800080808000e1
:104e20000180b900c10add004f02de000482720079
:104e3000448f98004f89de00528f98004e8a900070
:104e4000de8a90002407980035079800bb003700e1
:104e5000c00a8100620060000000e00043003200f0
:104e6000d10a810000042000008060000000e00002
:104e70003e003a00d00a8100680060000000e000b7
:104e80003a003200d10a810000402000008060001a
:104e90000000e00035003a00c10a81000002200055
:104ea000008060000000e00030003200d10a810084
:104eb00000002400008060000000e0002b003200b1
:104ec000e2898000706626000090b9008180d100e0
:104ed0004f90de0000805000008988003081800003
:104ee0004181800059070700800078002081800000
:104ef0000180b9004109dd00cf02de0085027100aa
:104f0000451f9800cf89de00531f98004e1890006f
:104f10001089880011898000008380000080500083
:104f200010898800a011210061060700f088800028
:104f300080808800b1808000808080000180b9007e
:104f4000c10add004f02de0004827200648f980007
:104f50004f89de00728f98006e8a9000fe8a900062
:104f6000240798003507980074003700c00a8100b4
:104f7000620060000000e00039003200d10a8100c8
:104f800000042000008060000000e00034003a00cf
:104f9000d00a8100680060000000e00030003200ac
:104fa000d10a810000402000008060000000e00085
:104fb0002b003a00c10a810000042000008060003c
:104fc0000000e00026003200f0898000008988009f
:104fd00030818000418180001c070700800078003c
:104fe000208180000180b9004109dd00cf02de0090
:104ff00085027100651f9800cf89de00731f98003d
:105000006e1890001089880011898000008380004c
:105010000080500010898800a0112100240607009c
:10502000f088800080808800b180800080808000cf
:105030000180b900c10add004f02de000482720067
:10504000049798004f89de00129798000e92900006
:105050009e9290002407980035079800370037008b
:10506000d10a810000042000008060000000e00000
:105070002f003a00d00a8100680060000000e000c4
:105080002b003200d10a8100004020000080600027
:105090000000e00026003a00c00a810070006000b5
:1050a0000000e00022003200e089800000898800d2
:1050b0000000eb0010898800a0112100fc0507000a
:1050c0003081800041818000e00607008000780088
:1050d000208180000180b9004109dd00cf02de009f
:1050e0008502710005279800cf89de0013279800fc
:1050f0000e20900080808800b18080008080800039
:105100000180b900c10add004f02de000482720096
:10511000249798004f89de00329798002e929000d5
:10512000be929000240798003507980003003700ce
:105130006000b80020079800310798002e01900009
:10514000be019000c044200001002000800f5100eb
:10515000818f590004003400c04420000100200069
:1051600020079800310798002e019000be019000a2
:1051700040bb2f00f1ff2f00800f5100818f59009d
:1051800004003d0040bb2f00f1ff2f0020079800d6
:105190003107980011838000f01f2000808f50009d
:1051a000010034006230ef00c10a810000042000d9
:1051b000008060000000e0001b00320010838000cf
:1051c0001289800080004000e0142100008040002f
:1051d000020878001083800002898000800040006f
:1051e000e054210000804000020878001183800014
:1051f00020ff27001001780081804000e09421000a
:10520000008040000208780011838000ae01900009
:1052100001814000e0d42100000041000308780033
:105220000100e80010838800c10a8100000220000c
:10523000008060000000e0001a003200108380004f
:105240001289800080004000e014210000804000ae
:1052500002087800108380000289800080004000ee
:10526000e054210000804000020878001083800094
:105270002281800080004000e094210000804000f6
:105280000208780011838000ae0190000181400087
:10529000e0d4210000004100030878000100e8008c
:1052a00010838800ae0090000081800000804000e4
:1052b0008080880096d0bf000080fb00e20f500085
:1052c00005003c00e10f500010003d000000e00030
:1052d0000400320017003700e30f500012003200c4
:1052e00014003700f1808000808080000080500032
:1052f0000080e90090808800808080003062880013
:1053000090808000306388000a0037008080800031
:1053100090808800808080003062880090808000cb
:10532000306388000300370080808000306288008e
:1053300000000000928680000200780000f0a700c4
:105340000000ea000000e9004f00de008040780025
:105350000200e900908688000104e000620032004b
:10536000800020009086880020ff27009000900099
:105370000080800000805000100798009e00900080
:105380001e0090000088b90040079800510798005f
:105390004e009000de0090004909dd00c702de00eb
:1053a0008502710045979800c789de0053979800e1
:1053b0004e929000de9290004407980055079800a6
:1053c00090838000a18380004909dd00c702de00d0
:1053d0008502710025279800c789de0033279800d1
:1053e000f00720003e22900080a2b90084007800df
:1053f000ae229000e028b90080804000f007200035
:105400002e2290000021b8008380400081017800a6
:105410004e009000de0090000200400083804800b3
:1054200090838800a183880020ff2700a0009000bf
:105430001080800000805000100798009e009000af
:105440001e0090000088b90040079800510798009e
:105450004e009000de0090004909dd00c702de002a
:105460008502710065979800c789de0073979800e0
:105470006e929000fe9290004407980055079800a5
:10548000b0838000c18380004909dd00c702de00cf
:105490008502710045279800c789de0053279800d0
:1054a000f00720005e22900080a2b90084007800fe
:1054b000ce229000e028b90080804000f007200054
:1054c0004e2290000021b8008380400081017800c6
:1054d0004e009000de0090000200400083804800f3
:1054e000b0838800c1838800a09124001007980031
:1054f0009e00900070bb2000808f500002003c0096
:105500006b10a800010037006b10a9009e009000ee
:1055100080f72f000088b9004007980051079800d5
:105520004e009000de0090004109dd00cf02de0059
:105530008502710065279800cf89de0073279800e7
:105540006e209000700eb00010079800210b8100b3
:10555000300020000088b9004007980051079800eb
:105560001e0090006101b9004e009000de00900026
:1055700000004100818049004007980051079800d1
:105580004e009000de009000ce0add004202de00f8
:1055900004827200042f98004289de00122f9800c6
:1055a0000e289000200b8900e08980000000e000b8
:1055b00011003400d10a8100000024000080600046
:1055c0000000e00009003200e0898000cf80de00aa
:1055d000bf05070042e12a00730f240055050700ac
:1055e0009a050700000f780014003700e389800057
:1055f000030f780011003700d10a81000000240059
:10560000008060000000e0000a003200e0898000b5
:10561000cf80de00ae05070042e12a00730f2400b0
:105620004405070001f0a20088050700000f78007c
:1056300002003700e0898000000fea00208480002b
:105640009e007800808f5000030034001e02780016
:10565000248488000e003700a08680000000e0004f
:105660000b003a002084800001d027000180b9009f
:105670004109dd00cf02de0085027100252f980070
:10568000cf89de00332f98002e28900020848800d8
:10569000108a80009e0f500004003d00c00a810067
:1056a0000080a000c00a890007003700208a80001f
:1056b0009e0f500004003400c10a8100f0ef2f005b
:1056c00000806000c00a8900508a80009e0f500050
:1056d00012003d00c00a81000030a000c00a89000d
:1056e0006bd0a800c10a8100f0fd2f00008060008f
:1056f000c00a8900c10a8100f0fb2f000080600011
:10570000c00a8900c00a81000040a000c00a8900c8
:105710006000b8003081880041818800f0898000f5
:105720000000e00003003400f4898000040f7800da
:1057300002003700f0898000000fea00308480000a
:105740009e007800808f5000030034009e02780095
:10575000358488000e003700a08680000000e0003d
:105760000b003a003084800001d027000180b9008e
:10577000c109dd004f01de0002817100422f980057
:105780004f8ade00542f98004e2890003084880005
:10579000308a80009e0f500004003d00c00a810046
:1057a0000090a000c00a890007003700408a8000ee
:1057b0009e0f500004003400c10a8100f0df2f006a
:1057c00000806000c00a8900608a80009e0f50003f
:1057d00012003d00c00a81000030a000c00a89000c
:1057e0006bd0a800c10a8100f0fd2f00008060008e
:1057f000c00a8900c10a8100f0fb2f000080600010
:10580000c00a8900c00a81000040a000c00a8900c7
:105810006000b8003081880041818800f1898000f3
:1058200020838000808f5000190034002083800086
:10583000f1ff25000180b90040079800510798004a
:10584000f0898000f1ff21000180b9004e01900035
:10585000de0190000200400083804800400798006d
:10586000510798004e009000de0090004109dd00d5
:10587000cf02de0085027100652f9800cf89de001f
:10588000732f98006e289000208388000e00370048
:10589000a08680000000e0000b003a00208380001a
:1058a00001d027000180b900c10add004f02de00ef
:1058b00004827200043798004f89de001237980086
:1058c0000e30900020838800f189800030838000b2
:1058d000808f500019003d0030838000f1ff2500cb
:1058e0000180b9004007980051079800f0898000b6
:1058f000f1ff21000180b9004e019000de0190000f
:10590000020040008380480040079800510798003b
:105910004e009000de009000410add00cf01de0065
:105920008301720023379800cf8ade003537980054
:105930002e309000308388000e003700a086800053
:105940000000e0000b003a003083800001d0270007
:105950000180b900c109dd004f01de000281710044
:10596000423798004f8ade00543798004e3090003e
:1059700030838800c00a8100620060000000e000ff
:1059800010003200c10a8100000220000080600087
:105990000000e0000b003200d10a8100004020002e
:1059a000008060000000e00006003a0021838000d3
:1059b00030838000008040004480de000083880047
:1059c000010037006030ef000183800040062000b6
:1059d000808f5000020034004006200000838800c1
:1059e00001838000c0f92f00808f500002003d002d
:1059f000c0f92f0000838800a08680008000780016
:105a000001f0a7008100ea008100e900cf08de0074
:105a1000814078000000e900a08688000104e000d1
:105a200002003200f00f2000a08688000080fa00fb
:105a30003400f9003200f9004f06be004f05be00e9
:105a40004f04be004f03be004f02be004f01be0018
:105a50004f00be003600f900004006003200f8009a
:105a60003400f800881f780018002000a801880082
:105a70000820200098018800000000004f047800f2
:105a80000000fa0001c8a90011eba9000080fa008b
:105a90003400f9003200f900004006003200f8003e
:105aa0003400f800881f780018002000a801880042
:105ab0000820200098018800000000004f047800b2
:105ac0000000fa000308a90021eba9000080fa00f9
:105ad0003400f9003200f90000400600809fbe004b
:105ae0003200f8003400f80010002000a001880007
:105af0000020200090018800000000000000fa0053
:105b00000428a90040138000a0808800d10a8100e9
:105b100000042000008060000000e00004003a0063
:105b2000a080800020818800505a2a0040138800fd
:105b30000080fa003400f9003200f9004f00be0086
:105b4000004006003600f800809fbe00829fbe0025
:105b5000849fbe00869fbe00881f78003200f80038
:105b60003400f80010002000a00188000020200070
:105b700090018800000000000000fa000168a90000
:105b800030118000004078000ef0b7000ed0bf004a
:105b90000000fb006101b90060fd2f00f1ff2f0044
:105ba00002004000838048005203200003002000d0
:105bb000820f5000838f5800ef023e000006010064
:105bc000a800370062003700bd0037003200370000
:105bd000cf003700e8023700e7023700e60237005f
:105be000e5023700e4023700e3023700e202370043
:105bf000e1023700e0023700df023700de02370043
:105c0000dd023700dc023700db023700da02370042
:105c1000d9023700d8023700d7023700f400370026
:105c20008e0237000d013700fe013700db00370020
:105c30007c023700d0023700cf023700b2013700b4
:105c4000cd023700fe003700f6003700ee013700c6
:105c5000a802370040013700f9013700640237001d
:105c600061023700e1013700e8003700bc0037006f
:105c70006c013700000137000f023700be02370009
:105c800035023700bc023700bb023700ba023700ca
:105c9000b902370045003700c00a81006200600089
:105ca0000000e000b9023200d10a8100004020006b
:105cb000008060000000e0001300320030818000ae
:105cc0004181800018c0b30002802c00a36f2c001b
:105cd000dc0307000000e00001003c000044eb0092
:105ce0000804e000ab023200308180004181800076
:105cf00002002000030024003003070030818800e8
:105d000041818800de0237003081800041818000bf
:105d100018c0b3006011b800ca0307000000e0001b
:105d200001003c000044eb000804e0009b0232004c
:105d300030818000418180000200200003002400a7
:105d40001e0307003081880041818800cc023700a3
:105d5000c00a8100620060000000e0009102320091
:105d6000308180004181800018c0b30002802c0087
:105d7000a36f2400b10307000000e000010035001c
:105d80000044eb000804e00088023200308180000b
:105d90004181800002002000030024000803070066
:105da0003081880041818800b5023700c00a810037
:105db000620060000000e0007e023200d10a810033
:105dc00000402000008060000000e000130032006e
:105dd000308180004181800018c0b30002802c0017
:105de000a36f2c00970307000000e00001003c00b7
:105df0000044eb000804e0007002320030818000b3
:105e0000418180000200200003122400eb02070001
:105e100030818800418188009902370030818000fc
:105e20004181800018c0b3006011b80085030700ed
:105e30000000e00001003c000044eb000804e0002a
:105e40006002320030818000418180000200200029
:105e500003122400d90207003081880041818800a4
:105e600087023700c00a8100620060000000e00085
:105e700056023200308180004181800018c0b3009a
:105e800002802c00a36f24006c0307000000e000d8
:105e9000010035000044eb000804e0004d02320030
:105ea0003081800041818000020020000312240024
:105eb000c3020700308188004181880070023700ea
:105ec000c00a8100620060000000e000430232006e
:105ed0006003210010017800900190001034200030
:105ee00001002000800f5100818f59003d023600d3
:105ef0006003210090009000100078001034b10081
:105f00000180b100620321000089be005c023700fd
:105f1000c00a8100620060000000e000330232002d
:105f20006003210010017800900190004061210081
:105f300051002000800f5100818f59002d023e003a
:105f40006003210090009000100078001034b00031
:105f50000180b000620321000089be0048023700c2
:105f6000c00a81006100600000f0a7000000ea00a4
:105f70000000e9004f00de00004078000080fb00d8
:105f800061006000c20a8100e1ff2f008100610012
:105f900001007000c00a890039023700203f2e003e
:105fa0001e2707006bd0a9006a70a9006b90a9009a
:105fb000418ca800c10a8100f0fd2f000080600024
:105fc000c00a8900c10a8100f0fb2f000080600038
:105fd000c00a8900c00a81000040a000c00a8900f0
:105fe0006000b800308188004181880024023700b9
:105ff000c00a8100620060000000e000ff013a007a
:1060000040122100292707001d023700c00a810025
:10601000620060000000e000fa013a003927070042
:1060200017023700c00a8100620060000000e00033
:10603000f6013a0030002000f08688001002370098
:10604000c00a8100620060000000e000f1013a0037
:1060500020002000f086880009023700c00a810075
:10606000620060000000e000ec013a001000200037
:10607000f086880002023700f01522009040780078
:1060800000c8b30000c060000004e0002f00320030
:106090005183800000002400008060000000e000c8
:1060a000e0013a00c00a8100620060000000e000e8
:1060b00014003a00c00a81000010a000c00a890044
:1060c000d00a810000b0a000d00a8900620321003c
:1060d0006000b8002001980031019800620321009f
:1060e000202c2a00010020000089be006000b800ba
:1060f0003081880041818800b0412e00c72607000a
:10610000df013700c00a8100620060000000e0008b
:10611000c6013200c00a81000030a000c00a890018
:1061200040442e00bd260700c10a8100f0df2f0089
:1061300000806000c00a8900c10a8100f0ef2f00d2
:1061400000806000c00a8900cd013700d0462e00d3
:10615000b2260700ca01370060492e00af260700ab
:10616000c10a8100f0fd2f0000806000c00a890094
:10617000c10a8100f0fb2f0000806000c00a890086
:10618000c00a81000040a000c00a8900f01522006a
:10619000904078000114a00001487800f01522001a
:1061a00010417800b1cfb300814061000148780010
:1061b000e015220010417800f1ceb300814061006b
:1061c00001487800e015220010417800f1cdb300bd
:1061d0008140610001487800f015220010417800ec
:1061e000e1cfb3008140610001487800e015220052
:1061f00010417800f1cbb300814061000148780084
:10620000e01522001041780081cfb3008140610089
:10621000014878006000b800308188004181880022
:1062200097013700c10a810000042000008060004f
:106230000000e0007f013a00c00a81000050a00089
:10624000c00a8900c10a8100f0fb2f0000806000b5
:10625000c00a8900c10a8100f0fe2f0000806000a2
:10626000c00a8900f015220010417800d1cfb30098
:106270008140610001487800f0152200104178004b
:10628000b1cfb3008140610001487800e0152200e1
:1062900010417800f1ceb3008140610001487800e0
:1062a000e015220010417800f1cdb300814061007b
:1062b00001487800f0152200904078000104a00009
:1062c00001487800e015220010417800f1cbb300be
:1062d0008140610001487800e015220010417800fb
:1062e00081cfb30081406100014878006000b800b0
:1062f0003081880041818800032e0700f04b2e007a
:10630000462607005e013700c10a81000002200016
:10631000008060000000e00048013a00c10a8100ee
:10632000f0fd2f0000806000c00a8900c00a8100d3
:106330000060a000c00a8900c10a8100f0fe2f00a1
:1063400000806000c00a8900f0152200104178002a
:10635000d1cfb3008140610001487800f0152200e0
:10636000904078000124a00001487800e015220048
:1063700010417800f1ceb3008140610001487800ff
:10638000e015220010417800f1cdb300814061009a
:1063900001487800f015220010417800e1cfb300e9
:1063a0008140610001487800e0152200104178002a
:1063b000f1cbb3008140610001487800e015220074
:1063c0001041780081cfb30081406100014878001e
:1063d0006000b8003081880041818800ca2d070024
:1063e000804e2e000d26070025013700c00a8100cf
:1063f000620060000000e00012013a00500020003e
:10640000f08688001e013700c00a8100620060002b
:106410000000e0000d013a0060002000f0868800d6
:1064200017013700c00a8100620060000000e00030
:1064300008013a0070002000f08688001001370043
:10644000c00a8100620060000000e00003013a0021
:10645000f01522009040780000c8b30000c0600032
:106460000004e0000a003200f0152200904078009d
:106470000174a10001487800d00a81000040a0000a
:10648000d00a890010512e00e4250700fc003700d7
:10649000f0152200904078000174a00001487800b7
:1064a000d00a81000040a000d00a8900a0532e002d
:1064b000da250700f2003700c00a810062006000a0
:1064c0000000e00021003a00f015220010407800a2
:1064d0000044b2000004e0000e003200f01522007b
:1064e00010417800f1cbb300814061000148780091
:1064f000d00a81000030a000d00a8900d00a8100b3
:106500000040a000d00a890030562e00c3250700a5
:10651000db003700f0152200904078000164a000f5
:1065200001487800d10a810070ff2f0000806000d0
:10653000d00a8900d00a81000040a000d00a89005a
:10654000b0582e00b5250700cd003700305b2e0077
:10655000b2250700ca003700c00a8100620060004f
:106560000000e000bf003a00d00a81004a00de00cf
:106570006140600000c0ea00614060000080fb00f4
:10658000610060004a00dd00d20a8100f1bf2f00e7
:106590008100610001007000d00a8900d10a8100e9
:1065a00000402000008060000000e0000b0032008e
:1065b000105e2e0099250700c10a8100f0fe2f0011
:1065c00000806000c00a8900c00a81000050a0005d
:1065d000c00a89004c2d0700a9003700a0602e00da
:1065e0008e250700a60037000000fe00a40037003b
:1065f000c00a8100620060000000e0009b003a00d9
:106600008e2b070010c0b30072300700d00a810043
:1066100000e0a000d00a890030632e007f2507002b
:1066200097003700c00a8100620060000000e000af
:1066300090003a00812b07000040eb006530070016
:10664000d10a8100f0ff2b0000806000d00a890091
:10665000c0652e007125070089003700e00a81001f
:106660000000a000e00a8900e00a81006e006000de
:106670000000e00003003a0050682e006725070084
:106680007f003700e00a81006e006000e20f5000da
:1066900003003a00d06a2e0060250700780037001a
:1066a000e00a81006e006000e40f500003003a0031
:1066b000506d2e005925070071003700e00a810057
:1066c0006e006000e60f500003003a00d06f2e000d
:1066d000522507006a003700e00a81006e00600062
:1066e000e80f500065003a0050722e004b2507005d
:1066f0006300370096d0bf000004e00005003a00b8
:1067000010c0b30096f0b700d0742e0043250700e8
:106710001600370096d0bf00e14f500005003a0048
:1067200020c0b30096f0b70040772e003b2507004d
:106730000e00370096d0bf00e24f500005003a002f
:1067400030c0b30096f0b700b0792e0033250700b3
:106750000600370096d0bf00e34f500003003a0018
:106760009670ef00207c2e002c25070096d0bf00ed
:10677000452b070042003700c00a81000070a000ce
:10678000c00a8900000000003d0037000000000042
:106790003b00370000000000390037000000000017
:1067a000370037000000000035003700000000000f
:1067b0003300370000000000310037000000000007
:1067c0002f003700000000002d00370000000000ff
:1067d0002b003700000000002900370000000000f7
:1067e00027003700000000002500370000000000ef
:1067f00023003700000000002100370000000000e7
:106800001f003700000000001d00370000000000de
:106810001b003700000000001900370000000000d6
:1068200017003700000000001500370000000000ce
:1068300013003700000000001100370000000000c6
:106840000f003700000000000d00370000000000be
:106850000b003700000000000900370000000000b6
:1068600007003700000000000500370000000000ae
:1068700003003700000000000100370000000000a6
:106880000080fa003400f9003200f9004f0478006b
:106890004f03be004f02be004f01be004f00be00be
:1068a0003600f900004006000040da000000fe005b
:1068b0003200f80001c0fe00881f78008a1f7800af
:1068c0004400f800080f200028028800000490000f
:1068d00010059000a000900030019000c0019000d1
:1068e0000300ca000280ca000030cb001a00cd00ad
:1068f0004604c3000100ca004604c0001e04c000d4
:106900000605c0000100cd0021009800050d7800ab
:10691000eaba9700052578004400f9004f05780091
:106920004f0478003200f900000006003200f80041
:1069300001c0fe00801f78004000b0000008eb009e
:106940004f007800801f7800100090000018eb00c6
:106950000018eb000008eb004f0078003200f9004f
:10696000000006003200f80001c0fe004400f800fc
:10697000020f200022028800910078003000ca0037
:106980003080ca000000cb002080ca000000cb008d
:106990003100cd004000ca000000cb000000cb0059
:1069a0000010cb003100cd001180cc004400f90074
:1069b0003200f900000006000000050003f0a2000c
:1069c000889fbe008a9fbe008c1f780000010700d0
:1069d000070133006450e1004f0032006420e10001
:1069e0005200320003826c0007003b000905d00012
:1069f0000306d000820f54000c065d00020039002f
:106a00000200320089017800030678008582550073
:106a100004003d000003fd008103fd008502ea0043
:106a20008b854200840f720002003b006000100062
:106a3000e08018006011b8000005eb007a28e10042
:106a40000a00390006007800c75ddd00f707b200d4
:106a5000878075002d003700828171000a0178005f
:106a6000610560008180d1000080d3008502e900cb
:106a7000f9ff3b00060440008784480002003b0009
:106a800060041400e0841c000988a30007003200a1
:106a90008a81710082817100610164008904d100e2
:106aa0000884d3008b05e800170037000978a3009d
:106ab00013003a000b00e000130034008b05e900de
:106ac0000804440089844c000a4474000978a30037
:106ad0000d003a000b00e000070034008b05e900d0
:106ae0000804440089844c0001003a000b00200097
:106af0000978a300f7ff32000001eb000200370025
:106b0000828171000a017800760007000cf0a7006e
:106b100001f0a000bf0037006420e10002003a004d
:106b2000838f6c00bf0033000801be000200be006e
:106b3000b8003700889fbe008a9fbe008c1f780077
:106b4000a3000700aa00330003866c006450e10034
:106b50002e0032006420e100330032006150e10079
:106b60002f0032006120e1003100320085855500a0
:106b7000eb07b000090020000804200005003700e2
:106b80000804440089844c000a00310006034300d5
:106b900087834b000001530081815b00f8ff3300c5
:106ba0000203be000800a0000804440089844c00d1
:106bb000f6ff3900c639dd008301730001003200a1
:106bc000130020008904d1000884d3000998a30091
:106bd000050032000800a7000300a0008904d100ce
:106be0000884d3008b05e8008904d1000884d30011
:106bf0000001eb000281d2003a00070001f0a10081
:106c00000cf0a70001f0a000820037006420e10032
:106c1000840032000801be000200be00f7ff37000a
:106c20006120e1007f0032006000b800f3ff370010
:106c30000000200001f82700f0ff370014002000ba
:106c4000af003700f4ff2f00ad0037000001be0099
:106c50004a0007000470a70003f0a1006509b10015
:106c6000160032000d0035006828e10006003500ee
:106c7000f0ff2f00f1ff27000300e00013003b00ae
:106c8000010028000000050000004000818048004d
:106c90008502e900fcff3a0008003700f88f420047
:106ca00002003c008000eb00000005008100d100e4
:106cb0000080d3008502e800fcff3a000300e000fa
:106cc00002003b0060001000e08018000000060099
:106cd0004f89de0082017800a40037006011b800ff
:106ce000b200370081002000618055000b003d009c
:106cf0000b00200061fe2f000100e1001d003400a8
:106d000082817100610164008904d1000884d3008c
:106d10000000e800faff3a00710020006100640002
:106d200003007000020060000900320061044400aa
:106d3000e0844c000988a500050032008b05e800be
:106d40006808e10002003a008904d1000884d300f9
:106d5000f20f20000258e10005003d00c75ddd0094
:106d6000f907b2008980750008007800000006006d
:106d70000bf827008b00780000000500c70ade0032
:106d8000f107b200f50fb20008003200e1cf420077
:106d9000020032000170a00024000500810f700085
:106da000010032000408050044000500810f700056
:106db00002003a00140005008502e90000004000ce
:106dc00081c04800fcff3b000170a00024000500ca
:106dd0000004be00e9ff07000003be000405be007a
:106de0000200be00e5ff0700844f750000000600aa
:106df0000200be006450e100050036006420e1009e
:106e0000020036000968a30001003a000800be0035
:106e10000160a0004f0678004f05be004f04be0081
:106e200000000600f0ff2f00f1ff2700f9ff3700f8
:106e3000889fbe008a9fbe008c1f7800e4ff070079
:106e4000ebff330003866c006450e1002400320045
:106e50006420e100270032006150e100220032008e
:106e60006120e100210032008b854200eb07b10078
:106e70000134b800003ab8000804420089844a008e
:106e8000013ab8000030b8008880400009014a008b
:106e900004003300000040008180480002014900e6
:106ea0008b05e900c909dd00830170000100320093
:106eb00013002000c814de004814dd004709de007e
:106ec0001200b200c808de000884700085ff0700c9
:106ed00001f0a1000cf0a70001f0a000cdff3700e9
:106ee0006120e100cfff32000801be000200be00b9
:106ef000f7ff37006150e100fcff3a00c9ff37009f
:106f0000889fbe008a9fbe00841f7800b0ff0700e4
:106f10004f00780011003300f0ff2f00838f6c00ca
:106f200006003b00040565000a00a70008003700c2
:106f300009f0a6001000200008003700820f54005e
:106f4000838f5c00030039001000200001003e0028
:106f50000000200009f0a7000000ea004f05be0075
:106f60004f04be000000e00000000600881f78000b
:106f7000030478000300e00007003d0060001000fb
:106f8000e080180060011900e081190002003b0058
:106f900001f02d00030037000400070008f0a700ef
:106fa00001f0a0004f04780000000600889fbe009a
:106fb0008a9fbe000082700004027100048271008a
:106fc000260032000004be000200be006011b800be
:106fd0006b092000950220000182cf000a003900d1
:106fe0000541b1000082cf00070039000541b10022
:106ff0000982cf00040039000541b1000882cf00aa
:10700000010039000541b100054252001200320072
:107010000a003b0082817100610164008100d1009f
:107020000080d3008984d3000884d3008b05e80056
:107030000442e800f7ff3a00070037000804440064
:1070400089844c0000004800818048008b05e900dd
:107050000442e900f9ff3a0022ff07004f05be0095
:107060004f04be00000006008001780002003700d7
:10707000b15978000201e9000200e000fcff3a008b
:1070800000000600ee874700889fbe008a9fbe0072
:107090008c9fbe008e1f7800f0b79f00010678001d
:1070a0008205780000047800080578000a0478005a
:1070b000b84678000d00fb008c0007000000e000df
:1070c000f9ff3a00d0c2b30080cf5600030032006f
:1070d00000c0e90080cf560002003a000a05e8002f
:1070e00001003700804678000b00e0000500350005
:1070f000e18f55000300320040022000808f5500d0
:10710000060034006044b8000c00e000700032005b
:107110007fb09700000e78006d0037000b00e00094
:107120000e003200f08f55001a003a0000c3b30081
:107130009a4f100017003a001a40900081c7b30020
:10714000814f50000300320081c5b300814f5000d1
:1071500010003a000a85e8000e003700ab0020005e
:1071600000c3b3009a4f10000a003a001a40900082
:1071700081c7b300814f5000040032008b00200013
:1071800081c5b300814f500002003a000a85e80033
:107190000b0120000a00780000027800040078004b
:1071a00001c3b300b0cf1000fbff3200040778002a
:1071b0006044b800b4b79f000d003700414c220076
:1071c00081405000c1ef9f006159b9000800be0026
:1071d000780407004fea97000401fb00cf91de001e
:1071e000c8b79f00d9b79f000204400083844800bd
:1071f0008e0278003e00fb0085bf9f004300070021
:107200000b01780080007800404c22003602070015
:107210008fba97000000e000e8ff3a003fb2970005
:10722000850f550005003a006044b8000c00e000ee
:1072300027003200ffb2970024003700048252007a
:10724000904e22000b0040001000fb000002520094
:107250001700330011003a004fe997000200fb00cd
:10726000cf80de000000540081805c00800f54005d
:10727000818f5c00090039006159b90085bf9f000a
:10728000390407008fba97004fb19700dfb197001c
:10729000820f5000838f580005003200200220002a
:1072a000502a89000084eb008084eb000500370041
:1072b000d0c2b30080cf560002003a006004140030
:1072c000e0841c000c00e00001003200050e780094
:1072d0000800be004f0778004f06be004f05be00f5
:1072e0004f04be00ef00b100000006006900e1009d
:1072f000040035006d00e100030034000002b1001d
:107300000100320000000500100005008000780038
:107310001104b100030035009101b10001003c00ef
:107320000050a00000000600602a81000000e0007c
:107330000100320000000100a054220000000600fd
:10734000881f7800020478000801780046ff0700d3
:10735000080040004f047800000006000000fa001a
:10736000881f780000047800ea8157003fb9970031
:1073700088007800009a2300070007000000e00062
:107380000200350000044400004ceb004f0478007c
:107390000080fa00000006006200fa00889fbe002c
:1073a0008a1f7800000578008104780002047800c4
:1073b0008300780080f92f000f004000d9030700f8
:1073c0009a979f00a9979f000000eb00b09f9f0035
:1073d0001885fb008a04fb000a05ea004f55de0011
:1073e00050022000808f54000d003200e10f550044
:1073f0000b003a000a017800880078002f9097006f
:107400009f91970003000100a0979f000000e000fb
:107410008e0032003f9897000000e800b09f9f0068
:107420000a04440050022000808f540004003200ff
:107430000900e000e6ff3a003f989700840037001b
:107440000000eb00909f9f00809f9f00f0979f009f
:10745000e0979f00d0979f00c0979f0007003700dc
:1074600041542200010050000000400081532200de
:10747000808040005f98970011007000d09f9f00af
:107480008804780009047800384578008a00fb00f9
:10749000405422009e0107000000e000f0ff3a0087
:1074a000a1c2b300814f55000e003a00cf8897006b
:1074b0000180e900c08f9f0010007800c09f9f00ee
:1074c0000000e00005003d000000ea00c09f9f00b2
:1074d0005f9897000020a000d09f9f000904e8005b
:1074e0000f003700c09f9f000000eb000500370031
:1074f000f2ff2700820f500002003200ea00b900bc
:10750000008040000904780088047800b900fb007e
:107510000103b100e98f5000f5ff3600c09f9f00c6
:10752000e0c2b300984f1000020032000080eb0070
:1075300019003700a0c2b300d84f100007003a006e
:10754000cf8897000180e900c08f9f00100078006d
:10755000a09f9f000804e800100037000000eb0027
:10756000a09f9f008800780005003700f3ff2700e8
:10757000830f500002003200ea00b9000000410011
:1075800001047800880078003101fb000203b1009b
:10759000e90f5100f5ff3600a09f9f009844780046
:1075a0008900fb0000532200590107000000e000a1
:1075b000020032000804e800010037008044eb00bc
:1075c000c97f9f0080c6b30080cf540004003a00fa
:1075d00098cf14000a003a006640500006003700b9
:1075e000c0c6b30080cf540005003a0098cf140005
:1075f00003003a0065404000c07f9f000804e80097
:107600001801fb00e3fb2f008f81410081f92f005f
:107610008f804000a0f92f000f00400010000700ed
:107620000000e00009003a00e1fb2f008f804000dd
:10763000a0f92f000f0040007e0207000000e000cc
:10764000020035000804e80061ff37000080eb000d
:107650004f0578004f04be000080fa0000000600cd
:10766000889fbe008a9fbe00e4c6b300844f5100cd
:10767000ce00320010003c006b425200844f51009b
:107680001800320005003c0054c2b300844f510082
:107690000601320084c5b3000f00370044c6b300b2
:1076a000844f51001500320065424200844f510062
:1076b00001013a001100370004c7b300844f5100a4
:1076c000ed0032005f00350065424200844f5100fa
:1076d0005c00320063424200844f5100f6003a00e1
:1076e000580037001181e90082087800f00090000e
:1076f0008181410092497800f500370020629000b6
:10770000c5c6b300854f520008003a0091027800c8
:107710006482520084087800940290001402780079
:107720004fabde00860378001600370015c7b300a4
:10773000854f520003003a0011047800680254009b
:1077400005003700a5c6b300854f520008003a0077
:1077500091047800688254008408780094029000b4
:1077600024039000b4039000140278000500370051
:107770001182e9008408780014027800cfa2de00ac
:10778000612bb9000498be000690be00a060900076
:1077900088c6b30088cf50000d00320028c6b30061
:1077a00088cf500004003a000402fb00cfa2de00a4
:1077b000612bb9000800370048c7b30088cf5000dc
:1077c000030032006644440088cf500004003a00b1
:1077d000cfa2de00612bb9000498be000690be0067
:1077e000100278009002900020039000b0039000f7
:1077f000f0009000e00f5200e08f5a00e00f5b00b5
:10780000e08f5b0003003d0001824100d5c2b30060
:107810000a003700001290000418a3000300320091
:1078200001824100b5c2b300040037000408a30080
:10783000590032000182410005c2b300054a7800b8
:107840005300370020629000c5c6b300854f520038
:1078500009003a0011057800640255008408780098
:1078600014047800940490006055b8000802be002b
:107870000a03be001600370015c7b300854f52003b
:1078800003003a0091047800688254000500370034
:10789000a5c6b300854f520008003a0011057800d4
:1078a0006802550084087800940290002403900038
:1078b000b403900014027800050037001182e9003b
:1078c00084087800140278008002eb006033b8006e
:1078d0000498be000690be00a060900088c6b30069
:1078e00088cf50000d00320028c6b30088cf50006a
:1078f00004003a000482fb008002eb006033b80011
:107900000800370048c7b30088cf5000030032009a
:107910006644440088cf500004003a008002eb0027
:107920006033b8000498be000690be00801090003e
:107930000138a30018003200100278009002900075
:1079400020039000b0039000e00f5200e08f5a0037
:10795000e00f5b00e08f5b000f00320081c7b300d7
:10796000814f51000300320081c5b300814f5100a7
:1079700009003a00f00090000182410005c3b30005
:10798000054a78008100e80001824100024a78003f
:107990008100e80071009800f000900081814100b2
:1079a00063009800824078003e003700a06190009c
:1079b000c4c6b3001181e90084cf51002200320017
:1079c0000a003c006442520084cf5100250032007e
:1079d00004c2e80084cf5100130032006842520014
:1079e00084cf51001e003a000a00370044c7b3009c
:1079f00084cf51001b0032006642420084cf510008
:107a0000180032006942520084cf510014003a003d
:107a100005003700820878009200780040589000f6
:107a2000804878002c0037008208780092007800a7
:107a3000600a9000cfa2de00612bb9008498be00de
:107a40008690be00240037008208780092007800fb
:107a500060099000cf91de008288be001e003700d2
:107a60001181e90082087800920078006008900097
:107a700080087800180037001181e900820878003a
:107a800012027800cfa2de00612bb9000498be007c
:107a90000690be00f00090008181410063009800d4
:107aa00081c7b300260007000b003700f0009000ec
:107ab0008181410005003700f00090008181410084
:107ac0000204e00001003a0052c2b300824978008b
:107ad0008100e800710098000000eb004f05be0037
:107ae0004f04be000000060003003700b0cf1000b6
:107af000050032000201e900800178000200e00088
:107b0000faff3a00000005000300780000000600bc
:107b1000020037000304e000060032000001780094
:107b200002007800b041780081cf5100f9ff3a009f
:107b3000010037000001eb000200780000000600a1
:107b4000fc874700889fbe008a9fbe008c9fbe00b6
:107b50008e1f78000006780080c5b30080cf5000eb
:107b60000a0032007740400080cf50000a00320007
:107b70006940400080cf50000b003200f0512200dd
:107b800080bf9f00ae0020000a003700e2502200b4
:107b900082bf9f0006003700f351220083bf9f0081
:107ba0008e00200003003700f451220084bf9f00a4
:107bb0000e0120001c0278009c0290002c03900013
:107bc000bc0390000605be000404be0040c6b3001e
:107bd00080cf5000030032006540400080cf50004d
:107be0000b003a00e00f5200e08f5a00e00f5b00fc
:107bf000e08f5b0006003d006000b8006011b80037
:107c000004045000858458000605590087855900f2
:107c1000e80f57000400320040002000f00f57002a
:107c20003c003a000100370030002000e00f540013
:107c3000e08f5c00e00f5d00e08f5d0004003a0023
:107c4000dc0890008d0120000100e00007003200f8
:107c50008e00e900888060008fba97008180420022
:107c600091407800f1ef9f007d01200080007800b6
:107c70008100e900050033008b05d1000a85d3009f
:107c80008984d3000884d300f9ff3700089ebe0022
:107c90000a96be00130037008d06e9008e00e90049
:107ca000848060000fb99700810041001141780085
:107cb00083fd2f008d81410082f7790080017800db
:107cc0008301e900050033008783d1000683d300d8
:107cd0008582d3000482d300f9ff3700049ebe00e2
:107ce0000696be001c0278009c0290002c039000b7
:107cf000bc039000e00f5200e08f5a00e00f5b00e1
:107d0000e08f5b00930034000d00e000e2ff3c00d8
:107d1000900037002c60900081c6b300814f500066
:107d20000b00320006003c000004e00008003200b6
:107d3000e6c05000814f500052003a000400370066
:107d4000c1c6b300814f50004e003a0023003700f7
:107d50000800e00004003a005c0890008d0120005b
:107d60000000e00007003200110009000e84d80076
:107d70000fba97000100420010407800f0ef9f001a
:107d80007d012000110009000e84d8000b0037008f
:107d9000110009000e04d8008d06e9008e81b9009b
:107da000020454008fb8970008844000984178007e
:107db00082fd2f000d0141008377790000047800d7
:107dc0000800e000020032000d00e000f0ff3c007f
:107dd000cfc4de00614db90027003700e00f54002a
:107de000e08f5c0004003a005c0890008d012000e8
:107df0000000e000080032006171b9000800be0018
:107e0000690107000fba9700800042009140780096
:107e1000f1ef9f007d0120006171b9000800be00f4
:107e2000510107000c0037006171b9000800be0065
:107e30003e0107008d06e90080f1b90002045400fc
:107e40008fba9700088442009841780082fd2f0085
:107e50000d014100837779000004be00e00f50005f
:107e6000e08f5800020032000d00e000eeff3c0001
:107e70004fcdde008a057800089ebe000a96be003f
:107e800034003700e00f5400e08f5c00e00f5d002d
:107e9000e08f5d0004003a005c0890008d01200036
:107ea0000000e0000a0032006172b900612bb900e5
:107eb0000800be000a01be00e60107000fba9700e5
:107ec0008000420091407800f1ef9f007d0120008a
:107ed0006172b900612bb9000800be000a01be0042
:107ee000d50107000e0037006172b900612bb9009f
:107ef0000800be000a01be00da0107008d06e90095
:107f000080f2b900040454008fba9700088442003c
:107f10009842780084fd2f000d02420085777a0098
:107f2000009ebe000296be001c0478009c049000d7
:107f30002c059000bc059000e00f5400e08f5c0021
:107f4000e00f5d00e08f5d00020034000d00e000f6
:107f5000e5ff3c00e80f570010003a000c109000bd
:107f60000038a3000d003200f78f560006003e00d7
:107f700080fd2f000d004000ef40780000c3b300eb
:107f800080cf50000500320002c3b30071fd2f0006
:107f90008d8040008d06e90082f778007881160018
:107fa000120e98006c00900083fd2f008f8141001d
:107fb0008d8041002cfc07001c089000dc0890001c
:107fc000810f500006003d0000805000000e980018
:107fd0000c1090000040a100001698000f00370020
:107fe0000100e0000d003d008c109000f480600066
:107ff000f08f500009003a007c099000fc009000ce
:10800000810051000c0990008280500000805000d7
:108010004240a90001003400000e98004f0778008c
:108020004f06be004f05be004f04be00cf01b10099
:10803000000006000400fa00889fbe008a9fbe0070
:108040008c1f78000004780001067800f80d90007d
:1080500078009000808555000808900080855500c4
:1080600018089000808555002808900080855500ec
:10807000380890008085550048089000808555009c
:108080000002220090bf9f0000032300a0bf9f00ba
:10809000081090000028a30015003a000b00e00033
:1080a000130034000b0578008a047800e20f5500b5
:1080b0000100360029002000c80190000901780065
:1080c000ee80570058009000030001005004980013
:1080d0000000e0008c0032006808900009004000b9
:1080e000600c9800090555004240a900eeff3c00d5
:1080f000780190000200e0000c003400c8019000fc
:108100008c00780058009000030001005004980093
:108110008080eb000000e0007c003200e808900066
:108120007800900000804000600c9800880c90005f
:108130000900e0001100340009057800e28f5400c6
:10814000010036002a002000c80190000a017800d2
:10815000ec80570058009000030001005004980084
:108160000000e00068003200680890000a0040004b
:10817000600c98008a845400edff370018099000c5
:108180000200e0000c003400c8019000e8009000fc
:108190005800900003000100500498008080eb001c
:1081a0000000e00059003200e80890001808900034
:1081b00000804000600c9800a80c90000900e000ce
:1081c0001100340009057800e28f540001003600e8
:1081d0002a002000c80190000a017800ec805700b6
:1081e0005800900003000100500498000000e000d7
:1081f00045003200680890000a004000600c9800ba
:108200008a845400edff3700380990000200e00036
:108210000e003400e80090001808900080804000b4
:10822000c80190005800900003000100500498001d
:108230008080eb000000e00034003200e80890008d
:108240003808900000804000600c9800c80c900036
:108250000900e0001100340009057800e28f5400a5
:10826000010036002a002000c80190000a017800b1
:10827000ec80570058009000030001005004980063
:108280000000e00020003200680890000a00400072
:10829000600c98008a845400edff370008109000ad
:1082a0008000eb000028a300180032000b00e00063
